{"contracts/MiniGigs.sol":{"MiniGigs":{"abi":[{"inputs":[{"internalType":"address","name":"_stablecoin","type":"address"}],"stateMutability":"nonpayable","type":"constructor"},{"inputs":[{"internalType":"address","name":"owner","type":"address"}],"name":"OwnableInvalidOwner","type":"error"},{"inputs":[{"internalType":"address","name":"account","type":"address"}],"name":"OwnableUnauthorizedAccount","type":"error"},{"inputs":[],"name":"ReentrancyGuardReentrantCall","type":"error"},{"anonymous":false,"inputs":[{"indexed":true,"internalType":"uint256","name":"id","type":"uint256"},{"indexed":true,"internalType":"address","name":"winner","type":"address"},{"indexed":false,"internalType":"uint256","name":"payout","type":"uint256"}],"name":"DisputeResolved","type":"event"},{"anonymous":false,"inputs":[{"indexed":true,"internalType":"uint256","name":"id","type":"uint256"},{"indexed":true,"internalType":"address","name":"worker","type":"address"},{"indexed":true,"internalType":"address","name":"poster","type":"address"}],"name":"GigAccepted","type":"event"},{"anonymous":false,"inputs":[{"indexed":true,"internalType":"uint256","name":"id","type":"uint256"}],"name":"GigCancelled","type":"event"},{"anonymous":false,"inputs":[{"indexed":true,"internalType":"uint256","name":"id","type":"uint256"},{"indexed":true,"internalType":"address","name":"worker","type":"address"},{"indexed":true,"internalType":"address","name":"poster","type":"address"},{"indexed":false,"internalType":"uint256","name":"payout","type":"uint256"}],"name":"GigCompleted","type":"event"},{"anonymous":false,"inputs":[{"indexed":true,"internalType":"uint256","name":"id","type":"uint256"},{"indexed":true,"internalType":"address","name":"disputer","type":"address"}],"name":"GigDisputed","type":"event"},{"anonymous":false,"inputs":[{"indexed":true,"internalType":"uint256","name":"id","type":"uint256"}],"name":"GigExpired","type":"event"},{"anonymous":false,"inputs":[{"indexed":true,"internalType":"uint256","name":"id","type":"uint256"},{"indexed":true,"internalType":"address","name":"poster","type":"address"},{"indexed":false,"internalType":"uint256","name":"bounty","type":"uint256"},{"indexed":false,"internalType":"string","name":"title","type":"string"}],"name":"GigPosted","type":"event"},{"anonymous":false,"inputs":[{"indexed":true,"internalType":"uint256","name":"id","type":"uint256"},{"indexed":true,"internalType":"address","name":"worker","type":"address"},{"indexed":false,"internalType":"string","name":"deliverables","type":"string"}],"name":"GigSubmitted","type":"event"},{"anonymous":false,"inputs":[{"indexed":true,"internalType":"address","name":"previousOwner","type":"address"},{"indexed":true,"internalType":"address","name":"newOwner","type":"address"}],"name":"OwnershipTransferred","type":"event"},{"inputs":[{"internalType":"uint256","name":"_id","type":"uint256"}],"name":"acceptGig","outputs":[],"stateMutability":"nonpayable","type":"function"},{"inputs":[{"internalType":"uint256","name":"_id","type":"uint256"}],"name":"cancelGig","outputs":[],"stateMutability":"nonpayable","type":"function"},{"inputs":[{"internalType":"uint256","name":"_id","type":"uint256"}],"name":"completeGig","outputs":[],"stateMutability":"nonpayable","type":"function"},{"inputs":[{"internalType":"uint256","name":"_id","type":"uint256"}],"name":"disputeGig","outputs":[],"stateMutability":"nonpayable","type":"function"},{"inputs":[{"internalType":"uint256","name":"_id","type":"uint256"}],"name":"expireGig","outputs":[],"stateMutability":"nonpayable","type":"function"},{"inputs":[],"name":"gigCount","outputs":[{"internalType":"uint256","name":"","type":"uint256"}],"stateMutability":"view","type":"function"},{"inputs":[{"internalType":"uint256","name":"","type":"uint256"}],"name":"gigs","outputs":[{"internalType":"uint256","name":"id","type":"uint256"},{"internalType":"address","name":"poster","type":"address"},{"internalType":"address","name":"worker","type":"address"},{"internalType":"uint256","name":"bounty","type":"uint256"},{"internalType":"string","name":"title","type":"string"},{"internalType":"string","name":"description","type":"string"},{"internalType":"enum MiniGigs.GigStatus","name":"status","type":"uint8"},{"internalType":"string","name":"deliverables","type":"string"},{"internalType":"uint256","name":"createdAt","type":"uint256"},{"internalType":"uint256","name":"deadline","type":"uint256"}],"stateMutability":"view","type":"function"},{"inputs":[],"name":"owner","outputs":[{"internalType":"address","name":"","type":"address"}],"stateMutability":"view","type":"function"},{"inputs":[],"name":"platformFeeBps","outputs":[{"internalType":"uint256","name":"","type":"uint256"}],"stateMutability":"view","type":"function"},{"inputs":[{"internalType":"string","name":"_title","type":"string"},{"internalType":"string","name":"_description","type":"string"},{"internalType":"uint256","name":"_bounty","type":"uint256"},{"internalType":"uint256","name":"_durationDays","type":"uint256"}],"name":"postGig","outputs":[],"stateMutability":"nonpayable","type":"function"},{"inputs":[],"name":"renounceOwnership","outputs":[],"stateMutability":"nonpayable","type":"function"},{"inputs":[{"internalType":"uint256","name":"_id","type":"uint256"},{"internalType":"uint256","name":"_payoutToPoster","type":"uint256"}],"name":"resolveDispute","outputs":[],"stateMutability":"nonpayable","type":"function"},{"inputs":[{"internalType":"uint256","name":"_bps","type":"uint256"}],"name":"setPlatformFee","outputs":[],"stateMutability":"nonpayable","type":"function"},{"inputs":[],"name":"stablecoin","outputs":[{"internalType":"contract IERC20","name":"","type":"address"}],"stateMutability":"view","type":"function"},{"inputs":[{"internalType":"uint256","name":"_id","type":"uint256"},{"internalType":"string","name":"_deliverables","type":"string"}],"name":"submitWork","outputs":[],"stateMutability":"nonpayable","type":"function"},{"inputs":[{"internalType":"address","name":"newOwner","type":"address"}],"name":"transferOwnership","outputs":[],"stateMutability":"nonpayable","type":"function"},{"inputs":[{"internalType":"uint256","name":"_amount","type":"uint256"}],"name":"withdrawFees","outputs":[],"stateMutability":"nonpayable","type":"function"}],"evm":{"bytecode":{"linkReferences":{},"object":"608060405260c86004553480156200001657600080fd5b50604051620038b2380380620038b283398181016040528101906200003c919062000298565b33600073ffffffffffffffffffffffffffffffffffffffff168173ffffffffffffffffffffffffffffffffffffffff1603620000b25760006040517f1e4fbdf7000000000000000000000000000000000000000000000000000000008152600401620000a99190620002db565b60405180910390fd5b620000c3816200013560201b60201c565b506001620000e6620000da620001f960201b60201c565b6200022460201b60201c565b6000018190555080600160006101000a81548173ffffffffffffffffffffffffffffffffffffffff021916908373ffffffffffffffffffffffffffffffffffffffff16021790555050620002f8565b60008060009054906101000a900473ffffffffffffffffffffffffffffffffffffffff169050816000806101000a81548173ffffffffffffffffffffffffffffffffffffffff021916908373ffffffffffffffffffffffffffffffffffffffff1602179055508173ffffffffffffffffffffffffffffffffffffffff168173ffffffffffffffffffffffffffffffffffffffff167f8be0079c531659141344cd1fd0a4f28419497f9722a3daafe3b4186f6b6457e060405160405180910390a35050565b60007f9b779b17422d0df92223018b32b4d1fa46e071723d6817e2486d003becc55f0060001b905090565b6000819050919050565b600080fd5b600073ffffffffffffffffffffffffffffffffffffffff82169050919050565b6000620002608262000233565b9050919050565b620002728162000253565b81146200027e57600080fd5b50565b600081519050620002928162000267565b92915050565b600060208284031215620002b157620002b06200022e565b5b6000620002c18482850162000281565b91505092915050565b620002d58162000253565b82525050565b6000602082019050620002f26000830184620002ca565b92915050565b6135aa80620003086000396000f3fe608060405234801561001057600080fd5b506004361061010b5760003560e01c80635e318e07116100a2578063bdc84ac311610071578063bdc84ac314610271578063d18469241461028d578063da8accf9146102a9578063e9cbd822146102c5578063f2fde38b146102e35761010b565b80635e318e07146101f45780635e3fbdc814610210578063715018a6146102495780638da5cb5b146102535761010b565b80633689e916116100de5780633689e916146101825780634bca9a88146101a0578063537ac9f2146101bc578063578114dc146101d85761010b565b806312e8e2c31461011057806316c3db581461012c5780631906077d1461014857806322dcd13e14610164575b600080fd5b61012a60048036038101906101259190611fa4565b6102ff565b005b61014660048036038101906101419190611fa4565b610356565b005b610162600480360381019061015d9190612117565b610586565b005b61016c61091d565b60405161017991906121c5565b60405180910390f35b61018a610923565b60405161019791906121c5565b60405180910390f35b6101ba60048036038101906101b59190611fa4565b610929565b005b6101d660048036038101906101d19190611fa4565b610b9b565b005b6101f260048036038101906101ed9190611fa4565b610de5565b005b61020e60048036038101906102099190611fa4565b610ff9565b005b61022a60048036038101906102259190611fa4565b6110ea565b6040516102409a99989796959493929190612317565b60405180910390f35b610251611323565b005b61025b611337565b60405161026891906123c8565b60405180910390f35b61028b600480360381019061028691906123e3565b611360565b005b6102a760048036038101906102a29190611fa4565b6117a8565b005b6102c360048036038101906102be9190612483565b611ad0565b005b6102cd611c89565b6040516102da9190612542565b60405180910390f35b6102fd60048036038101906102f89190612589565b611caf565b005b610307611d35565b6103e881111561034c576040517f08c379a000000000000000000000000000000000000000000000000000000000815260040161034390612602565b60405180910390fd5b8060048190555050565b600060036000838152602001908152602001600020905060026006811115610381576103806122a0565b5b8160060160009054906101000a900460ff1660068111156103a5576103a46122a0565b5b14806103e65750600160068111156103c0576103bf6122a0565b5b8160060160009054906101000a900460ff1660068111156103e4576103e36122a0565b5b145b610425576040517f08c379a000000000000000000000000000000000000000000000000000000000815260040161041c9061266e565b60405180910390fd5b8060010160009054906101000a900473ffffffffffffffffffffffffffffffffffffffff1673ffffffffffffffffffffffffffffffffffffffff163373ffffffffffffffffffffffffffffffffffffffff1614806104d257508060020160009054906101000a900473ffffffffffffffffffffffffffffffffffffffff1673ffffffffffffffffffffffffffffffffffffffff163373ffffffffffffffffffffffffffffffffffffffff16145b610511576040517f08c379a0000000000000000000000000000000000000000000000000000000008152600401610508906126da565b60405180910390fd5b60048160060160006101000a81548160ff02191690836006811115610539576105386122a0565b5b02179055503373ffffffffffffffffffffffffffffffffffffffff16827f4692503f78893dfefd71edda8ffb8c490c3a203607b5cbaa7e7585a5b3efe8d060405160405180910390a35050565b61058e611dbc565b600082116105d1576040517f08c379a00000000000000000000000000000000000000000000000000000000081526004016105c890612746565b60405180910390fd5b600160009054906101000a900473ffffffffffffffffffffffffffffffffffffffff1673ffffffffffffffffffffffffffffffffffffffff166323b872dd3330856040518463ffffffff1660e01b815260040161063093929190612766565b6020604051808303816000875af115801561064f573d6000803e3d6000fd5b505050506040513d601f19601f8201168201806040525081019061067391906127d5565b6106b2576040517f08c379a00000000000000000000000000000000000000000000000000000000081526004016106a99061284e565b60405180910390fd5b600260008154809291906106c59061289d565b919050555060405180610140016040528060025481526020013373ffffffffffffffffffffffffffffffffffffffff168152602001600073ffffffffffffffffffffffffffffffffffffffff1681526020018381526020018581526020018481526020016000600681111561073d5761073c6122a0565b5b8152602001604051806020016040528060008152508152602001428152602001620151808361076c91906128e5565b426107779190612927565b8152506003600060025481526020019081526020016000206000820151816000015560208201518160010160006101000a81548173ffffffffffffffffffffffffffffffffffffffff021916908373ffffffffffffffffffffffffffffffffffffffff16021790555060408201518160020160006101000a81548173ffffffffffffffffffffffffffffffffffffffff021916908373ffffffffffffffffffffffffffffffffffffffff1602179055506060820151816003015560808201518160040190816108469190612b5d565b5060a082015181600501908161085c9190612b5d565b5060c08201518160060160006101000a81548160ff02191690836006811115610888576108876122a0565b5b021790555060e08201518160070190816108a29190612b5d565b50610100820151816008015561012082015181600901559050503373ffffffffffffffffffffffffffffffffffffffff166002547fd331dcf16ef7b1384947638c2e2b40bbde08aac9316b0ff35a593a3312fd73f78487604051610907929190612c2f565b60405180910390a3610917611ddf565b50505050565b60045481565b60025481565b610931611dbc565b60006003600083815260200190815260200160002090506000600681111561095c5761095b6122a0565b5b8160060160009054906101000a900460ff1660068111156109805761097f6122a0565b5b146109c0576040517f08c379a00000000000000000000000000000000000000000000000000000000081526004016109b790612cab565b60405180910390fd5b3373ffffffffffffffffffffffffffffffffffffffff168160010160009054906101000a900473ffffffffffffffffffffffffffffffffffffffff1673ffffffffffffffffffffffffffffffffffffffff1614610a52576040517f08c379a0000000000000000000000000000000000000000000000000000000008152600401610a4990612d17565b60405180910390fd5b60058160060160006101000a81548160ff02191690836006811115610a7a57610a796122a0565b5b0217905550600160009054906101000a900473ffffffffffffffffffffffffffffffffffffffff1673ffffffffffffffffffffffffffffffffffffffff1663a9059cbb3383600301546040518363ffffffff1660e01b8152600401610ae0929190612d37565b6020604051808303816000875af1158015610aff573d6000803e3d6000fd5b505050506040513d601f19601f82011682018060405250810190610b2391906127d5565b610b62576040517f08c379a0000000000000000000000000000000000000000000000000000000008152600401610b5990612dac565b60405180910390fd5b817fed32a7868dd1701d125217f8867209cbb1c23f3cd6d044309a73d56b6c64702460405160405180910390a250610b98611ddf565b50565b610ba3611dbc565b600060036000838152602001908152602001600020905060006006811115610bce57610bcd6122a0565b5b8160060160009054906101000a900460ff166006811115610bf257610bf16122a0565b5b14610c32576040517f08c379a0000000000000000000000000000000000000000000000000000000008152600401610c2990612e18565b60405180910390fd5b80600901544211610c78576040517f08c379a0000000000000000000000000000000000000000000000000000000008152600401610c6f90612e84565b60405180910390fd5b60068160060160006101000a81548160ff02191690836006811115610ca057610c9f6122a0565b5b0217905550600160009054906101000a900473ffffffffffffffffffffffffffffffffffffffff1673ffffffffffffffffffffffffffffffffffffffff1663a9059cbb8260010160009054906101000a900473ffffffffffffffffffffffffffffffffffffffff1683600301546040518363ffffffff1660e01b8152600401610d2a929190612d37565b6020604051808303816000875af1158015610d49573d6000803e3d6000fd5b505050506040513d601f19601f82011682018060405250810190610d6d91906127d5565b610dac576040517f08c379a0000000000000000000000000000000000000000000000000000000008152600401610da390612dac565b60405180910390fd5b817f87a6816e66cd54634297f446a863e443a1b345c5f6320c892d4de4b7b07d14c460405160405180910390a250610de2611ddf565b50565b600060036000838152602001908152602001600020905060006006811115610e1057610e0f6122a0565b5b8160060160009054906101000a900460ff166006811115610e3457610e336122a0565b5b14610e74576040517f08c379a0000000000000000000000000000000000000000000000000000000008152600401610e6b90612ef0565b60405180910390fd5b3373ffffffffffffffffffffffffffffffffffffffff168160010160009054906101000a900473ffffffffffffffffffffffffffffffffffffffff1673ffffffffffffffffffffffffffffffffffffffff1603610f06576040517f08c379a0000000000000000000000000000000000000000000000000000000008152600401610efd90612f5c565b60405180910390fd5b338160020160006101000a81548173ffffffffffffffffffffffffffffffffffffffff021916908373ffffffffffffffffffffffffffffffffffffffff16021790555060018160060160006101000a81548160ff02191690836006811115610f7157610f706122a0565b5b02179055508060010160009054906101000a900473ffffffffffffffffffffffffffffffffffffffff1673ffffffffffffffffffffffffffffffffffffffff163373ffffffffffffffffffffffffffffffffffffffff16837fb6c0ff4d2b4c4a840af5f24120872e97f1c6a2f2293092ca7301d3e05df34fcc60405160405180910390a45050565b611001611d35565b600160009054906101000a900473ffffffffffffffffffffffffffffffffffffffff1673ffffffffffffffffffffffffffffffffffffffff1663a9059cbb611047611337565b836040518363ffffffff1660e01b8152600401611065929190612d37565b6020604051808303816000875af1158015611084573d6000803e3d6000fd5b505050506040513d601f19601f820116820180604052508101906110a891906127d5565b6110e7576040517f08c379a00000000000000000000000000000000000000000000000000000000081526004016110de90612fc8565b60405180910390fd5b50565b60036020528060005260406000206000915090508060000154908060010160009054906101000a900473ffffffffffffffffffffffffffffffffffffffff16908060020160009054906101000a900473ffffffffffffffffffffffffffffffffffffffff16908060030154908060040180546111659061298a565b80601f01602080910402602001604051908101604052809291908181526020018280546111919061298a565b80156111de5780601f106111b3576101008083540402835291602001916111de565b820191906000526020600020905b8154815290600101906020018083116111c157829003601f168201915b5050505050908060050180546111f39061298a565b80601f016020809104026020016040519081016040528092919081815260200182805461121f9061298a565b801561126c5780601f106112415761010080835404028352916020019161126c565b820191906000526020600020905b81548152906001019060200180831161124f57829003601f168201915b5050505050908060060160009054906101000a900460ff16908060070180546112949061298a565b80601f01602080910402602001604051908101604052809291908181526020018280546112c09061298a565b801561130d5780601f106112e25761010080835404028352916020019161130d565b820191906000526020600020905b8154815290600101906020018083116112f057829003601f168201915b505050505090806008015490806009015490508a565b61132b611d35565b6113356000611dfa565b565b60008060009054906101000a900473ffffffffffffffffffffffffffffffffffffffff16905090565b611368611d35565b611370611dbc565b60006003600084815260200190815260200160002090506004600681111561139b5761139a6122a0565b5b8160060160009054906101000a900460ff1660068111156113bf576113be6122a0565b5b146113ff576040517f08c379a00000000000000000000000000000000000000000000000000000000081526004016113f690613034565b60405180910390fd5b6064821115611443576040517f08c379a000000000000000000000000000000000000000000000000000000000815260040161143a906130a0565b60405180910390fd5b6000606483836003015461145791906128e5565b61146191906130ef565b905060008183600301546114759190613120565b9050600082111561158457600160009054906101000a900473ffffffffffffffffffffffffffffffffffffffff1673ffffffffffffffffffffffffffffffffffffffff1663a9059cbb8460010160009054906101000a900473ffffffffffffffffffffffffffffffffffffffff16846040518363ffffffff1660e01b8152600401611501929190612d37565b6020604051808303816000875af1158015611520573d6000803e3d6000fd5b505050506040513d601f19601f8201168201806040525081019061154491906127d5565b611583576040517f08c379a000000000000000000000000000000000000000000000000000000000815260040161157a906131a0565b60405180910390fd5b5b60008111156116c2576000612710600454836115a091906128e5565b6115aa91906130ef565b9050600081836115ba9190613120565b9050600160009054906101000a900473ffffffffffffffffffffffffffffffffffffffff1673ffffffffffffffffffffffffffffffffffffffff1663a9059cbb8660020160009054906101000a900473ffffffffffffffffffffffffffffffffffffffff16836040518363ffffffff1660e01b815260040161163d929190612d37565b6020604051808303816000875af115801561165c573d6000803e3d6000fd5b505050506040513d601f19601f8201168201806040525081019061168091906127d5565b6116bf576040517f08c379a00000000000000000000000000000000000000000000000000000000081526004016116b69061320c565b60405180910390fd5b50505b60038360060160006101000a81548160ff021916908360068111156116ea576116e96122a0565b5b021790555060648414611721578260020160009054906101000a900473ffffffffffffffffffffffffffffffffffffffff16611747565b8260010160009054906101000a900473ffffffffffffffffffffffffffffffffffffffff165b73ffffffffffffffffffffffffffffffffffffffff16857fdf0baf5489595ea17a097d16827d60793e2f57f3b85a982e5d7e02838b841ee6856003015460405161179191906121c5565b60405180910390a35050506117a4611ddf565b5050565b6117b0611dbc565b6000600360008381526020019081526020016000209050600260068111156117db576117da6122a0565b5b8160060160009054906101000a900460ff1660068111156117ff576117fe6122a0565b5b1461183f576040517f08c379a000000000000000000000000000000000000000000000000000000000815260040161183690613278565b60405180910390fd5b3373ffffffffffffffffffffffffffffffffffffffff168160010160009054906101000a900473ffffffffffffffffffffffffffffffffffffffff1673ffffffffffffffffffffffffffffffffffffffff16146118d1576040517f08c379a00000000000000000000000000000000000000000000000000000000081526004016118c8906132e4565b60405180910390fd5b60038160060160006101000a81548160ff021916908360068111156118f9576118f86122a0565b5b02179055506000612710600454836003015461191591906128e5565b61191f91906130ef565b905060008183600301546119339190613120565b9050600160009054906101000a900473ffffffffffffffffffffffffffffffffffffffff1673ffffffffffffffffffffffffffffffffffffffff1663a9059cbb8460020160009054906101000a900473ffffffffffffffffffffffffffffffffffffffff16836040518363ffffffff1660e01b81526004016119b6929190612d37565b6020604051808303816000875af11580156119d5573d6000803e3d6000fd5b505050506040513d601f19601f820116820180604052508101906119f991906127d5565b611a38576040517f08c379a0000000000000000000000000000000000000000000000000000000008152600401611a2f90613350565b60405180910390fd5b3373ffffffffffffffffffffffffffffffffffffffff168360020160009054906101000a900473ffffffffffffffffffffffffffffffffffffffff1673ffffffffffffffffffffffffffffffffffffffff16857fd6aa43b3ef389699d8f67c5f1a0c7aed44dabfc43ff152ab342c962c8ce7de3984604051611aba91906121c5565b60405180910390a4505050611acd611ddf565b50565b600060036000858152602001908152602001600020905060016006811115611afb57611afa6122a0565b5b8160060160009054906101000a900460ff166006811115611b1f57611b1e6122a0565b5b14611b5f576040517f08c379a0000000000000000000000000000000000000000000000000000000008152600401611b56906133bc565b60405180910390fd5b3373ffffffffffffffffffffffffffffffffffffffff168160020160009054906101000a900473ffffffffffffffffffffffffffffffffffffffff1673ffffffffffffffffffffffffffffffffffffffff1614611bf1576040517f08c379a0000000000000000000000000000000000000000000000000000000008152600401611be890613428565b60405180910390fd5b8282826007019182611c04929190613453565b5060028160060160006101000a81548160ff02191690836006811115611c2d57611c2c6122a0565b5b02179055503373ffffffffffffffffffffffffffffffffffffffff16847fee03d8ca892f60549b4585b91e57a806ee32043f2ee49d34d6c67f42889df0ff8585604051611c7b929190613550565b60405180910390a350505050565b600160009054906101000a900473ffffffffffffffffffffffffffffffffffffffff1681565b611cb7611d35565b600073ffffffffffffffffffffffffffffffffffffffff168173ffffffffffffffffffffffffffffffffffffffff1603611d295760006040517f1e4fbdf7000000000000000000000000000000000000000000000000000000008152600401611d2091906123c8565b60405180910390fd5b611d3281611dfa565b50565b611d3d611ebe565b73ffffffffffffffffffffffffffffffffffffffff16611d5b611337565b73ffffffffffffffffffffffffffffffffffffffff1614611dba57611d7e611ebe565b6040517f118cdaa7000000000000000000000000000000000000000000000000000000008152600401611db191906123c8565b60405180910390fd5b565b611dc4611ec6565b6002611dd6611dd1611f07565b611f32565b60000181905550565b6001611df1611dec611f07565b611f32565b60000181905550565b60008060009054906101000a900473ffffffffffffffffffffffffffffffffffffffff169050816000806101000a81548173ffffffffffffffffffffffffffffffffffffffff021916908373ffffffffffffffffffffffffffffffffffffffff1602179055508173ffffffffffffffffffffffffffffffffffffffff168173ffffffffffffffffffffffffffffffffffffffff167f8be0079c531659141344cd1fd0a4f28419497f9722a3daafe3b4186f6b6457e060405160405180910390a35050565b600033905090565b611ece611f3c565b15611f05576040517f3ee5aeb500000000000000000000000000000000000000000000000000000000815260040160405180910390fd5b565b60007f9b779b17422d0df92223018b32b4d1fa46e071723d6817e2486d003becc55f0060001b905090565b6000819050919050565b60006002611f50611f4b611f07565b611f32565b6000015414905090565b6000604051905090565b600080fd5b600080fd5b6000819050919050565b611f8181611f6e565b8114611f8c57600080fd5b50565b600081359050611f9e81611f78565b92915050565b600060208284031215611fba57611fb9611f64565b5b6000611fc884828501611f8f565b91505092915050565b600080fd5b600080fd5b6000601f19601f8301169050919050565b7f4e487b7100000000000000000000000000000000000000000000000000000000600052604160045260246000fd5b61202482611fdb565b810181811067ffffffffffffffff8211171561204357612042611fec565b5b80604052505050565b6000612056611f5a565b9050612062828261201b565b919050565b600067ffffffffffffffff82111561208257612081611fec565b5b61208b82611fdb565b9050602081019050919050565b82818337600083830152505050565b60006120ba6120b584612067565b61204c565b9050828152602081018484840111156120d6576120d5611fd6565b5b6120e1848285612098565b509392505050565b600082601f8301126120fe576120fd611fd1565b5b813561210e8482602086016120a7565b91505092915050565b6000806000806080858703121561213157612130611f64565b5b600085013567ffffffffffffffff81111561214f5761214e611f69565b5b61215b878288016120e9565b945050602085013567ffffffffffffffff81111561217c5761217b611f69565b5b612188878288016120e9565b935050604061219987828801611f8f565b92505060606121aa87828801611f8f565b91505092959194509250565b6121bf81611f6e565b82525050565b60006020820190506121da60008301846121b6565b92915050565b600073ffffffffffffffffffffffffffffffffffffffff82169050919050565b600061220b826121e0565b9050919050565b61221b81612200565b82525050565b600081519050919050565b600082825260208201905092915050565b60005b8381101561225b578082015181840152602081019050612240565b60008484015250505050565b600061227282612221565b61227c818561222c565b935061228c81856020860161223d565b61229581611fdb565b840191505092915050565b7f4e487b7100000000000000000000000000000000000000000000000000000000600052602160045260246000fd5b600781106122e0576122df6122a0565b5b50565b60008190506122f1826122cf565b919050565b6000612301826122e3565b9050919050565b612311816122f6565b82525050565b60006101408201905061232d600083018d6121b6565b61233a602083018c612212565b612347604083018b612212565b612354606083018a6121b6565b81810360808301526123668189612267565b905081810360a083015261237a8188612267565b905061238960c0830187612308565b81810360e083015261239b8186612267565b90506123ab6101008301856121b6565b6123b96101208301846121b6565b9b9a5050505050505050505050565b60006020820190506123dd6000830184612212565b92915050565b600080604083850312156123fa576123f9611f64565b5b600061240885828601611f8f565b925050602061241985828601611f8f565b9150509250929050565b600080fd5b600080fd5b60008083601f84011261244357612442611fd1565b5b8235905067ffffffffffffffff8111156124605761245f612423565b5b60208301915083600182028301111561247c5761247b612428565b5b9250929050565b60008060006040848603121561249c5761249b611f64565b5b60006124aa86828701611f8f565b935050602084013567ffffffffffffffff8111156124cb576124ca611f69565b5b6124d78682870161242d565b92509250509250925092565b6000819050919050565b60006125086125036124fe846121e0565b6124e3565b6121e0565b9050919050565b600061251a826124ed565b9050919050565b600061252c8261250f565b9050919050565b61253c81612521565b82525050565b60006020820190506125576000830184612533565b92915050565b61256681612200565b811461257157600080fd5b50565b6000813590506125838161255d565b92915050565b60006020828403121561259f5761259e611f64565b5b60006125ad84828501612574565b91505092915050565b7f46656520746f6f20686967680000000000000000000000000000000000000000600082015250565b60006125ec600c8361222c565b91506125f7826125b6565b602082019050919050565b6000602082019050818103600083015261261b816125df565b9050919050565b7f496e76616c69642073746174757320666f722064697370757465000000000000600082015250565b6000612658601a8361222c565b915061266382612622565b602082019050919050565b600060208201905081810360008301526126878161264b565b9050919050565b7f4e6f7420617574686f72697a656420746f206469737075746500000000000000600082015250565b60006126c460198361222c565b91506126cf8261268e565b602082019050919050565b600060208201905081810360008301526126f3816126b7565b9050919050565b7f426f756e7479206d757374206265203e20300000000000000000000000000000600082015250565b600061273060128361222c565b915061273b826126fa565b602082019050919050565b6000602082019050818103600083015261275f81612723565b9050919050565b600060608201905061277b6000830186612212565b6127886020830185612212565b61279560408301846121b6565b949350505050565b60008115159050919050565b6127b28161279d565b81146127bd57600080fd5b50565b6000815190506127cf816127a9565b92915050565b6000602082840312156127eb576127ea611f64565b5b60006127f9848285016127c0565b91505092915050565b7f457363726f77206465706f736974206661696c65640000000000000000000000600082015250565b600061283860158361222c565b915061284382612802565b602082019050919050565b600060208201905081810360008301526128678161282b565b9050919050565b7f4e487b7100000000000000000000000000000000000000000000000000000000600052601160045260246000fd5b60006128a882611f6e565b91507fffffffffffffffffffffffffffffffffffffffffffffffffffffffffffffffff82036128da576128d961286e565b5b600182019050919050565b60006128f082611f6e565b91506128fb83611f6e565b925082820261290981611f6e565b915082820484148315176129205761291f61286e565b5b5092915050565b600061293282611f6e565b915061293d83611f6e565b92508282019050808211156129555761295461286e565b5b92915050565b7f4e487b7100000000000000000000000000000000000000000000000000000000600052602260045260246000fd5b600060028204905060018216806129a257607f821691505b6020821081036129b5576129b461295b565b5b50919050565b60008190508160005260206000209050919050565b60006020601f8301049050919050565b600082821b905092915050565b600060088302612a1d7fffffffffffffffffffffffffffffffffffffffffffffffffffffffffffffffff826129e0565b612a2786836129e0565b95508019841693508086168417925050509392505050565b6000612a5a612a55612a5084611f6e565b6124e3565b611f6e565b9050919050565b6000819050919050565b612a7483612a3f565b612a88612a8082612a61565b8484546129ed565b825550505050565b600090565b612a9d612a90565b612aa8818484612a6b565b505050565b5b81811015612acc57612ac1600082612a95565b600181019050612aae565b5050565b601f821115612b1157612ae2816129bb565b612aeb846129d0565b81016020851015612afa578190505b612b0e612b06856129d0565b830182612aad565b50505b505050565b600082821c905092915050565b6000612b3460001984600802612b16565b1980831691505092915050565b6000612b4d8383612b23565b9150826002028217905092915050565b612b6682612221565b67ffffffffffffffff811115612b7f57612b7e611fec565b5b612b89825461298a565b612b94828285612ad0565b600060209050601f831160018114612bc75760008415612bb5578287015190505b612bbf8582612b41565b865550612c27565b601f198416612bd5866129bb565b60005b82811015612bfd57848901518255600182019150602085019450602081019050612bd8565b86831015612c1a5784890151612c16601f891682612b23565b8355505b6001600288020188555050505b505050505050565b6000604082019050612c4460008301856121b6565b8181036020830152612c568184612267565b90509392505050565b7f4f6e6c79206f70656e20676967732063616e2062652063616e63656c6c656400600082015250565b6000612c95601f8361222c565b9150612ca082612c5f565b602082019050919050565b60006020820190508181036000830152612cc481612c88565b9050919050565b7f4f6e6c7920706f737465722063616e2063616e63656c00000000000000000000600082015250565b6000612d0160168361222c565b9150612d0c82612ccb565b602082019050919050565b60006020820190508181036000830152612d3081612cf4565b9050919050565b6000604082019050612d4c6000830185612212565b612d5960208301846121b6565b9392505050565b7f526566756e64206661696c656400000000000000000000000000000000000000600082015250565b6000612d96600d8361222c565b9150612da182612d60565b602082019050919050565b60006020820190508181036000830152612dc581612d89565b9050919050565b7f4f6e6c79206f70656e20676967732063616e2065787069726500000000000000600082015250565b6000612e0260198361222c565b9150612e0d82612dcc565b602082019050919050565b60006020820190508181036000830152612e3181612df5565b9050919050565b7f446561646c696e65206e6f742072656163686564000000000000000000000000600082015250565b6000612e6e60148361222c565b9150612e7982612e38565b602082019050919050565b60006020820190508181036000830152612e9d81612e61565b9050919050565b7f476967206e6f74206f70656e0000000000000000000000000000000000000000600082015250565b6000612eda600c8361222c565b9150612ee582612ea4565b602082019050919050565b60006020820190508181036000830152612f0981612ecd565b9050919050565b7f43616e6e6f7420616363657074206f776e206769670000000000000000000000600082015250565b6000612f4660158361222c565b9150612f5182612f10565b602082019050919050565b60006020820190508181036000830152612f7581612f39565b9050919050565b7f5769746864726177616c206661696c6564000000000000000000000000000000600082015250565b6000612fb260118361222c565b9150612fbd82612f7c565b602082019050919050565b60006020820190508181036000830152612fe181612fa5565b9050919050565b7f476967206e6f7420646973707574656400000000000000000000000000000000600082015250565b600061301e60108361222c565b915061302982612fe8565b602082019050919050565b6000602082019050818103600083015261304d81613011565b9050919050565b7f496e76616c69642070657263656e746167650000000000000000000000000000600082015250565b600061308a60128361222c565b915061309582613054565b602082019050919050565b600060208201905081810360008301526130b98161307d565b9050919050565b7f4e487b7100000000000000000000000000000000000000000000000000000000600052601260045260246000fd5b60006130fa82611f6e565b915061310583611f6e565b925082613115576131146130c0565b5b828204905092915050565b600061312b82611f6e565b915061313683611f6e565b925082820390508181111561314e5761314d61286e565b5b92915050565b7f506f7374657220726566756e64206661696c6564000000000000000000000000600082015250565b600061318a60148361222c565b915061319582613154565b602082019050919050565b600060208201905081810360008301526131b98161317d565b9050919050565b7f576f726b6572207061796f7574206661696c6564000000000000000000000000600082015250565b60006131f660148361222c565b9150613201826131c0565b602082019050919050565b60006020820190508181036000830152613225816131e9565b9050919050565b7f576f726b206e6f74207375626d69747465640000000000000000000000000000600082015250565b600061326260128361222c565b915061326d8261322c565b602082019050919050565b6000602082019050818103600083015261329181613255565b9050919050565b7f4f6e6c7920706f737465722063616e2072656c656173652066756e6473000000600082015250565b60006132ce601d8361222c565b91506132d982613298565b602082019050919050565b600060208201905081810360008301526132fd816132c1565b9050919050565b7f5061796f7574206661696c656400000000000000000000000000000000000000600082015250565b600061333a600d8361222c565b915061334582613304565b602082019050919050565b600060208201905081810360008301526133698161332d565b9050919050565b7f476967206e6f7420696e2070726f677265737300000000000000000000000000600082015250565b60006133a660138361222c565b91506133b182613370565b602082019050919050565b600060208201905081810360008301526133d581613399565b9050919050565b7f4f6e6c7920776f726b65722063616e207375626d697400000000000000000000600082015250565b600061341260168361222c565b915061341d826133dc565b602082019050919050565b6000602082019050818103600083015261344181613405565b9050919050565b600082905092915050565b61345d8383613448565b67ffffffffffffffff81111561347657613475611fec565b5b613480825461298a565b61348b828285612ad0565b6000601f8311600181146134ba57600084156134a8578287013590505b6134b28582612b41565b86555061351a565b601f1984166134c8866129bb565b60005b828110156134f0578489013582556001820191506020850194506020810190506134cb565b8683101561350d5784890135613509601f891682612b23565b8355505b6001600288020188555050505b50505050505050565b600061352f838561222c565b935061353c838584612098565b61354583611fdb565b840190509392505050565b6000602082019050818103600083015261356b818486613523565b9050939250505056fea264697066735822122097bcf3e9976431ab6a463d11fd4a6869b0f645be3cdaac3fd1b717e469fa480c64736f6c63430008140033","opcodes":"PUSH1 0x80 PUSH1 0x40 MSTORE PUSH1 0xC8 PUSH1 0x4 SSTORE CALLVALUE DUP1 ISZERO PUSH3 0x16 JUMPI PUSH1 0x0 DUP1 REVERT JUMPDEST POP PUSH1 0x40 MLOAD PUSH3 0x38B2 CODESIZE SUB DUP1 PUSH3 0x38B2 DUP4 CODECOPY DUP2 DUP2 ADD PUSH1 0x40 MSTORE DUP2 ADD SWAP1 PUSH3 0x3C SWAP2 SWAP1 PUSH3 0x298 JUMP JUMPDEST CALLER PUSH1 0x0 PUSH20 0xFFFFFFFFFFFFFFFFFFFFFFFFFFFFFFFFFFFFFFFF AND DUP2 PUSH20 0xFFFFFFFFFFFFFFFFFFFFFFFFFFFFFFFFFFFFFFFF AND SUB PUSH3 0xB2 JUMPI PUSH1 0x0 PUSH1 0x40 MLOAD PUSH32 0x1E4FBDF700000000000000000000000000000000000000000000000000000000 DUP2 MSTORE PUSH1 0x4 ADD PUSH3 0xA9 SWAP2 SWAP1 PUSH3 0x2DB JUMP JUMPDEST PUSH1 0x40 MLOAD DUP1 SWAP2 SUB SWAP1 REVERT JUMPDEST PUSH3 0xC3 DUP2 PUSH3 0x135 PUSH1 0x20 SHL PUSH1 0x20 SHR JUMP JUMPDEST POP PUSH1 0x1 PUSH3 0xE6 PUSH3 0xDA PUSH3 0x1F9 PUSH1 0x20 SHL PUSH1 0x20 SHR JUMP JUMPDEST PUSH3 0x224 PUSH1 0x20 SHL PUSH1 0x20 SHR JUMP JUMPDEST PUSH1 0x0 ADD DUP2 SWAP1 SSTORE POP DUP1 PUSH1 0x1 PUSH1 0x0 PUSH2 0x100 EXP DUP2 SLOAD DUP2 PUSH20 0xFFFFFFFFFFFFFFFFFFFFFFFFFFFFFFFFFFFFFFFF MUL NOT AND SWAP1 DUP4 PUSH20 0xFFFFFFFFFFFFFFFFFFFFFFFFFFFFFFFFFFFFFFFF AND MUL OR SWAP1 SSTORE POP POP PUSH3 0x2F8 JUMP JUMPDEST PUSH1 0x0 DUP1 PUSH1 0x0 SWAP1 SLOAD SWAP1 PUSH2 0x100 EXP SWAP1 DIV PUSH20 0xFFFFFFFFFFFFFFFFFFFFFFFFFFFFFFFFFFFFFFFF AND SWAP1 POP DUP2 PUSH1 0x0 DUP1 PUSH2 0x100 EXP DUP2 SLOAD DUP2 PUSH20 0xFFFFFFFFFFFFFFFFFFFFFFFFFFFFFFFFFFFFFFFF MUL NOT AND SWAP1 DUP4 PUSH20 0xFFFFFFFFFFFFFFFFFFFFFFFFFFFFFFFFFFFFFFFF AND MUL OR SWAP1 SSTORE POP DUP2 PUSH20 0xFFFFFFFFFFFFFFFFFFFFFFFFFFFFFFFFFFFFFFFF AND DUP2 PUSH20 0xFFFFFFFFFFFFFFFFFFFFFFFFFFFFFFFFFFFFFFFF AND PUSH32 0x8BE0079C531659141344CD1FD0A4F28419497F9722A3DAAFE3B4186F6B6457E0 PUSH1 0x40 MLOAD PUSH1 0x40 MLOAD DUP1 SWAP2 SUB SWAP1 LOG3 POP POP JUMP JUMPDEST PUSH1 0x0 PUSH32 0x9B779B17422D0DF92223018B32B4D1FA46E071723D6817E2486D003BECC55F00 PUSH1 0x0 SHL SWAP1 POP SWAP1 JUMP JUMPDEST PUSH1 0x0 DUP2 SWAP1 POP SWAP2 SWAP1 POP JUMP JUMPDEST PUSH1 0x0 DUP1 REVERT JUMPDEST PUSH1 0x0 PUSH20 0xFFFFFFFFFFFFFFFFFFFFFFFFFFFFFFFFFFFFFFFF DUP3 AND SWAP1 POP SWAP2 SWAP1 POP JUMP JUMPDEST PUSH1 0x0 PUSH3 0x260 DUP3 PUSH3 0x233 JUMP JUMPDEST SWAP1 POP SWAP2 SWAP1 POP JUMP JUMPDEST PUSH3 0x272 DUP2 PUSH3 0x253 JUMP JUMPDEST DUP2 EQ PUSH3 0x27E JUMPI PUSH1 0x0 DUP1 REVERT JUMPDEST POP JUMP JUMPDEST PUSH1 0x0 DUP2 MLOAD SWAP1 POP PUSH3 0x292 DUP2 PUSH3 0x267 JUMP JUMPDEST SWAP3 SWAP2 POP POP JUMP JUMPDEST PUSH1 0x0 PUSH1 0x20 DUP3 DUP5 SUB SLT ISZERO PUSH3 0x2B1 JUMPI PUSH3 0x2B0 PUSH3 0x22E JUMP JUMPDEST JUMPDEST PUSH1 0x0 PUSH3 0x2C1 DUP5 DUP3 DUP6 ADD PUSH3 0x281 JUMP JUMPDEST SWAP2 POP POP SWAP3 SWAP2 POP POP JUMP JUMPDEST PUSH3 0x2D5 DUP2 PUSH3 0x253 JUMP JUMPDEST DUP3 MSTORE POP POP JUMP JUMPDEST PUSH1 0x0 PUSH1 0x20 DUP3 ADD SWAP1 POP PUSH3 0x2F2 PUSH1 0x0 DUP4 ADD DUP5 PUSH3 0x2CA JUMP JUMPDEST SWAP3 SWAP2 POP POP JUMP JUMPDEST PUSH2 0x35AA DUP1 PUSH3 0x308 PUSH1 0x0 CODECOPY PUSH1 0x0 RETURN INVALID PUSH1 0x80 PUSH1 0x40 MSTORE CALLVALUE DUP1 ISZERO PUSH2 0x10 JUMPI PUSH1 0x0 DUP1 REVERT JUMPDEST POP PUSH1 0x4 CALLDATASIZE LT PUSH2 0x10B JUMPI PUSH1 0x0 CALLDATALOAD PUSH1 0xE0 SHR DUP1 PUSH4 0x5E318E07 GT PUSH2 0xA2 JUMPI DUP1 PUSH4 0xBDC84AC3 GT PUSH2 0x71 JUMPI DUP1 PUSH4 0xBDC84AC3 EQ PUSH2 0x271 JUMPI DUP1 PUSH4 0xD1846924 EQ PUSH2 0x28D JUMPI DUP1 PUSH4 0xDA8ACCF9 EQ PUSH2 0x2A9 JUMPI DUP1 PUSH4 0xE9CBD822 EQ PUSH2 0x2C5 JUMPI DUP1 PUSH4 0xF2FDE38B EQ PUSH2 0x2E3 JUMPI PUSH2 0x10B JUMP JUMPDEST DUP1 PUSH4 0x5E318E07 EQ PUSH2 0x1F4 JUMPI DUP1 PUSH4 0x5E3FBDC8 EQ PUSH2 0x210 JUMPI DUP1 PUSH4 0x715018A6 EQ PUSH2 0x249 JUMPI DUP1 PUSH4 0x8DA5CB5B EQ PUSH2 0x253 JUMPI PUSH2 0x10B JUMP JUMPDEST DUP1 PUSH4 0x3689E916 GT PUSH2 0xDE JUMPI DUP1 PUSH4 0x3689E916 EQ PUSH2 0x182 JUMPI DUP1 PUSH4 0x4BCA9A88 EQ PUSH2 0x1A0 JUMPI DUP1 PUSH4 0x537AC9F2 EQ PUSH2 0x1BC JUMPI DUP1 PUSH4 0x578114DC EQ PUSH2 0x1D8 JUMPI PUSH2 0x10B JUMP JUMPDEST DUP1 PUSH4 0x12E8E2C3 EQ PUSH2 0x110 JUMPI DUP1 PUSH4 0x16C3DB58 EQ PUSH2 0x12C JUMPI DUP1 PUSH4 0x1906077D EQ PUSH2 0x148 JUMPI DUP1 PUSH4 0x22DCD13E EQ PUSH2 0x164 JUMPI JUMPDEST PUSH1 0x0 DUP1 REVERT JUMPDEST PUSH2 0x12A PUSH1 0x4 DUP1 CALLDATASIZE SUB DUP2 ADD SWAP1 PUSH2 0x125 SWAP2 SWAP1 PUSH2 0x1FA4 JUMP JUMPDEST PUSH2 0x2FF JUMP JUMPDEST STOP JUMPDEST PUSH2 0x146 PUSH1 0x4 DUP1 CALLDATASIZE SUB DUP2 ADD SWAP1 PUSH2 0x141 SWAP2 SWAP1 PUSH2 0x1FA4 JUMP JUMPDEST PUSH2 0x356 JUMP JUMPDEST STOP JUMPDEST PUSH2 0x162 PUSH1 0x4 DUP1 CALLDATASIZE SUB DUP2 ADD SWAP1 PUSH2 0x15D SWAP2 SWAP1 PUSH2 0x2117 JUMP JUMPDEST PUSH2 0x586 JUMP JUMPDEST STOP JUMPDEST PUSH2 0x16C PUSH2 0x91D JUMP JUMPDEST PUSH1 0x40 MLOAD PUSH2 0x179 SWAP2 SWAP1 PUSH2 0x21C5 JUMP JUMPDEST PUSH1 0x40 MLOAD DUP1 SWAP2 SUB SWAP1 RETURN JUMPDEST PUSH2 0x18A PUSH2 0x923 JUMP JUMPDEST PUSH1 0x40 MLOAD PUSH2 0x197 SWAP2 SWAP1 PUSH2 0x21C5 JUMP JUMPDEST PUSH1 0x40 MLOAD DUP1 SWAP2 SUB SWAP1 RETURN JUMPDEST PUSH2 0x1BA PUSH1 0x4 DUP1 CALLDATASIZE SUB DUP2 ADD SWAP1 PUSH2 0x1B5 SWAP2 SWAP1 PUSH2 0x1FA4 JUMP JUMPDEST PUSH2 0x929 JUMP JUMPDEST STOP JUMPDEST PUSH2 0x1D6 PUSH1 0x4 DUP1 CALLDATASIZE SUB DUP2 ADD SWAP1 PUSH2 0x1D1 SWAP2 SWAP1 PUSH2 0x1FA4 JUMP JUMPDEST PUSH2 0xB9B JUMP JUMPDEST STOP JUMPDEST PUSH2 0x1F2 PUSH1 0x4 DUP1 CALLDATASIZE SUB DUP2 ADD SWAP1 PUSH2 0x1ED SWAP2 SWAP1 PUSH2 0x1FA4 JUMP JUMPDEST PUSH2 0xDE5 JUMP JUMPDEST STOP JUMPDEST PUSH2 0x20E PUSH1 0x4 DUP1 CALLDATASIZE SUB DUP2 ADD SWAP1 PUSH2 0x209 SWAP2 SWAP1 PUSH2 0x1FA4 JUMP JUMPDEST PUSH2 0xFF9 JUMP JUMPDEST STOP JUMPDEST PUSH2 0x22A PUSH1 0x4 DUP1 CALLDATASIZE SUB DUP2 ADD SWAP1 PUSH2 0x225 SWAP2 SWAP1 PUSH2 0x1FA4 JUMP JUMPDEST PUSH2 0x10EA JUMP JUMPDEST PUSH1 0x40 MLOAD PUSH2 0x240 SWAP11 SWAP10 SWAP9 SWAP8 SWAP7 SWAP6 SWAP5 SWAP4 SWAP3 SWAP2 SWAP1 PUSH2 0x2317 JUMP JUMPDEST PUSH1 0x40 MLOAD DUP1 SWAP2 SUB SWAP1 RETURN JUMPDEST PUSH2 0x251 PUSH2 0x1323 JUMP JUMPDEST STOP JUMPDEST PUSH2 0x25B PUSH2 0x1337 JUMP JUMPDEST PUSH1 0x40 MLOAD PUSH2 0x268 SWAP2 SWAP1 PUSH2 0x23C8 JUMP JUMPDEST PUSH1 0x40 MLOAD DUP1 SWAP2 SUB SWAP1 RETURN JUMPDEST PUSH2 0x28B PUSH1 0x4 DUP1 CALLDATASIZE SUB DUP2 ADD SWAP1 PUSH2 0x286 SWAP2 SWAP1 PUSH2 0x23E3 JUMP JUMPDEST PUSH2 0x1360 JUMP JUMPDEST STOP JUMPDEST PUSH2 0x2A7 PUSH1 0x4 DUP1 CALLDATASIZE SUB DUP2 ADD SWAP1 PUSH2 0x2A2 SWAP2 SWAP1 PUSH2 0x1FA4 JUMP JUMPDEST PUSH2 0x17A8 JUMP JUMPDEST STOP JUMPDEST PUSH2 0x2C3 PUSH1 0x4 DUP1 CALLDATASIZE SUB DUP2 ADD SWAP1 PUSH2 0x2BE SWAP2 SWAP1 PUSH2 0x2483 JUMP JUMPDEST PUSH2 0x1AD0 JUMP JUMPDEST STOP JUMPDEST PUSH2 0x2CD PUSH2 0x1C89 JUMP JUMPDEST PUSH1 0x40 MLOAD PUSH2 0x2DA SWAP2 SWAP1 PUSH2 0x2542 JUMP JUMPDEST PUSH1 0x40 MLOAD DUP1 SWAP2 SUB SWAP1 RETURN JUMPDEST PUSH2 0x2FD PUSH1 0x4 DUP1 CALLDATASIZE SUB DUP2 ADD SWAP1 PUSH2 0x2F8 SWAP2 SWAP1 PUSH2 0x2589 JUMP JUMPDEST PUSH2 0x1CAF JUMP JUMPDEST STOP JUMPDEST PUSH2 0x307 PUSH2 0x1D35 JUMP JUMPDEST PUSH2 0x3E8 DUP2 GT ISZERO PUSH2 0x34C JUMPI PUSH1 0x40 MLOAD PUSH32 0x8C379A000000000000000000000000000000000000000000000000000000000 DUP2 MSTORE PUSH1 0x4 ADD PUSH2 0x343 SWAP1 PUSH2 0x2602 JUMP JUMPDEST PUSH1 0x40 MLOAD DUP1 SWAP2 SUB SWAP1 REVERT JUMPDEST DUP1 PUSH1 0x4 DUP2 SWAP1 SSTORE POP POP JUMP JUMPDEST PUSH1 0x0 PUSH1 0x3 PUSH1 0x0 DUP4 DUP2 MSTORE PUSH1 0x20 ADD SWAP1 DUP2 MSTORE PUSH1 0x20 ADD PUSH1 0x0 KECCAK256 SWAP1 POP PUSH1 0x2 PUSH1 0x6 DUP2 GT ISZERO PUSH2 0x381 JUMPI PUSH2 0x380 PUSH2 0x22A0 JUMP JUMPDEST JUMPDEST DUP2 PUSH1 0x6 ADD PUSH1 0x0 SWAP1 SLOAD SWAP1 PUSH2 0x100 EXP SWAP1 DIV PUSH1 0xFF AND PUSH1 0x6 DUP2 GT ISZERO PUSH2 0x3A5 JUMPI PUSH2 0x3A4 PUSH2 0x22A0 JUMP JUMPDEST JUMPDEST EQ DUP1 PUSH2 0x3E6 JUMPI POP PUSH1 0x1 PUSH1 0x6 DUP2 GT ISZERO PUSH2 0x3C0 JUMPI PUSH2 0x3BF PUSH2 0x22A0 JUMP JUMPDEST JUMPDEST DUP2 PUSH1 0x6 ADD PUSH1 0x0 SWAP1 SLOAD SWAP1 PUSH2 0x100 EXP SWAP1 DIV PUSH1 0xFF AND PUSH1 0x6 DUP2 GT ISZERO PUSH2 0x3E4 JUMPI PUSH2 0x3E3 PUSH2 0x22A0 JUMP JUMPDEST JUMPDEST EQ JUMPDEST PUSH2 0x425 JUMPI PUSH1 0x40 MLOAD PUSH32 0x8C379A000000000000000000000000000000000000000000000000000000000 DUP2 MSTORE PUSH1 0x4 ADD PUSH2 0x41C SWAP1 PUSH2 0x266E JUMP JUMPDEST PUSH1 0x40 MLOAD DUP1 SWAP2 SUB SWAP1 REVERT JUMPDEST DUP1 PUSH1 0x1 ADD PUSH1 0x0 SWAP1 SLOAD SWAP1 PUSH2 0x100 EXP SWAP1 DIV PUSH20 0xFFFFFFFFFFFFFFFFFFFFFFFFFFFFFFFFFFFFFFFF AND PUSH20 0xFFFFFFFFFFFFFFFFFFFFFFFFFFFFFFFFFFFFFFFF AND CALLER PUSH20 0xFFFFFFFFFFFFFFFFFFFFFFFFFFFFFFFFFFFFFFFF AND EQ DUP1 PUSH2 0x4D2 JUMPI POP DUP1 PUSH1 0x2 ADD PUSH1 0x0 SWAP1 SLOAD SWAP1 PUSH2 0x100 EXP SWAP1 DIV PUSH20 0xFFFFFFFFFFFFFFFFFFFFFFFFFFFFFFFFFFFFFFFF AND PUSH20 0xFFFFFFFFFFFFFFFFFFFFFFFFFFFFFFFFFFFFFFFF AND CALLER PUSH20 0xFFFFFFFFFFFFFFFFFFFFFFFFFFFFFFFFFFFFFFFF AND EQ JUMPDEST PUSH2 0x511 JUMPI PUSH1 0x40 MLOAD PUSH32 0x8C379A000000000000000000000000000000000000000000000000000000000 DUP2 MSTORE PUSH1 0x4 ADD PUSH2 0x508 SWAP1 PUSH2 0x26DA JUMP JUMPDEST PUSH1 0x40 MLOAD DUP1 SWAP2 SUB SWAP1 REVERT JUMPDEST PUSH1 0x4 DUP2 PUSH1 0x6 ADD PUSH1 0x0 PUSH2 0x100 EXP DUP2 SLOAD DUP2 PUSH1 0xFF MUL NOT AND SWAP1 DUP4 PUSH1 0x6 DUP2 GT ISZERO PUSH2 0x539 JUMPI PUSH2 0x538 PUSH2 0x22A0 JUMP JUMPDEST JUMPDEST MUL OR SWAP1 SSTORE POP CALLER PUSH20 0xFFFFFFFFFFFFFFFFFFFFFFFFFFFFFFFFFFFFFFFF AND DUP3 PUSH32 0x4692503F78893DFEFD71EDDA8FFB8C490C3A203607B5CBAA7E7585A5B3EFE8D0 PUSH1 0x40 MLOAD PUSH1 0x40 MLOAD DUP1 SWAP2 SUB SWAP1 LOG3 POP POP JUMP JUMPDEST PUSH2 0x58E PUSH2 0x1DBC JUMP JUMPDEST PUSH1 0x0 DUP3 GT PUSH2 0x5D1 JUMPI PUSH1 0x40 MLOAD PUSH32 0x8C379A000000000000000000000000000000000000000000000000000000000 DUP2 MSTORE PUSH1 0x4 ADD PUSH2 0x5C8 SWAP1 PUSH2 0x2746 JUMP JUMPDEST PUSH1 0x40 MLOAD DUP1 SWAP2 SUB SWAP1 REVERT JUMPDEST PUSH1 0x1 PUSH1 0x0 SWAP1 SLOAD SWAP1 PUSH2 0x100 EXP SWAP1 DIV PUSH20 0xFFFFFFFFFFFFFFFFFFFFFFFFFFFFFFFFFFFFFFFF AND PUSH20 0xFFFFFFFFFFFFFFFFFFFFFFFFFFFFFFFFFFFFFFFF AND PUSH4 0x23B872DD CALLER ADDRESS DUP6 PUSH1 0x40 MLOAD DUP5 PUSH4 0xFFFFFFFF AND PUSH1 0xE0 SHL DUP2 MSTORE PUSH1 0x4 ADD PUSH2 0x630 SWAP4 SWAP3 SWAP2 SWAP1 PUSH2 0x2766 JUMP JUMPDEST PUSH1 0x20 PUSH1 0x40 MLOAD DUP1 DUP4 SUB DUP2 PUSH1 0x0 DUP8 GAS CALL ISZERO DUP1 ISZERO PUSH2 0x64F JUMPI RETURNDATASIZE PUSH1 0x0 DUP1 RETURNDATACOPY RETURNDATASIZE PUSH1 0x0 REVERT JUMPDEST POP POP POP POP PUSH1 0x40 MLOAD RETURNDATASIZE PUSH1 0x1F NOT PUSH1 0x1F DUP3 ADD AND DUP3 ADD DUP1 PUSH1 0x40 MSTORE POP DUP2 ADD SWAP1 PUSH2 0x673 SWAP2 SWAP1 PUSH2 0x27D5 JUMP JUMPDEST PUSH2 0x6B2 JUMPI PUSH1 0x40 MLOAD PUSH32 0x8C379A000000000000000000000000000000000000000000000000000000000 DUP2 MSTORE PUSH1 0x4 ADD PUSH2 0x6A9 SWAP1 PUSH2 0x284E JUMP JUMPDEST PUSH1 0x40 MLOAD DUP1 SWAP2 SUB SWAP1 REVERT JUMPDEST PUSH1 0x2 PUSH1 0x0 DUP2 SLOAD DUP1 SWAP3 SWAP2 SWAP1 PUSH2 0x6C5 SWAP1 PUSH2 0x289D JUMP JUMPDEST SWAP2 SWAP1 POP SSTORE POP PUSH1 0x40 MLOAD DUP1 PUSH2 0x140 ADD PUSH1 0x40 MSTORE DUP1 PUSH1 0x2 SLOAD DUP2 MSTORE PUSH1 0x20 ADD CALLER PUSH20 0xFFFFFFFFFFFFFFFFFFFFFFFFFFFFFFFFFFFFFFFF AND DUP2 MSTORE PUSH1 0x20 ADD PUSH1 0x0 PUSH20 0xFFFFFFFFFFFFFFFFFFFFFFFFFFFFFFFFFFFFFFFF AND DUP2 MSTORE PUSH1 0x20 ADD DUP4 DUP2 MSTORE PUSH1 0x20 ADD DUP6 DUP2 MSTORE PUSH1 0x20 ADD DUP5 DUP2 MSTORE PUSH1 0x20 ADD PUSH1 0x0 PUSH1 0x6 DUP2 GT ISZERO PUSH2 0x73D JUMPI PUSH2 0x73C PUSH2 0x22A0 JUMP JUMPDEST JUMPDEST DUP2 MSTORE PUSH1 0x20 ADD PUSH1 0x40 MLOAD DUP1 PUSH1 0x20 ADD PUSH1 0x40 MSTORE DUP1 PUSH1 0x0 DUP2 MSTORE POP DUP2 MSTORE PUSH1 0x20 ADD TIMESTAMP DUP2 MSTORE PUSH1 0x20 ADD PUSH3 0x15180 DUP4 PUSH2 0x76C SWAP2 SWAP1 PUSH2 0x28E5 JUMP JUMPDEST TIMESTAMP PUSH2 0x777 SWAP2 SWAP1 PUSH2 0x2927 JUMP JUMPDEST DUP2 MSTORE POP PUSH1 0x3 PUSH1 0x0 PUSH1 0x2 SLOAD DUP2 MSTORE PUSH1 0x20 ADD SWAP1 DUP2 MSTORE PUSH1 0x20 ADD PUSH1 0x0 KECCAK256 PUSH1 0x0 DUP3 ADD MLOAD DUP2 PUSH1 0x0 ADD SSTORE PUSH1 0x20 DUP3 ADD MLOAD DUP2 PUSH1 0x1 ADD PUSH1 0x0 PUSH2 0x100 EXP DUP2 SLOAD DUP2 PUSH20 0xFFFFFFFFFFFFFFFFFFFFFFFFFFFFFFFFFFFFFFFF MUL NOT AND SWAP1 DUP4 PUSH20 0xFFFFFFFFFFFFFFFFFFFFFFFFFFFFFFFFFFFFFFFF AND MUL OR SWAP1 SSTORE POP PUSH1 0x40 DUP3 ADD MLOAD DUP2 PUSH1 0x2 ADD PUSH1 0x0 PUSH2 0x100 EXP DUP2 SLOAD DUP2 PUSH20 0xFFFFFFFFFFFFFFFFFFFFFFFFFFFFFFFFFFFFFFFF MUL NOT AND SWAP1 DUP4 PUSH20 0xFFFFFFFFFFFFFFFFFFFFFFFFFFFFFFFFFFFFFFFF AND MUL OR SWAP1 SSTORE POP PUSH1 0x60 DUP3 ADD MLOAD DUP2 PUSH1 0x3 ADD SSTORE PUSH1 0x80 DUP3 ADD MLOAD DUP2 PUSH1 0x4 ADD SWAP1 DUP2 PUSH2 0x846 SWAP2 SWAP1 PUSH2 0x2B5D JUMP JUMPDEST POP PUSH1 0xA0 DUP3 ADD MLOAD DUP2 PUSH1 0x5 ADD SWAP1 DUP2 PUSH2 0x85C SWAP2 SWAP1 PUSH2 0x2B5D JUMP JUMPDEST POP PUSH1 0xC0 DUP3 ADD MLOAD DUP2 PUSH1 0x6 ADD PUSH1 0x0 PUSH2 0x100 EXP DUP2 SLOAD DUP2 PUSH1 0xFF MUL NOT AND SWAP1 DUP4 PUSH1 0x6 DUP2 GT ISZERO PUSH2 0x888 JUMPI PUSH2 0x887 PUSH2 0x22A0 JUMP JUMPDEST JUMPDEST MUL OR SWAP1 SSTORE POP PUSH1 0xE0 DUP3 ADD MLOAD DUP2 PUSH1 0x7 ADD SWAP1 DUP2 PUSH2 0x8A2 SWAP2 SWAP1 PUSH2 0x2B5D JUMP JUMPDEST POP PUSH2 0x100 DUP3 ADD MLOAD DUP2 PUSH1 0x8 ADD SSTORE PUSH2 0x120 DUP3 ADD MLOAD DUP2 PUSH1 0x9 ADD SSTORE SWAP1 POP POP CALLER PUSH20 0xFFFFFFFFFFFFFFFFFFFFFFFFFFFFFFFFFFFFFFFF AND PUSH1 0x2 SLOAD PUSH32 0xD331DCF16EF7B1384947638C2E2B40BBDE08AAC9316B0FF35A593A3312FD73F7 DUP5 DUP8 PUSH1 0x40 MLOAD PUSH2 0x907 SWAP3 SWAP2 SWAP1 PUSH2 0x2C2F JUMP JUMPDEST PUSH1 0x40 MLOAD DUP1 SWAP2 SUB SWAP1 LOG3 PUSH2 0x917 PUSH2 0x1DDF JUMP JUMPDEST POP POP POP POP JUMP JUMPDEST PUSH1 0x4 SLOAD DUP2 JUMP JUMPDEST PUSH1 0x2 SLOAD DUP2 JUMP JUMPDEST PUSH2 0x931 PUSH2 0x1DBC JUMP JUMPDEST PUSH1 0x0 PUSH1 0x3 PUSH1 0x0 DUP4 DUP2 MSTORE PUSH1 0x20 ADD SWAP1 DUP2 MSTORE PUSH1 0x20 ADD PUSH1 0x0 KECCAK256 SWAP1 POP PUSH1 0x0 PUSH1 0x6 DUP2 GT ISZERO PUSH2 0x95C JUMPI PUSH2 0x95B PUSH2 0x22A0 JUMP JUMPDEST JUMPDEST DUP2 PUSH1 0x6 ADD PUSH1 0x0 SWAP1 SLOAD SWAP1 PUSH2 0x100 EXP SWAP1 DIV PUSH1 0xFF AND PUSH1 0x6 DUP2 GT ISZERO PUSH2 0x980 JUMPI PUSH2 0x97F PUSH2 0x22A0 JUMP JUMPDEST JUMPDEST EQ PUSH2 0x9C0 JUMPI PUSH1 0x40 MLOAD PUSH32 0x8C379A000000000000000000000000000000000000000000000000000000000 DUP2 MSTORE PUSH1 0x4 ADD PUSH2 0x9B7 SWAP1 PUSH2 0x2CAB JUMP JUMPDEST PUSH1 0x40 MLOAD DUP1 SWAP2 SUB SWAP1 REVERT JUMPDEST CALLER PUSH20 0xFFFFFFFFFFFFFFFFFFFFFFFFFFFFFFFFFFFFFFFF AND DUP2 PUSH1 0x1 ADD PUSH1 0x0 SWAP1 SLOAD SWAP1 PUSH2 0x100 EXP SWAP1 DIV PUSH20 0xFFFFFFFFFFFFFFFFFFFFFFFFFFFFFFFFFFFFFFFF AND PUSH20 0xFFFFFFFFFFFFFFFFFFFFFFFFFFFFFFFFFFFFFFFF AND EQ PUSH2 0xA52 JUMPI PUSH1 0x40 MLOAD PUSH32 0x8C379A000000000000000000000000000000000000000000000000000000000 DUP2 MSTORE PUSH1 0x4 ADD PUSH2 0xA49 SWAP1 PUSH2 0x2D17 JUMP JUMPDEST PUSH1 0x40 MLOAD DUP1 SWAP2 SUB SWAP1 REVERT JUMPDEST PUSH1 0x5 DUP2 PUSH1 0x6 ADD PUSH1 0x0 PUSH2 0x100 EXP DUP2 SLOAD DUP2 PUSH1 0xFF MUL NOT AND SWAP1 DUP4 PUSH1 0x6 DUP2 GT ISZERO PUSH2 0xA7A JUMPI PUSH2 0xA79 PUSH2 0x22A0 JUMP JUMPDEST JUMPDEST MUL OR SWAP1 SSTORE POP PUSH1 0x1 PUSH1 0x0 SWAP1 SLOAD SWAP1 PUSH2 0x100 EXP SWAP1 DIV PUSH20 0xFFFFFFFFFFFFFFFFFFFFFFFFFFFFFFFFFFFFFFFF AND PUSH20 0xFFFFFFFFFFFFFFFFFFFFFFFFFFFFFFFFFFFFFFFF AND PUSH4 0xA9059CBB CALLER DUP4 PUSH1 0x3 ADD SLOAD PUSH1 0x40 MLOAD DUP4 PUSH4 0xFFFFFFFF AND PUSH1 0xE0 SHL DUP2 MSTORE PUSH1 0x4 ADD PUSH2 0xAE0 SWAP3 SWAP2 SWAP1 PUSH2 0x2D37 JUMP JUMPDEST PUSH1 0x20 PUSH1 0x40 MLOAD DUP1 DUP4 SUB DUP2 PUSH1 0x0 DUP8 GAS CALL ISZERO DUP1 ISZERO PUSH2 0xAFF JUMPI RETURNDATASIZE PUSH1 0x0 DUP1 RETURNDATACOPY RETURNDATASIZE PUSH1 0x0 REVERT JUMPDEST POP POP POP POP PUSH1 0x40 MLOAD RETURNDATASIZE PUSH1 0x1F NOT PUSH1 0x1F DUP3 ADD AND DUP3 ADD DUP1 PUSH1 0x40 MSTORE POP DUP2 ADD SWAP1 PUSH2 0xB23 SWAP2 SWAP1 PUSH2 0x27D5 JUMP JUMPDEST PUSH2 0xB62 JUMPI PUSH1 0x40 MLOAD PUSH32 0x8C379A000000000000000000000000000000000000000000000000000000000 DUP2 MSTORE PUSH1 0x4 ADD PUSH2 0xB59 SWAP1 PUSH2 0x2DAC JUMP JUMPDEST PUSH1 0x40 MLOAD DUP1 SWAP2 SUB SWAP1 REVERT JUMPDEST DUP2 PUSH32 0xED32A7868DD1701D125217F8867209CBB1C23F3CD6D044309A73D56B6C647024 PUSH1 0x40 MLOAD PUSH1 0x40 MLOAD DUP1 SWAP2 SUB SWAP1 LOG2 POP PUSH2 0xB98 PUSH2 0x1DDF JUMP JUMPDEST POP JUMP JUMPDEST PUSH2 0xBA3 PUSH2 0x1DBC JUMP JUMPDEST PUSH1 0x0 PUSH1 0x3 PUSH1 0x0 DUP4 DUP2 MSTORE PUSH1 0x20 ADD SWAP1 DUP2 MSTORE PUSH1 0x20 ADD PUSH1 0x0 KECCAK256 SWAP1 POP PUSH1 0x0 PUSH1 0x6 DUP2 GT ISZERO PUSH2 0xBCE JUMPI PUSH2 0xBCD PUSH2 0x22A0 JUMP JUMPDEST JUMPDEST DUP2 PUSH1 0x6 ADD PUSH1 0x0 SWAP1 SLOAD SWAP1 PUSH2 0x100 EXP SWAP1 DIV PUSH1 0xFF AND PUSH1 0x6 DUP2 GT ISZERO PUSH2 0xBF2 JUMPI PUSH2 0xBF1 PUSH2 0x22A0 JUMP JUMPDEST JUMPDEST EQ PUSH2 0xC32 JUMPI PUSH1 0x40 MLOAD PUSH32 0x8C379A000000000000000000000000000000000000000000000000000000000 DUP2 MSTORE PUSH1 0x4 ADD PUSH2 0xC29 SWAP1 PUSH2 0x2E18 JUMP JUMPDEST PUSH1 0x40 MLOAD DUP1 SWAP2 SUB SWAP1 REVERT JUMPDEST DUP1 PUSH1 0x9 ADD SLOAD TIMESTAMP GT PUSH2 0xC78 JUMPI PUSH1 0x40 MLOAD PUSH32 0x8C379A000000000000000000000000000000000000000000000000000000000 DUP2 MSTORE PUSH1 0x4 ADD PUSH2 0xC6F SWAP1 PUSH2 0x2E84 JUMP JUMPDEST PUSH1 0x40 MLOAD DUP1 SWAP2 SUB SWAP1 REVERT JUMPDEST PUSH1 0x6 DUP2 PUSH1 0x6 ADD PUSH1 0x0 PUSH2 0x100 EXP DUP2 SLOAD DUP2 PUSH1 0xFF MUL NOT AND SWAP1 DUP4 PUSH1 0x6 DUP2 GT ISZERO PUSH2 0xCA0 JUMPI PUSH2 0xC9F PUSH2 0x22A0 JUMP JUMPDEST JUMPDEST MUL OR SWAP1 SSTORE POP PUSH1 0x1 PUSH1 0x0 SWAP1 SLOAD SWAP1 PUSH2 0x100 EXP SWAP1 DIV PUSH20 0xFFFFFFFFFFFFFFFFFFFFFFFFFFFFFFFFFFFFFFFF AND PUSH20 0xFFFFFFFFFFFFFFFFFFFFFFFFFFFFFFFFFFFFFFFF AND PUSH4 0xA9059CBB DUP3 PUSH1 0x1 ADD PUSH1 0x0 SWAP1 SLOAD SWAP1 PUSH2 0x100 EXP SWAP1 DIV PUSH20 0xFFFFFFFFFFFFFFFFFFFFFFFFFFFFFFFFFFFFFFFF AND DUP4 PUSH1 0x3 ADD SLOAD PUSH1 0x40 MLOAD DUP4 PUSH4 0xFFFFFFFF AND PUSH1 0xE0 SHL DUP2 MSTORE PUSH1 0x4 ADD PUSH2 0xD2A SWAP3 SWAP2 SWAP1 PUSH2 0x2D37 JUMP JUMPDEST PUSH1 0x20 PUSH1 0x40 MLOAD DUP1 DUP4 SUB DUP2 PUSH1 0x0 DUP8 GAS CALL ISZERO DUP1 ISZERO PUSH2 0xD49 JUMPI RETURNDATASIZE PUSH1 0x0 DUP1 RETURNDATACOPY RETURNDATASIZE PUSH1 0x0 REVERT JUMPDEST POP POP POP POP PUSH1 0x40 MLOAD RETURNDATASIZE PUSH1 0x1F NOT PUSH1 0x1F DUP3 ADD AND DUP3 ADD DUP1 PUSH1 0x40 MSTORE POP DUP2 ADD SWAP1 PUSH2 0xD6D SWAP2 SWAP1 PUSH2 0x27D5 JUMP JUMPDEST PUSH2 0xDAC JUMPI PUSH1 0x40 MLOAD PUSH32 0x8C379A000000000000000000000000000000000000000000000000000000000 DUP2 MSTORE PUSH1 0x4 ADD PUSH2 0xDA3 SWAP1 PUSH2 0x2DAC JUMP JUMPDEST PUSH1 0x40 MLOAD DUP1 SWAP2 SUB SWAP1 REVERT JUMPDEST DUP2 PUSH32 0x87A6816E66CD54634297F446A863E443A1B345C5F6320C892D4DE4B7B07D14C4 PUSH1 0x40 MLOAD PUSH1 0x40 MLOAD DUP1 SWAP2 SUB SWAP1 LOG2 POP PUSH2 0xDE2 PUSH2 0x1DDF JUMP JUMPDEST POP JUMP JUMPDEST PUSH1 0x0 PUSH1 0x3 PUSH1 0x0 DUP4 DUP2 MSTORE PUSH1 0x20 ADD SWAP1 DUP2 MSTORE PUSH1 0x20 ADD PUSH1 0x0 KECCAK256 SWAP1 POP PUSH1 0x0 PUSH1 0x6 DUP2 GT ISZERO PUSH2 0xE10 JUMPI PUSH2 0xE0F PUSH2 0x22A0 JUMP JUMPDEST JUMPDEST DUP2 PUSH1 0x6 ADD PUSH1 0x0 SWAP1 SLOAD SWAP1 PUSH2 0x100 EXP SWAP1 DIV PUSH1 0xFF AND PUSH1 0x6 DUP2 GT ISZERO PUSH2 0xE34 JUMPI PUSH2 0xE33 PUSH2 0x22A0 JUMP JUMPDEST JUMPDEST EQ PUSH2 0xE74 JUMPI PUSH1 0x40 MLOAD PUSH32 0x8C379A000000000000000000000000000000000000000000000000000000000 DUP2 MSTORE PUSH1 0x4 ADD PUSH2 0xE6B SWAP1 PUSH2 0x2EF0 JUMP JUMPDEST PUSH1 0x40 MLOAD DUP1 SWAP2 SUB SWAP1 REVERT JUMPDEST CALLER PUSH20 0xFFFFFFFFFFFFFFFFFFFFFFFFFFFFFFFFFFFFFFFF AND DUP2 PUSH1 0x1 ADD PUSH1 0x0 SWAP1 SLOAD SWAP1 PUSH2 0x100 EXP SWAP1 DIV PUSH20 0xFFFFFFFFFFFFFFFFFFFFFFFFFFFFFFFFFFFFFFFF AND PUSH20 0xFFFFFFFFFFFFFFFFFFFFFFFFFFFFFFFFFFFFFFFF AND SUB PUSH2 0xF06 JUMPI PUSH1 0x40 MLOAD PUSH32 0x8C379A000000000000000000000000000000000000000000000000000000000 DUP2 MSTORE PUSH1 0x4 ADD PUSH2 0xEFD SWAP1 PUSH2 0x2F5C JUMP JUMPDEST PUSH1 0x40 MLOAD DUP1 SWAP2 SUB SWAP1 REVERT JUMPDEST CALLER DUP2 PUSH1 0x2 ADD PUSH1 0x0 PUSH2 0x100 EXP DUP2 SLOAD DUP2 PUSH20 0xFFFFFFFFFFFFFFFFFFFFFFFFFFFFFFFFFFFFFFFF MUL NOT AND SWAP1 DUP4 PUSH20 0xFFFFFFFFFFFFFFFFFFFFFFFFFFFFFFFFFFFFFFFF AND MUL OR SWAP1 SSTORE POP PUSH1 0x1 DUP2 PUSH1 0x6 ADD PUSH1 0x0 PUSH2 0x100 EXP DUP2 SLOAD DUP2 PUSH1 0xFF MUL NOT AND SWAP1 DUP4 PUSH1 0x6 DUP2 GT ISZERO PUSH2 0xF71 JUMPI PUSH2 0xF70 PUSH2 0x22A0 JUMP JUMPDEST JUMPDEST MUL OR SWAP1 SSTORE POP DUP1 PUSH1 0x1 ADD PUSH1 0x0 SWAP1 SLOAD SWAP1 PUSH2 0x100 EXP SWAP1 DIV PUSH20 0xFFFFFFFFFFFFFFFFFFFFFFFFFFFFFFFFFFFFFFFF AND PUSH20 0xFFFFFFFFFFFFFFFFFFFFFFFFFFFFFFFFFFFFFFFF AND CALLER PUSH20 0xFFFFFFFFFFFFFFFFFFFFFFFFFFFFFFFFFFFFFFFF AND DUP4 PUSH32 0xB6C0FF4D2B4C4A840AF5F24120872E97F1C6A2F2293092CA7301D3E05DF34FCC PUSH1 0x40 MLOAD PUSH1 0x40 MLOAD DUP1 SWAP2 SUB SWAP1 LOG4 POP POP JUMP JUMPDEST PUSH2 0x1001 PUSH2 0x1D35 JUMP JUMPDEST PUSH1 0x1 PUSH1 0x0 SWAP1 SLOAD SWAP1 PUSH2 0x100 EXP SWAP1 DIV PUSH20 0xFFFFFFFFFFFFFFFFFFFFFFFFFFFFFFFFFFFFFFFF AND PUSH20 0xFFFFFFFFFFFFFFFFFFFFFFFFFFFFFFFFFFFFFFFF AND PUSH4 0xA9059CBB PUSH2 0x1047 PUSH2 0x1337 JUMP JUMPDEST DUP4 PUSH1 0x40 MLOAD DUP4 PUSH4 0xFFFFFFFF AND PUSH1 0xE0 SHL DUP2 MSTORE PUSH1 0x4 ADD PUSH2 0x1065 SWAP3 SWAP2 SWAP1 PUSH2 0x2D37 JUMP JUMPDEST PUSH1 0x20 PUSH1 0x40 MLOAD DUP1 DUP4 SUB DUP2 PUSH1 0x0 DUP8 GAS CALL ISZERO DUP1 ISZERO PUSH2 0x1084 JUMPI RETURNDATASIZE PUSH1 0x0 DUP1 RETURNDATACOPY RETURNDATASIZE PUSH1 0x0 REVERT JUMPDEST POP POP POP POP PUSH1 0x40 MLOAD RETURNDATASIZE PUSH1 0x1F NOT PUSH1 0x1F DUP3 ADD AND DUP3 ADD DUP1 PUSH1 0x40 MSTORE POP DUP2 ADD SWAP1 PUSH2 0x10A8 SWAP2 SWAP1 PUSH2 0x27D5 JUMP JUMPDEST PUSH2 0x10E7 JUMPI PUSH1 0x40 MLOAD PUSH32 0x8C379A000000000000000000000000000000000000000000000000000000000 DUP2 MSTORE PUSH1 0x4 ADD PUSH2 0x10DE SWAP1 PUSH2 0x2FC8 JUMP JUMPDEST PUSH1 0x40 MLOAD DUP1 SWAP2 SUB SWAP1 REVERT JUMPDEST POP JUMP JUMPDEST PUSH1 0x3 PUSH1 0x20 MSTORE DUP1 PUSH1 0x0 MSTORE PUSH1 0x40 PUSH1 0x0 KECCAK256 PUSH1 0x0 SWAP2 POP SWAP1 POP DUP1 PUSH1 0x0 ADD SLOAD SWAP1 DUP1 PUSH1 0x1 ADD PUSH1 0x0 SWAP1 SLOAD SWAP1 PUSH2 0x100 EXP SWAP1 DIV PUSH20 0xFFFFFFFFFFFFFFFFFFFFFFFFFFFFFFFFFFFFFFFF AND SWAP1 DUP1 PUSH1 0x2 ADD PUSH1 0x0 SWAP1 SLOAD SWAP1 PUSH2 0x100 EXP SWAP1 DIV PUSH20 0xFFFFFFFFFFFFFFFFFFFFFFFFFFFFFFFFFFFFFFFF AND SWAP1 DUP1 PUSH1 0x3 ADD SLOAD SWAP1 DUP1 PUSH1 0x4 ADD DUP1 SLOAD PUSH2 0x1165 SWAP1 PUSH2 0x298A JUMP JUMPDEST DUP1 PUSH1 0x1F ADD PUSH1 0x20 DUP1 SWAP2 DIV MUL PUSH1 0x20 ADD PUSH1 0x40 MLOAD SWAP1 DUP2 ADD PUSH1 0x40 MSTORE DUP1 SWAP3 SWAP2 SWAP1 DUP2 DUP2 MSTORE PUSH1 0x20 ADD DUP3 DUP1 SLOAD PUSH2 0x1191 SWAP1 PUSH2 0x298A JUMP JUMPDEST DUP1 ISZERO PUSH2 0x11DE JUMPI DUP1 PUSH1 0x1F LT PUSH2 0x11B3 JUMPI PUSH2 0x100 DUP1 DUP4 SLOAD DIV MUL DUP4 MSTORE SWAP2 PUSH1 0x20 ADD SWAP2 PUSH2 0x11DE JUMP JUMPDEST DUP3 ADD SWAP2 SWAP1 PUSH1 0x0 MSTORE PUSH1 0x20 PUSH1 0x0 KECCAK256 SWAP1 JUMPDEST DUP2 SLOAD DUP2 MSTORE SWAP1 PUSH1 0x1 ADD SWAP1 PUSH1 0x20 ADD DUP1 DUP4 GT PUSH2 0x11C1 JUMPI DUP3 SWAP1 SUB PUSH1 0x1F AND DUP3 ADD SWAP2 JUMPDEST POP POP POP POP POP SWAP1 DUP1 PUSH1 0x5 ADD DUP1 SLOAD PUSH2 0x11F3 SWAP1 PUSH2 0x298A JUMP JUMPDEST DUP1 PUSH1 0x1F ADD PUSH1 0x20 DUP1 SWAP2 DIV MUL PUSH1 0x20 ADD PUSH1 0x40 MLOAD SWAP1 DUP2 ADD PUSH1 0x40 MSTORE DUP1 SWAP3 SWAP2 SWAP1 DUP2 DUP2 MSTORE PUSH1 0x20 ADD DUP3 DUP1 SLOAD PUSH2 0x121F SWAP1 PUSH2 0x298A JUMP JUMPDEST DUP1 ISZERO PUSH2 0x126C JUMPI DUP1 PUSH1 0x1F LT PUSH2 0x1241 JUMPI PUSH2 0x100 DUP1 DUP4 SLOAD DIV MUL DUP4 MSTORE SWAP2 PUSH1 0x20 ADD SWAP2 PUSH2 0x126C JUMP JUMPDEST DUP3 ADD SWAP2 SWAP1 PUSH1 0x0 MSTORE PUSH1 0x20 PUSH1 0x0 KECCAK256 SWAP1 JUMPDEST DUP2 SLOAD DUP2 MSTORE SWAP1 PUSH1 0x1 ADD SWAP1 PUSH1 0x20 ADD DUP1 DUP4 GT PUSH2 0x124F JUMPI DUP3 SWAP1 SUB PUSH1 0x1F AND DUP3 ADD SWAP2 JUMPDEST POP POP POP POP POP SWAP1 DUP1 PUSH1 0x6 ADD PUSH1 0x0 SWAP1 SLOAD SWAP1 PUSH2 0x100 EXP SWAP1 DIV PUSH1 0xFF AND SWAP1 DUP1 PUSH1 0x7 ADD DUP1 SLOAD PUSH2 0x1294 SWAP1 PUSH2 0x298A JUMP JUMPDEST DUP1 PUSH1 0x1F ADD PUSH1 0x20 DUP1 SWAP2 DIV MUL PUSH1 0x20 ADD PUSH1 0x40 MLOAD SWAP1 DUP2 ADD PUSH1 0x40 MSTORE DUP1 SWAP3 SWAP2 SWAP1 DUP2 DUP2 MSTORE PUSH1 0x20 ADD DUP3 DUP1 SLOAD PUSH2 0x12C0 SWAP1 PUSH2 0x298A JUMP JUMPDEST DUP1 ISZERO PUSH2 0x130D JUMPI DUP1 PUSH1 0x1F LT PUSH2 0x12E2 JUMPI PUSH2 0x100 DUP1 DUP4 SLOAD DIV MUL DUP4 MSTORE SWAP2 PUSH1 0x20 ADD SWAP2 PUSH2 0x130D JUMP JUMPDEST DUP3 ADD SWAP2 SWAP1 PUSH1 0x0 MSTORE PUSH1 0x20 PUSH1 0x0 KECCAK256 SWAP1 JUMPDEST DUP2 SLOAD DUP2 MSTORE SWAP1 PUSH1 0x1 ADD SWAP1 PUSH1 0x20 ADD DUP1 DUP4 GT PUSH2 0x12F0 JUMPI DUP3 SWAP1 SUB PUSH1 0x1F AND DUP3 ADD SWAP2 JUMPDEST POP POP POP POP POP SWAP1 DUP1 PUSH1 0x8 ADD SLOAD SWAP1 DUP1 PUSH1 0x9 ADD SLOAD SWAP1 POP DUP11 JUMP JUMPDEST PUSH2 0x132B PUSH2 0x1D35 JUMP JUMPDEST PUSH2 0x1335 PUSH1 0x0 PUSH2 0x1DFA JUMP JUMPDEST JUMP JUMPDEST PUSH1 0x0 DUP1 PUSH1 0x0 SWAP1 SLOAD SWAP1 PUSH2 0x100 EXP SWAP1 DIV PUSH20 0xFFFFFFFFFFFFFFFFFFFFFFFFFFFFFFFFFFFFFFFF AND SWAP1 POP SWAP1 JUMP JUMPDEST PUSH2 0x1368 PUSH2 0x1D35 JUMP JUMPDEST PUSH2 0x1370 PUSH2 0x1DBC JUMP JUMPDEST PUSH1 0x0 PUSH1 0x3 PUSH1 0x0 DUP5 DUP2 MSTORE PUSH1 0x20 ADD SWAP1 DUP2 MSTORE PUSH1 0x20 ADD PUSH1 0x0 KECCAK256 SWAP1 POP PUSH1 0x4 PUSH1 0x6 DUP2 GT ISZERO PUSH2 0x139B JUMPI PUSH2 0x139A PUSH2 0x22A0 JUMP JUMPDEST JUMPDEST DUP2 PUSH1 0x6 ADD PUSH1 0x0 SWAP1 SLOAD SWAP1 PUSH2 0x100 EXP SWAP1 DIV PUSH1 0xFF AND PUSH1 0x6 DUP2 GT ISZERO PUSH2 0x13BF JUMPI PUSH2 0x13BE PUSH2 0x22A0 JUMP JUMPDEST JUMPDEST EQ PUSH2 0x13FF JUMPI PUSH1 0x40 MLOAD PUSH32 0x8C379A000000000000000000000000000000000000000000000000000000000 DUP2 MSTORE PUSH1 0x4 ADD PUSH2 0x13F6 SWAP1 PUSH2 0x3034 JUMP JUMPDEST PUSH1 0x40 MLOAD DUP1 SWAP2 SUB SWAP1 REVERT JUMPDEST PUSH1 0x64 DUP3 GT ISZERO PUSH2 0x1443 JUMPI PUSH1 0x40 MLOAD PUSH32 0x8C379A000000000000000000000000000000000000000000000000000000000 DUP2 MSTORE PUSH1 0x4 ADD PUSH2 0x143A SWAP1 PUSH2 0x30A0 JUMP JUMPDEST PUSH1 0x40 MLOAD DUP1 SWAP2 SUB SWAP1 REVERT JUMPDEST PUSH1 0x0 PUSH1 0x64 DUP4 DUP4 PUSH1 0x3 ADD SLOAD PUSH2 0x1457 SWAP2 SWAP1 PUSH2 0x28E5 JUMP JUMPDEST PUSH2 0x1461 SWAP2 SWAP1 PUSH2 0x30EF JUMP JUMPDEST SWAP1 POP PUSH1 0x0 DUP2 DUP4 PUSH1 0x3 ADD SLOAD PUSH2 0x1475 SWAP2 SWAP1 PUSH2 0x3120 JUMP JUMPDEST SWAP1 POP PUSH1 0x0 DUP3 GT ISZERO PUSH2 0x1584 JUMPI PUSH1 0x1 PUSH1 0x0 SWAP1 SLOAD SWAP1 PUSH2 0x100 EXP SWAP1 DIV PUSH20 0xFFFFFFFFFFFFFFFFFFFFFFFFFFFFFFFFFFFFFFFF AND PUSH20 0xFFFFFFFFFFFFFFFFFFFFFFFFFFFFFFFFFFFFFFFF AND PUSH4 0xA9059CBB DUP5 PUSH1 0x1 ADD PUSH1 0x0 SWAP1 SLOAD SWAP1 PUSH2 0x100 EXP SWAP1 DIV PUSH20 0xFFFFFFFFFFFFFFFFFFFFFFFFFFFFFFFFFFFFFFFF AND DUP5 PUSH1 0x40 MLOAD DUP4 PUSH4 0xFFFFFFFF AND PUSH1 0xE0 SHL DUP2 MSTORE PUSH1 0x4 ADD PUSH2 0x1501 SWAP3 SWAP2 SWAP1 PUSH2 0x2D37 JUMP JUMPDEST PUSH1 0x20 PUSH1 0x40 MLOAD DUP1 DUP4 SUB DUP2 PUSH1 0x0 DUP8 GAS CALL ISZERO DUP1 ISZERO PUSH2 0x1520 JUMPI RETURNDATASIZE PUSH1 0x0 DUP1 RETURNDATACOPY RETURNDATASIZE PUSH1 0x0 REVERT JUMPDEST POP POP POP POP PUSH1 0x40 MLOAD RETURNDATASIZE PUSH1 0x1F NOT PUSH1 0x1F DUP3 ADD AND DUP3 ADD DUP1 PUSH1 0x40 MSTORE POP DUP2 ADD SWAP1 PUSH2 0x1544 SWAP2 SWAP1 PUSH2 0x27D5 JUMP JUMPDEST PUSH2 0x1583 JUMPI PUSH1 0x40 MLOAD PUSH32 0x8C379A000000000000000000000000000000000000000000000000000000000 DUP2 MSTORE PUSH1 0x4 ADD PUSH2 0x157A SWAP1 PUSH2 0x31A0 JUMP JUMPDEST PUSH1 0x40 MLOAD DUP1 SWAP2 SUB SWAP1 REVERT JUMPDEST JUMPDEST PUSH1 0x0 DUP2 GT ISZERO PUSH2 0x16C2 JUMPI PUSH1 0x0 PUSH2 0x2710 PUSH1 0x4 SLOAD DUP4 PUSH2 0x15A0 SWAP2 SWAP1 PUSH2 0x28E5 JUMP JUMPDEST PUSH2 0x15AA SWAP2 SWAP1 PUSH2 0x30EF JUMP JUMPDEST SWAP1 POP PUSH1 0x0 DUP2 DUP4 PUSH2 0x15BA SWAP2 SWAP1 PUSH2 0x3120 JUMP JUMPDEST SWAP1 POP PUSH1 0x1 PUSH1 0x0 SWAP1 SLOAD SWAP1 PUSH2 0x100 EXP SWAP1 DIV PUSH20 0xFFFFFFFFFFFFFFFFFFFFFFFFFFFFFFFFFFFFFFFF AND PUSH20 0xFFFFFFFFFFFFFFFFFFFFFFFFFFFFFFFFFFFFFFFF AND PUSH4 0xA9059CBB DUP7 PUSH1 0x2 ADD PUSH1 0x0 SWAP1 SLOAD SWAP1 PUSH2 0x100 EXP SWAP1 DIV PUSH20 0xFFFFFFFFFFFFFFFFFFFFFFFFFFFFFFFFFFFFFFFF AND DUP4 PUSH1 0x40 MLOAD DUP4 PUSH4 0xFFFFFFFF AND PUSH1 0xE0 SHL DUP2 MSTORE PUSH1 0x4 ADD PUSH2 0x163D SWAP3 SWAP2 SWAP1 PUSH2 0x2D37 JUMP JUMPDEST PUSH1 0x20 PUSH1 0x40 MLOAD DUP1 DUP4 SUB DUP2 PUSH1 0x0 DUP8 GAS CALL ISZERO DUP1 ISZERO PUSH2 0x165C JUMPI RETURNDATASIZE PUSH1 0x0 DUP1 RETURNDATACOPY RETURNDATASIZE PUSH1 0x0 REVERT JUMPDEST POP POP POP POP PUSH1 0x40 MLOAD RETURNDATASIZE PUSH1 0x1F NOT PUSH1 0x1F DUP3 ADD AND DUP3 ADD DUP1 PUSH1 0x40 MSTORE POP DUP2 ADD SWAP1 PUSH2 0x1680 SWAP2 SWAP1 PUSH2 0x27D5 JUMP JUMPDEST PUSH2 0x16BF JUMPI PUSH1 0x40 MLOAD PUSH32 0x8C379A000000000000000000000000000000000000000000000000000000000 DUP2 MSTORE PUSH1 0x4 ADD PUSH2 0x16B6 SWAP1 PUSH2 0x320C JUMP JUMPDEST PUSH1 0x40 MLOAD DUP1 SWAP2 SUB SWAP1 REVERT JUMPDEST POP POP JUMPDEST PUSH1 0x3 DUP4 PUSH1 0x6 ADD PUSH1 0x0 PUSH2 0x100 EXP DUP2 SLOAD DUP2 PUSH1 0xFF MUL NOT AND SWAP1 DUP4 PUSH1 0x6 DUP2 GT ISZERO PUSH2 0x16EA JUMPI PUSH2 0x16E9 PUSH2 0x22A0 JUMP JUMPDEST JUMPDEST MUL OR SWAP1 SSTORE POP PUSH1 0x64 DUP5 EQ PUSH2 0x1721 JUMPI DUP3 PUSH1 0x2 ADD PUSH1 0x0 SWAP1 SLOAD SWAP1 PUSH2 0x100 EXP SWAP1 DIV PUSH20 0xFFFFFFFFFFFFFFFFFFFFFFFFFFFFFFFFFFFFFFFF AND PUSH2 0x1747 JUMP JUMPDEST DUP3 PUSH1 0x1 ADD PUSH1 0x0 SWAP1 SLOAD SWAP1 PUSH2 0x100 EXP SWAP1 DIV PUSH20 0xFFFFFFFFFFFFFFFFFFFFFFFFFFFFFFFFFFFFFFFF AND JUMPDEST PUSH20 0xFFFFFFFFFFFFFFFFFFFFFFFFFFFFFFFFFFFFFFFF AND DUP6 PUSH32 0xDF0BAF5489595EA17A097D16827D60793E2F57F3B85A982E5D7E02838B841EE6 DUP6 PUSH1 0x3 ADD SLOAD PUSH1 0x40 MLOAD PUSH2 0x1791 SWAP2 SWAP1 PUSH2 0x21C5 JUMP JUMPDEST PUSH1 0x40 MLOAD DUP1 SWAP2 SUB SWAP1 LOG3 POP POP POP PUSH2 0x17A4 PUSH2 0x1DDF JUMP JUMPDEST POP POP JUMP JUMPDEST PUSH2 0x17B0 PUSH2 0x1DBC JUMP JUMPDEST PUSH1 0x0 PUSH1 0x3 PUSH1 0x0 DUP4 DUP2 MSTORE PUSH1 0x20 ADD SWAP1 DUP2 MSTORE PUSH1 0x20 ADD PUSH1 0x0 KECCAK256 SWAP1 POP PUSH1 0x2 PUSH1 0x6 DUP2 GT ISZERO PUSH2 0x17DB JUMPI PUSH2 0x17DA PUSH2 0x22A0 JUMP JUMPDEST JUMPDEST DUP2 PUSH1 0x6 ADD PUSH1 0x0 SWAP1 SLOAD SWAP1 PUSH2 0x100 EXP SWAP1 DIV PUSH1 0xFF AND PUSH1 0x6 DUP2 GT ISZERO PUSH2 0x17FF JUMPI PUSH2 0x17FE PUSH2 0x22A0 JUMP JUMPDEST JUMPDEST EQ PUSH2 0x183F JUMPI PUSH1 0x40 MLOAD PUSH32 0x8C379A000000000000000000000000000000000000000000000000000000000 DUP2 MSTORE PUSH1 0x4 ADD PUSH2 0x1836 SWAP1 PUSH2 0x3278 JUMP JUMPDEST PUSH1 0x40 MLOAD DUP1 SWAP2 SUB SWAP1 REVERT JUMPDEST CALLER PUSH20 0xFFFFFFFFFFFFFFFFFFFFFFFFFFFFFFFFFFFFFFFF AND DUP2 PUSH1 0x1 ADD PUSH1 0x0 SWAP1 SLOAD SWAP1 PUSH2 0x100 EXP SWAP1 DIV PUSH20 0xFFFFFFFFFFFFFFFFFFFFFFFFFFFFFFFFFFFFFFFF AND PUSH20 0xFFFFFFFFFFFFFFFFFFFFFFFFFFFFFFFFFFFFFFFF AND EQ PUSH2 0x18D1 JUMPI PUSH1 0x40 MLOAD PUSH32 0x8C379A000000000000000000000000000000000000000000000000000000000 DUP2 MSTORE PUSH1 0x4 ADD PUSH2 0x18C8 SWAP1 PUSH2 0x32E4 JUMP JUMPDEST PUSH1 0x40 MLOAD DUP1 SWAP2 SUB SWAP1 REVERT JUMPDEST PUSH1 0x3 DUP2 PUSH1 0x6 ADD PUSH1 0x0 PUSH2 0x100 EXP DUP2 SLOAD DUP2 PUSH1 0xFF MUL NOT AND SWAP1 DUP4 PUSH1 0x6 DUP2 GT ISZERO PUSH2 0x18F9 JUMPI PUSH2 0x18F8 PUSH2 0x22A0 JUMP JUMPDEST JUMPDEST MUL OR SWAP1 SSTORE POP PUSH1 0x0 PUSH2 0x2710 PUSH1 0x4 SLOAD DUP4 PUSH1 0x3 ADD SLOAD PUSH2 0x1915 SWAP2 SWAP1 PUSH2 0x28E5 JUMP JUMPDEST PUSH2 0x191F SWAP2 SWAP1 PUSH2 0x30EF JUMP JUMPDEST SWAP1 POP PUSH1 0x0 DUP2 DUP4 PUSH1 0x3 ADD SLOAD PUSH2 0x1933 SWAP2 SWAP1 PUSH2 0x3120 JUMP JUMPDEST SWAP1 POP PUSH1 0x1 PUSH1 0x0 SWAP1 SLOAD SWAP1 PUSH2 0x100 EXP SWAP1 DIV PUSH20 0xFFFFFFFFFFFFFFFFFFFFFFFFFFFFFFFFFFFFFFFF AND PUSH20 0xFFFFFFFFFFFFFFFFFFFFFFFFFFFFFFFFFFFFFFFF AND PUSH4 0xA9059CBB DUP5 PUSH1 0x2 ADD PUSH1 0x0 SWAP1 SLOAD SWAP1 PUSH2 0x100 EXP SWAP1 DIV PUSH20 0xFFFFFFFFFFFFFFFFFFFFFFFFFFFFFFFFFFFFFFFF AND DUP4 PUSH1 0x40 MLOAD DUP4 PUSH4 0xFFFFFFFF AND PUSH1 0xE0 SHL DUP2 MSTORE PUSH1 0x4 ADD PUSH2 0x19B6 SWAP3 SWAP2 SWAP1 PUSH2 0x2D37 JUMP JUMPDEST PUSH1 0x20 PUSH1 0x40 MLOAD DUP1 DUP4 SUB DUP2 PUSH1 0x0 DUP8 GAS CALL ISZERO DUP1 ISZERO PUSH2 0x19D5 JUMPI RETURNDATASIZE PUSH1 0x0 DUP1 RETURNDATACOPY RETURNDATASIZE PUSH1 0x0 REVERT JUMPDEST POP POP POP POP PUSH1 0x40 MLOAD RETURNDATASIZE PUSH1 0x1F NOT PUSH1 0x1F DUP3 ADD AND DUP3 ADD DUP1 PUSH1 0x40 MSTORE POP DUP2 ADD SWAP1 PUSH2 0x19F9 SWAP2 SWAP1 PUSH2 0x27D5 JUMP JUMPDEST PUSH2 0x1A38 JUMPI PUSH1 0x40 MLOAD PUSH32 0x8C379A000000000000000000000000000000000000000000000000000000000 DUP2 MSTORE PUSH1 0x4 ADD PUSH2 0x1A2F SWAP1 PUSH2 0x3350 JUMP JUMPDEST PUSH1 0x40 MLOAD DUP1 SWAP2 SUB SWAP1 REVERT JUMPDEST CALLER PUSH20 0xFFFFFFFFFFFFFFFFFFFFFFFFFFFFFFFFFFFFFFFF AND DUP4 PUSH1 0x2 ADD PUSH1 0x0 SWAP1 SLOAD SWAP1 PUSH2 0x100 EXP SWAP1 DIV PUSH20 0xFFFFFFFFFFFFFFFFFFFFFFFFFFFFFFFFFFFFFFFF AND PUSH20 0xFFFFFFFFFFFFFFFFFFFFFFFFFFFFFFFFFFFFFFFF AND DUP6 PUSH32 0xD6AA43B3EF389699D8F67C5F1A0C7AED44DABFC43FF152AB342C962C8CE7DE39 DUP5 PUSH1 0x40 MLOAD PUSH2 0x1ABA SWAP2 SWAP1 PUSH2 0x21C5 JUMP JUMPDEST PUSH1 0x40 MLOAD DUP1 SWAP2 SUB SWAP1 LOG4 POP POP POP PUSH2 0x1ACD PUSH2 0x1DDF JUMP JUMPDEST POP JUMP JUMPDEST PUSH1 0x0 PUSH1 0x3 PUSH1 0x0 DUP6 DUP2 MSTORE PUSH1 0x20 ADD SWAP1 DUP2 MSTORE PUSH1 0x20 ADD PUSH1 0x0 KECCAK256 SWAP1 POP PUSH1 0x1 PUSH1 0x6 DUP2 GT ISZERO PUSH2 0x1AFB JUMPI PUSH2 0x1AFA PUSH2 0x22A0 JUMP JUMPDEST JUMPDEST DUP2 PUSH1 0x6 ADD PUSH1 0x0 SWAP1 SLOAD SWAP1 PUSH2 0x100 EXP SWAP1 DIV PUSH1 0xFF AND PUSH1 0x6 DUP2 GT ISZERO PUSH2 0x1B1F JUMPI PUSH2 0x1B1E PUSH2 0x22A0 JUMP JUMPDEST JUMPDEST EQ PUSH2 0x1B5F JUMPI PUSH1 0x40 MLOAD PUSH32 0x8C379A000000000000000000000000000000000000000000000000000000000 DUP2 MSTORE PUSH1 0x4 ADD PUSH2 0x1B56 SWAP1 PUSH2 0x33BC JUMP JUMPDEST PUSH1 0x40 MLOAD DUP1 SWAP2 SUB SWAP1 REVERT JUMPDEST CALLER PUSH20 0xFFFFFFFFFFFFFFFFFFFFFFFFFFFFFFFFFFFFFFFF AND DUP2 PUSH1 0x2 ADD PUSH1 0x0 SWAP1 SLOAD SWAP1 PUSH2 0x100 EXP SWAP1 DIV PUSH20 0xFFFFFFFFFFFFFFFFFFFFFFFFFFFFFFFFFFFFFFFF AND PUSH20 0xFFFFFFFFFFFFFFFFFFFFFFFFFFFFFFFFFFFFFFFF AND EQ PUSH2 0x1BF1 JUMPI PUSH1 0x40 MLOAD PUSH32 0x8C379A000000000000000000000000000000000000000000000000000000000 DUP2 MSTORE PUSH1 0x4 ADD PUSH2 0x1BE8 SWAP1 PUSH2 0x3428 JUMP JUMPDEST PUSH1 0x40 MLOAD DUP1 SWAP2 SUB SWAP1 REVERT JUMPDEST DUP3 DUP3 DUP3 PUSH1 0x7 ADD SWAP2 DUP3 PUSH2 0x1C04 SWAP3 SWAP2 SWAP1 PUSH2 0x3453 JUMP JUMPDEST POP PUSH1 0x2 DUP2 PUSH1 0x6 ADD PUSH1 0x0 PUSH2 0x100 EXP DUP2 SLOAD DUP2 PUSH1 0xFF MUL NOT AND SWAP1 DUP4 PUSH1 0x6 DUP2 GT ISZERO PUSH2 0x1C2D JUMPI PUSH2 0x1C2C PUSH2 0x22A0 JUMP JUMPDEST JUMPDEST MUL OR SWAP1 SSTORE POP CALLER PUSH20 0xFFFFFFFFFFFFFFFFFFFFFFFFFFFFFFFFFFFFFFFF AND DUP5 PUSH32 0xEE03D8CA892F60549B4585B91E57A806EE32043F2EE49D34D6C67F42889DF0FF DUP6 DUP6 PUSH1 0x40 MLOAD PUSH2 0x1C7B SWAP3 SWAP2 SWAP1 PUSH2 0x3550 JUMP JUMPDEST PUSH1 0x40 MLOAD DUP1 SWAP2 SUB SWAP1 LOG3 POP POP POP POP JUMP JUMPDEST PUSH1 0x1 PUSH1 0x0 SWAP1 SLOAD SWAP1 PUSH2 0x100 EXP SWAP1 DIV PUSH20 0xFFFFFFFFFFFFFFFFFFFFFFFFFFFFFFFFFFFFFFFF AND DUP2 JUMP JUMPDEST PUSH2 0x1CB7 PUSH2 0x1D35 JUMP JUMPDEST PUSH1 0x0 PUSH20 0xFFFFFFFFFFFFFFFFFFFFFFFFFFFFFFFFFFFFFFFF AND DUP2 PUSH20 0xFFFFFFFFFFFFFFFFFFFFFFFFFFFFFFFFFFFFFFFF AND SUB PUSH2 0x1D29 JUMPI PUSH1 0x0 PUSH1 0x40 MLOAD PUSH32 0x1E4FBDF700000000000000000000000000000000000000000000000000000000 DUP2 MSTORE PUSH1 0x4 ADD PUSH2 0x1D20 SWAP2 SWAP1 PUSH2 0x23C8 JUMP JUMPDEST PUSH1 0x40 MLOAD DUP1 SWAP2 SUB SWAP1 REVERT JUMPDEST PUSH2 0x1D32 DUP2 PUSH2 0x1DFA JUMP JUMPDEST POP JUMP JUMPDEST PUSH2 0x1D3D PUSH2 0x1EBE JUMP JUMPDEST PUSH20 0xFFFFFFFFFFFFFFFFFFFFFFFFFFFFFFFFFFFFFFFF AND PUSH2 0x1D5B PUSH2 0x1337 JUMP JUMPDEST PUSH20 0xFFFFFFFFFFFFFFFFFFFFFFFFFFFFFFFFFFFFFFFF AND EQ PUSH2 0x1DBA JUMPI PUSH2 0x1D7E PUSH2 0x1EBE JUMP JUMPDEST PUSH1 0x40 MLOAD PUSH32 0x118CDAA700000000000000000000000000000000000000000000000000000000 DUP2 MSTORE PUSH1 0x4 ADD PUSH2 0x1DB1 SWAP2 SWAP1 PUSH2 0x23C8 JUMP JUMPDEST PUSH1 0x40 MLOAD DUP1 SWAP2 SUB SWAP1 REVERT JUMPDEST JUMP JUMPDEST PUSH2 0x1DC4 PUSH2 0x1EC6 JUMP JUMPDEST PUSH1 0x2 PUSH2 0x1DD6 PUSH2 0x1DD1 PUSH2 0x1F07 JUMP JUMPDEST PUSH2 0x1F32 JUMP JUMPDEST PUSH1 0x0 ADD DUP2 SWAP1 SSTORE POP JUMP JUMPDEST PUSH1 0x1 PUSH2 0x1DF1 PUSH2 0x1DEC PUSH2 0x1F07 JUMP JUMPDEST PUSH2 0x1F32 JUMP JUMPDEST PUSH1 0x0 ADD DUP2 SWAP1 SSTORE POP JUMP JUMPDEST PUSH1 0x0 DUP1 PUSH1 0x0 SWAP1 SLOAD SWAP1 PUSH2 0x100 EXP SWAP1 DIV PUSH20 0xFFFFFFFFFFFFFFFFFFFFFFFFFFFFFFFFFFFFFFFF AND SWAP1 POP DUP2 PUSH1 0x0 DUP1 PUSH2 0x100 EXP DUP2 SLOAD DUP2 PUSH20 0xFFFFFFFFFFFFFFFFFFFFFFFFFFFFFFFFFFFFFFFF MUL NOT AND SWAP1 DUP4 PUSH20 0xFFFFFFFFFFFFFFFFFFFFFFFFFFFFFFFFFFFFFFFF AND MUL OR SWAP1 SSTORE POP DUP2 PUSH20 0xFFFFFFFFFFFFFFFFFFFFFFFFFFFFFFFFFFFFFFFF AND DUP2 PUSH20 0xFFFFFFFFFFFFFFFFFFFFFFFFFFFFFFFFFFFFFFFF AND PUSH32 0x8BE0079C531659141344CD1FD0A4F28419497F9722A3DAAFE3B4186F6B6457E0 PUSH1 0x40 MLOAD PUSH1 0x40 MLOAD DUP1 SWAP2 SUB SWAP1 LOG3 POP POP JUMP JUMPDEST PUSH1 0x0 CALLER SWAP1 POP SWAP1 JUMP JUMPDEST PUSH2 0x1ECE PUSH2 0x1F3C JUMP JUMPDEST ISZERO PUSH2 0x1F05 JUMPI PUSH1 0x40 MLOAD PUSH32 0x3EE5AEB500000000000000000000000000000000000000000000000000000000 DUP2 MSTORE PUSH1 0x4 ADD PUSH1 0x40 MLOAD DUP1 SWAP2 SUB SWAP1 REVERT JUMPDEST JUMP JUMPDEST PUSH1 0x0 PUSH32 0x9B779B17422D0DF92223018B32B4D1FA46E071723D6817E2486D003BECC55F00 PUSH1 0x0 SHL SWAP1 POP SWAP1 JUMP JUMPDEST PUSH1 0x0 DUP2 SWAP1 POP SWAP2 SWAP1 POP JUMP JUMPDEST PUSH1 0x0 PUSH1 0x2 PUSH2 0x1F50 PUSH2 0x1F4B PUSH2 0x1F07 JUMP JUMPDEST PUSH2 0x1F32 JUMP JUMPDEST PUSH1 0x0 ADD SLOAD EQ SWAP1 POP SWAP1 JUMP JUMPDEST PUSH1 0x0 PUSH1 0x40 MLOAD SWAP1 POP SWAP1 JUMP JUMPDEST PUSH1 0x0 DUP1 REVERT JUMPDEST PUSH1 0x0 DUP1 REVERT JUMPDEST PUSH1 0x0 DUP2 SWAP1 POP SWAP2 SWAP1 POP JUMP JUMPDEST PUSH2 0x1F81 DUP2 PUSH2 0x1F6E JUMP JUMPDEST DUP2 EQ PUSH2 0x1F8C JUMPI PUSH1 0x0 DUP1 REVERT JUMPDEST POP JUMP JUMPDEST PUSH1 0x0 DUP2 CALLDATALOAD SWAP1 POP PUSH2 0x1F9E DUP2 PUSH2 0x1F78 JUMP JUMPDEST SWAP3 SWAP2 POP POP JUMP JUMPDEST PUSH1 0x0 PUSH1 0x20 DUP3 DUP5 SUB SLT ISZERO PUSH2 0x1FBA JUMPI PUSH2 0x1FB9 PUSH2 0x1F64 JUMP JUMPDEST JUMPDEST PUSH1 0x0 PUSH2 0x1FC8 DUP5 DUP3 DUP6 ADD PUSH2 0x1F8F JUMP JUMPDEST SWAP2 POP POP SWAP3 SWAP2 POP POP JUMP JUMPDEST PUSH1 0x0 DUP1 REVERT JUMPDEST PUSH1 0x0 DUP1 REVERT JUMPDEST PUSH1 0x0 PUSH1 0x1F NOT PUSH1 0x1F DUP4 ADD AND SWAP1 POP SWAP2 SWAP1 POP JUMP JUMPDEST PUSH32 0x4E487B7100000000000000000000000000000000000000000000000000000000 PUSH1 0x0 MSTORE PUSH1 0x41 PUSH1 0x4 MSTORE PUSH1 0x24 PUSH1 0x0 REVERT JUMPDEST PUSH2 0x2024 DUP3 PUSH2 0x1FDB JUMP JUMPDEST DUP2 ADD DUP2 DUP2 LT PUSH8 0xFFFFFFFFFFFFFFFF DUP3 GT OR ISZERO PUSH2 0x2043 JUMPI PUSH2 0x2042 PUSH2 0x1FEC JUMP JUMPDEST JUMPDEST DUP1 PUSH1 0x40 MSTORE POP POP POP JUMP JUMPDEST PUSH1 0x0 PUSH2 0x2056 PUSH2 0x1F5A JUMP JUMPDEST SWAP1 POP PUSH2 0x2062 DUP3 DUP3 PUSH2 0x201B JUMP JUMPDEST SWAP2 SWAP1 POP JUMP JUMPDEST PUSH1 0x0 PUSH8 0xFFFFFFFFFFFFFFFF DUP3 GT ISZERO PUSH2 0x2082 JUMPI PUSH2 0x2081 PUSH2 0x1FEC JUMP JUMPDEST JUMPDEST PUSH2 0x208B DUP3 PUSH2 0x1FDB JUMP JUMPDEST SWAP1 POP PUSH1 0x20 DUP2 ADD SWAP1 POP SWAP2 SWAP1 POP JUMP JUMPDEST DUP3 DUP2 DUP4 CALLDATACOPY PUSH1 0x0 DUP4 DUP4 ADD MSTORE POP POP POP JUMP JUMPDEST PUSH1 0x0 PUSH2 0x20BA PUSH2 0x20B5 DUP5 PUSH2 0x2067 JUMP JUMPDEST PUSH2 0x204C JUMP JUMPDEST SWAP1 POP DUP3 DUP2 MSTORE PUSH1 0x20 DUP2 ADD DUP5 DUP5 DUP5 ADD GT ISZERO PUSH2 0x20D6 JUMPI PUSH2 0x20D5 PUSH2 0x1FD6 JUMP JUMPDEST JUMPDEST PUSH2 0x20E1 DUP5 DUP3 DUP6 PUSH2 0x2098 JUMP JUMPDEST POP SWAP4 SWAP3 POP POP POP JUMP JUMPDEST PUSH1 0x0 DUP3 PUSH1 0x1F DUP4 ADD SLT PUSH2 0x20FE JUMPI PUSH2 0x20FD PUSH2 0x1FD1 JUMP JUMPDEST JUMPDEST DUP2 CALLDATALOAD PUSH2 0x210E DUP5 DUP3 PUSH1 0x20 DUP7 ADD PUSH2 0x20A7 JUMP JUMPDEST SWAP2 POP POP SWAP3 SWAP2 POP POP JUMP JUMPDEST PUSH1 0x0 DUP1 PUSH1 0x0 DUP1 PUSH1 0x80 DUP6 DUP8 SUB SLT ISZERO PUSH2 0x2131 JUMPI PUSH2 0x2130 PUSH2 0x1F64 JUMP JUMPDEST JUMPDEST PUSH1 0x0 DUP6 ADD CALLDATALOAD PUSH8 0xFFFFFFFFFFFFFFFF DUP2 GT ISZERO PUSH2 0x214F JUMPI PUSH2 0x214E PUSH2 0x1F69 JUMP JUMPDEST JUMPDEST PUSH2 0x215B DUP8 DUP3 DUP9 ADD PUSH2 0x20E9 JUMP JUMPDEST SWAP5 POP POP PUSH1 0x20 DUP6 ADD CALLDATALOAD PUSH8 0xFFFFFFFFFFFFFFFF DUP2 GT ISZERO PUSH2 0x217C JUMPI PUSH2 0x217B PUSH2 0x1F69 JUMP JUMPDEST JUMPDEST PUSH2 0x2188 DUP8 DUP3 DUP9 ADD PUSH2 0x20E9 JUMP JUMPDEST SWAP4 POP POP PUSH1 0x40 PUSH2 0x2199 DUP8 DUP3 DUP9 ADD PUSH2 0x1F8F JUMP JUMPDEST SWAP3 POP POP PUSH1 0x60 PUSH2 0x21AA DUP8 DUP3 DUP9 ADD PUSH2 0x1F8F JUMP JUMPDEST SWAP2 POP POP SWAP3 SWAP6 SWAP2 SWAP5 POP SWAP3 POP JUMP JUMPDEST PUSH2 0x21BF DUP2 PUSH2 0x1F6E JUMP JUMPDEST DUP3 MSTORE POP POP JUMP JUMPDEST PUSH1 0x0 PUSH1 0x20 DUP3 ADD SWAP1 POP PUSH2 0x21DA PUSH1 0x0 DUP4 ADD DUP5 PUSH2 0x21B6 JUMP JUMPDEST SWAP3 SWAP2 POP POP JUMP JUMPDEST PUSH1 0x0 PUSH20 0xFFFFFFFFFFFFFFFFFFFFFFFFFFFFFFFFFFFFFFFF DUP3 AND SWAP1 POP SWAP2 SWAP1 POP JUMP JUMPDEST PUSH1 0x0 PUSH2 0x220B DUP3 PUSH2 0x21E0 JUMP JUMPDEST SWAP1 POP SWAP2 SWAP1 POP JUMP JUMPDEST PUSH2 0x221B DUP2 PUSH2 0x2200 JUMP JUMPDEST DUP3 MSTORE POP POP JUMP JUMPDEST PUSH1 0x0 DUP2 MLOAD SWAP1 POP SWAP2 SWAP1 POP JUMP JUMPDEST PUSH1 0x0 DUP3 DUP3 MSTORE PUSH1 0x20 DUP3 ADD SWAP1 POP SWAP3 SWAP2 POP POP JUMP JUMPDEST PUSH1 0x0 JUMPDEST DUP4 DUP2 LT ISZERO PUSH2 0x225B JUMPI DUP1 DUP3 ADD MLOAD DUP2 DUP5 ADD MSTORE PUSH1 0x20 DUP2 ADD SWAP1 POP PUSH2 0x2240 JUMP JUMPDEST PUSH1 0x0 DUP5 DUP5 ADD MSTORE POP POP POP POP JUMP JUMPDEST PUSH1 0x0 PUSH2 0x2272 DUP3 PUSH2 0x2221 JUMP JUMPDEST PUSH2 0x227C DUP2 DUP6 PUSH2 0x222C JUMP JUMPDEST SWAP4 POP PUSH2 0x228C DUP2 DUP6 PUSH1 0x20 DUP7 ADD PUSH2 0x223D JUMP JUMPDEST PUSH2 0x2295 DUP2 PUSH2 0x1FDB JUMP JUMPDEST DUP5 ADD SWAP2 POP POP SWAP3 SWAP2 POP POP JUMP JUMPDEST PUSH32 0x4E487B7100000000000000000000000000000000000000000000000000000000 PUSH1 0x0 MSTORE PUSH1 0x21 PUSH1 0x4 MSTORE PUSH1 0x24 PUSH1 0x0 REVERT JUMPDEST PUSH1 0x7 DUP2 LT PUSH2 0x22E0 JUMPI PUSH2 0x22DF PUSH2 0x22A0 JUMP JUMPDEST JUMPDEST POP JUMP JUMPDEST PUSH1 0x0 DUP2 SWAP1 POP PUSH2 0x22F1 DUP3 PUSH2 0x22CF JUMP JUMPDEST SWAP2 SWAP1 POP JUMP JUMPDEST PUSH1 0x0 PUSH2 0x2301 DUP3 PUSH2 0x22E3 JUMP JUMPDEST SWAP1 POP SWAP2 SWAP1 POP JUMP JUMPDEST PUSH2 0x2311 DUP2 PUSH2 0x22F6 JUMP JUMPDEST DUP3 MSTORE POP POP JUMP JUMPDEST PUSH1 0x0 PUSH2 0x140 DUP3 ADD SWAP1 POP PUSH2 0x232D PUSH1 0x0 DUP4 ADD DUP14 PUSH2 0x21B6 JUMP JUMPDEST PUSH2 0x233A PUSH1 0x20 DUP4 ADD DUP13 PUSH2 0x2212 JUMP JUMPDEST PUSH2 0x2347 PUSH1 0x40 DUP4 ADD DUP12 PUSH2 0x2212 JUMP JUMPDEST PUSH2 0x2354 PUSH1 0x60 DUP4 ADD DUP11 PUSH2 0x21B6 JUMP JUMPDEST DUP2 DUP2 SUB PUSH1 0x80 DUP4 ADD MSTORE PUSH2 0x2366 DUP2 DUP10 PUSH2 0x2267 JUMP JUMPDEST SWAP1 POP DUP2 DUP2 SUB PUSH1 0xA0 DUP4 ADD MSTORE PUSH2 0x237A DUP2 DUP9 PUSH2 0x2267 JUMP JUMPDEST SWAP1 POP PUSH2 0x2389 PUSH1 0xC0 DUP4 ADD DUP8 PUSH2 0x2308 JUMP JUMPDEST DUP2 DUP2 SUB PUSH1 0xE0 DUP4 ADD MSTORE PUSH2 0x239B DUP2 DUP7 PUSH2 0x2267 JUMP JUMPDEST SWAP1 POP PUSH2 0x23AB PUSH2 0x100 DUP4 ADD DUP6 PUSH2 0x21B6 JUMP JUMPDEST PUSH2 0x23B9 PUSH2 0x120 DUP4 ADD DUP5 PUSH2 0x21B6 JUMP JUMPDEST SWAP12 SWAP11 POP POP POP POP POP POP POP POP POP POP POP JUMP JUMPDEST PUSH1 0x0 PUSH1 0x20 DUP3 ADD SWAP1 POP PUSH2 0x23DD PUSH1 0x0 DUP4 ADD DUP5 PUSH2 0x2212 JUMP JUMPDEST SWAP3 SWAP2 POP POP JUMP JUMPDEST PUSH1 0x0 DUP1 PUSH1 0x40 DUP4 DUP6 SUB SLT ISZERO PUSH2 0x23FA JUMPI PUSH2 0x23F9 PUSH2 0x1F64 JUMP JUMPDEST JUMPDEST PUSH1 0x0 PUSH2 0x2408 DUP6 DUP3 DUP7 ADD PUSH2 0x1F8F JUMP JUMPDEST SWAP3 POP POP PUSH1 0x20 PUSH2 0x2419 DUP6 DUP3 DUP7 ADD PUSH2 0x1F8F JUMP JUMPDEST SWAP2 POP POP SWAP3 POP SWAP3 SWAP1 POP JUMP JUMPDEST PUSH1 0x0 DUP1 REVERT JUMPDEST PUSH1 0x0 DUP1 REVERT JUMPDEST PUSH1 0x0 DUP1 DUP4 PUSH1 0x1F DUP5 ADD SLT PUSH2 0x2443 JUMPI PUSH2 0x2442 PUSH2 0x1FD1 JUMP JUMPDEST JUMPDEST DUP3 CALLDATALOAD SWAP1 POP PUSH8 0xFFFFFFFFFFFFFFFF DUP2 GT ISZERO PUSH2 0x2460 JUMPI PUSH2 0x245F PUSH2 0x2423 JUMP JUMPDEST JUMPDEST PUSH1 0x20 DUP4 ADD SWAP2 POP DUP4 PUSH1 0x1 DUP3 MUL DUP4 ADD GT ISZERO PUSH2 0x247C JUMPI PUSH2 0x247B PUSH2 0x2428 JUMP JUMPDEST JUMPDEST SWAP3 POP SWAP3 SWAP1 POP JUMP JUMPDEST PUSH1 0x0 DUP1 PUSH1 0x0 PUSH1 0x40 DUP5 DUP7 SUB SLT ISZERO PUSH2 0x249C JUMPI PUSH2 0x249B PUSH2 0x1F64 JUMP JUMPDEST JUMPDEST PUSH1 0x0 PUSH2 0x24AA DUP7 DUP3 DUP8 ADD PUSH2 0x1F8F JUMP JUMPDEST SWAP4 POP POP PUSH1 0x20 DUP5 ADD CALLDATALOAD PUSH8 0xFFFFFFFFFFFFFFFF DUP2 GT ISZERO PUSH2 0x24CB JUMPI PUSH2 0x24CA PUSH2 0x1F69 JUMP JUMPDEST JUMPDEST PUSH2 0x24D7 DUP7 DUP3 DUP8 ADD PUSH2 0x242D JUMP JUMPDEST SWAP3 POP SWAP3 POP POP SWAP3 POP SWAP3 POP SWAP3 JUMP JUMPDEST PUSH1 0x0 DUP2 SWAP1 POP SWAP2 SWAP1 POP JUMP JUMPDEST PUSH1 0x0 PUSH2 0x2508 PUSH2 0x2503 PUSH2 0x24FE DUP5 PUSH2 0x21E0 JUMP JUMPDEST PUSH2 0x24E3 JUMP JUMPDEST PUSH2 0x21E0 JUMP JUMPDEST SWAP1 POP SWAP2 SWAP1 POP JUMP JUMPDEST PUSH1 0x0 PUSH2 0x251A DUP3 PUSH2 0x24ED JUMP JUMPDEST SWAP1 POP SWAP2 SWAP1 POP JUMP JUMPDEST PUSH1 0x0 PUSH2 0x252C DUP3 PUSH2 0x250F JUMP JUMPDEST SWAP1 POP SWAP2 SWAP1 POP JUMP JUMPDEST PUSH2 0x253C DUP2 PUSH2 0x2521 JUMP JUMPDEST DUP3 MSTORE POP POP JUMP JUMPDEST PUSH1 0x0 PUSH1 0x20 DUP3 ADD SWAP1 POP PUSH2 0x2557 PUSH1 0x0 DUP4 ADD DUP5 PUSH2 0x2533 JUMP JUMPDEST SWAP3 SWAP2 POP POP JUMP JUMPDEST PUSH2 0x2566 DUP2 PUSH2 0x2200 JUMP JUMPDEST DUP2 EQ PUSH2 0x2571 JUMPI PUSH1 0x0 DUP1 REVERT JUMPDEST POP JUMP JUMPDEST PUSH1 0x0 DUP2 CALLDATALOAD SWAP1 POP PUSH2 0x2583 DUP2 PUSH2 0x255D JUMP JUMPDEST SWAP3 SWAP2 POP POP JUMP JUMPDEST PUSH1 0x0 PUSH1 0x20 DUP3 DUP5 SUB SLT ISZERO PUSH2 0x259F JUMPI PUSH2 0x259E PUSH2 0x1F64 JUMP JUMPDEST JUMPDEST PUSH1 0x0 PUSH2 0x25AD DUP5 DUP3 DUP6 ADD PUSH2 0x2574 JUMP JUMPDEST SWAP2 POP POP SWAP3 SWAP2 POP POP JUMP JUMPDEST PUSH32 0x46656520746F6F20686967680000000000000000000000000000000000000000 PUSH1 0x0 DUP3 ADD MSTORE POP JUMP JUMPDEST PUSH1 0x0 PUSH2 0x25EC PUSH1 0xC DUP4 PUSH2 0x222C JUMP JUMPDEST SWAP2 POP PUSH2 0x25F7 DUP3 PUSH2 0x25B6 JUMP JUMPDEST PUSH1 0x20 DUP3 ADD SWAP1 POP SWAP2 SWAP1 POP JUMP JUMPDEST PUSH1 0x0 PUSH1 0x20 DUP3 ADD SWAP1 POP DUP2 DUP2 SUB PUSH1 0x0 DUP4 ADD MSTORE PUSH2 0x261B DUP2 PUSH2 0x25DF JUMP JUMPDEST SWAP1 POP SWAP2 SWAP1 POP JUMP JUMPDEST PUSH32 0x496E76616C69642073746174757320666F722064697370757465000000000000 PUSH1 0x0 DUP3 ADD MSTORE POP JUMP JUMPDEST PUSH1 0x0 PUSH2 0x2658 PUSH1 0x1A DUP4 PUSH2 0x222C JUMP JUMPDEST SWAP2 POP PUSH2 0x2663 DUP3 PUSH2 0x2622 JUMP JUMPDEST PUSH1 0x20 DUP3 ADD SWAP1 POP SWAP2 SWAP1 POP JUMP JUMPDEST PUSH1 0x0 PUSH1 0x20 DUP3 ADD SWAP1 POP DUP2 DUP2 SUB PUSH1 0x0 DUP4 ADD MSTORE PUSH2 0x2687 DUP2 PUSH2 0x264B JUMP JUMPDEST SWAP1 POP SWAP2 SWAP1 POP JUMP JUMPDEST PUSH32 0x4E6F7420617574686F72697A656420746F206469737075746500000000000000 PUSH1 0x0 DUP3 ADD MSTORE POP JUMP JUMPDEST PUSH1 0x0 PUSH2 0x26C4 PUSH1 0x19 DUP4 PUSH2 0x222C JUMP JUMPDEST SWAP2 POP PUSH2 0x26CF DUP3 PUSH2 0x268E JUMP JUMPDEST PUSH1 0x20 DUP3 ADD SWAP1 POP SWAP2 SWAP1 POP JUMP JUMPDEST PUSH1 0x0 PUSH1 0x20 DUP3 ADD SWAP1 POP DUP2 DUP2 SUB PUSH1 0x0 DUP4 ADD MSTORE PUSH2 0x26F3 DUP2 PUSH2 0x26B7 JUMP JUMPDEST SWAP1 POP SWAP2 SWAP1 POP JUMP JUMPDEST PUSH32 0x426F756E7479206D757374206265203E20300000000000000000000000000000 PUSH1 0x0 DUP3 ADD MSTORE POP JUMP JUMPDEST PUSH1 0x0 PUSH2 0x2730 PUSH1 0x12 DUP4 PUSH2 0x222C JUMP JUMPDEST SWAP2 POP PUSH2 0x273B DUP3 PUSH2 0x26FA JUMP JUMPDEST PUSH1 0x20 DUP3 ADD SWAP1 POP SWAP2 SWAP1 POP JUMP JUMPDEST PUSH1 0x0 PUSH1 0x20 DUP3 ADD SWAP1 POP DUP2 DUP2 SUB PUSH1 0x0 DUP4 ADD MSTORE PUSH2 0x275F DUP2 PUSH2 0x2723 JUMP JUMPDEST SWAP1 POP SWAP2 SWAP1 POP JUMP JUMPDEST PUSH1 0x0 PUSH1 0x60 DUP3 ADD SWAP1 POP PUSH2 0x277B PUSH1 0x0 DUP4 ADD DUP7 PUSH2 0x2212 JUMP JUMPDEST PUSH2 0x2788 PUSH1 0x20 DUP4 ADD DUP6 PUSH2 0x2212 JUMP JUMPDEST PUSH2 0x2795 PUSH1 0x40 DUP4 ADD DUP5 PUSH2 0x21B6 JUMP JUMPDEST SWAP5 SWAP4 POP POP POP POP JUMP JUMPDEST PUSH1 0x0 DUP2 ISZERO ISZERO SWAP1 POP SWAP2 SWAP1 POP JUMP JUMPDEST PUSH2 0x27B2 DUP2 PUSH2 0x279D JUMP JUMPDEST DUP2 EQ PUSH2 0x27BD JUMPI PUSH1 0x0 DUP1 REVERT JUMPDEST POP JUMP JUMPDEST PUSH1 0x0 DUP2 MLOAD SWAP1 POP PUSH2 0x27CF DUP2 PUSH2 0x27A9 JUMP JUMPDEST SWAP3 SWAP2 POP POP JUMP JUMPDEST PUSH1 0x0 PUSH1 0x20 DUP3 DUP5 SUB SLT ISZERO PUSH2 0x27EB JUMPI PUSH2 0x27EA PUSH2 0x1F64 JUMP JUMPDEST JUMPDEST PUSH1 0x0 PUSH2 0x27F9 DUP5 DUP3 DUP6 ADD PUSH2 0x27C0 JUMP JUMPDEST SWAP2 POP POP SWAP3 SWAP2 POP POP JUMP JUMPDEST PUSH32 0x457363726F77206465706F736974206661696C65640000000000000000000000 PUSH1 0x0 DUP3 ADD MSTORE POP JUMP JUMPDEST PUSH1 0x0 PUSH2 0x2838 PUSH1 0x15 DUP4 PUSH2 0x222C JUMP JUMPDEST SWAP2 POP PUSH2 0x2843 DUP3 PUSH2 0x2802 JUMP JUMPDEST PUSH1 0x20 DUP3 ADD SWAP1 POP SWAP2 SWAP1 POP JUMP JUMPDEST PUSH1 0x0 PUSH1 0x20 DUP3 ADD SWAP1 POP DUP2 DUP2 SUB PUSH1 0x0 DUP4 ADD MSTORE PUSH2 0x2867 DUP2 PUSH2 0x282B JUMP JUMPDEST SWAP1 POP SWAP2 SWAP1 POP JUMP JUMPDEST PUSH32 0x4E487B7100000000000000000000000000000000000000000000000000000000 PUSH1 0x0 MSTORE PUSH1 0x11 PUSH1 0x4 MSTORE PUSH1 0x24 PUSH1 0x0 REVERT JUMPDEST PUSH1 0x0 PUSH2 0x28A8 DUP3 PUSH2 0x1F6E JUMP JUMPDEST SWAP2 POP PUSH32 0xFFFFFFFFFFFFFFFFFFFFFFFFFFFFFFFFFFFFFFFFFFFFFFFFFFFFFFFFFFFFFFFF DUP3 SUB PUSH2 0x28DA JUMPI PUSH2 0x28D9 PUSH2 0x286E JUMP JUMPDEST JUMPDEST PUSH1 0x1 DUP3 ADD SWAP1 POP SWAP2 SWAP1 POP JUMP JUMPDEST PUSH1 0x0 PUSH2 0x28F0 DUP3 PUSH2 0x1F6E JUMP JUMPDEST SWAP2 POP PUSH2 0x28FB DUP4 PUSH2 0x1F6E JUMP JUMPDEST SWAP3 POP DUP3 DUP3 MUL PUSH2 0x2909 DUP2 PUSH2 0x1F6E JUMP JUMPDEST SWAP2 POP DUP3 DUP3 DIV DUP5 EQ DUP4 ISZERO OR PUSH2 0x2920 JUMPI PUSH2 0x291F PUSH2 0x286E JUMP JUMPDEST JUMPDEST POP SWAP3 SWAP2 POP POP JUMP JUMPDEST PUSH1 0x0 PUSH2 0x2932 DUP3 PUSH2 0x1F6E JUMP JUMPDEST SWAP2 POP PUSH2 0x293D DUP4 PUSH2 0x1F6E JUMP JUMPDEST SWAP3 POP DUP3 DUP3 ADD SWAP1 POP DUP1 DUP3 GT ISZERO PUSH2 0x2955 JUMPI PUSH2 0x2954 PUSH2 0x286E JUMP JUMPDEST JUMPDEST SWAP3 SWAP2 POP POP JUMP JUMPDEST PUSH32 0x4E487B7100000000000000000000000000000000000000000000000000000000 PUSH1 0x0 MSTORE PUSH1 0x22 PUSH1 0x4 MSTORE PUSH1 0x24 PUSH1 0x0 REVERT JUMPDEST PUSH1 0x0 PUSH1 0x2 DUP3 DIV SWAP1 POP PUSH1 0x1 DUP3 AND DUP1 PUSH2 0x29A2 JUMPI PUSH1 0x7F DUP3 AND SWAP2 POP JUMPDEST PUSH1 0x20 DUP3 LT DUP2 SUB PUSH2 0x29B5 JUMPI PUSH2 0x29B4 PUSH2 0x295B JUMP JUMPDEST JUMPDEST POP SWAP2 SWAP1 POP JUMP JUMPDEST PUSH1 0x0 DUP2 SWAP1 POP DUP2 PUSH1 0x0 MSTORE PUSH1 0x20 PUSH1 0x0 KECCAK256 SWAP1 POP SWAP2 SWAP1 POP JUMP JUMPDEST PUSH1 0x0 PUSH1 0x20 PUSH1 0x1F DUP4 ADD DIV SWAP1 POP SWAP2 SWAP1 POP JUMP JUMPDEST PUSH1 0x0 DUP3 DUP3 SHL SWAP1 POP SWAP3 SWAP2 POP POP JUMP JUMPDEST PUSH1 0x0 PUSH1 0x8 DUP4 MUL PUSH2 0x2A1D PUSH32 0xFFFFFFFFFFFFFFFFFFFFFFFFFFFFFFFFFFFFFFFFFFFFFFFFFFFFFFFFFFFFFFFF DUP3 PUSH2 0x29E0 JUMP JUMPDEST PUSH2 0x2A27 DUP7 DUP4 PUSH2 0x29E0 JUMP JUMPDEST SWAP6 POP DUP1 NOT DUP5 AND SWAP4 POP DUP1 DUP7 AND DUP5 OR SWAP3 POP POP POP SWAP4 SWAP3 POP POP POP JUMP JUMPDEST PUSH1 0x0 PUSH2 0x2A5A PUSH2 0x2A55 PUSH2 0x2A50 DUP5 PUSH2 0x1F6E JUMP JUMPDEST PUSH2 0x24E3 JUMP JUMPDEST PUSH2 0x1F6E JUMP JUMPDEST SWAP1 POP SWAP2 SWAP1 POP JUMP JUMPDEST PUSH1 0x0 DUP2 SWAP1 POP SWAP2 SWAP1 POP JUMP JUMPDEST PUSH2 0x2A74 DUP4 PUSH2 0x2A3F JUMP JUMPDEST PUSH2 0x2A88 PUSH2 0x2A80 DUP3 PUSH2 0x2A61 JUMP JUMPDEST DUP5 DUP5 SLOAD PUSH2 0x29ED JUMP JUMPDEST DUP3 SSTORE POP POP POP POP JUMP JUMPDEST PUSH1 0x0 SWAP1 JUMP JUMPDEST PUSH2 0x2A9D PUSH2 0x2A90 JUMP JUMPDEST PUSH2 0x2AA8 DUP2 DUP5 DUP5 PUSH2 0x2A6B JUMP JUMPDEST POP POP POP JUMP JUMPDEST JUMPDEST DUP2 DUP2 LT ISZERO PUSH2 0x2ACC JUMPI PUSH2 0x2AC1 PUSH1 0x0 DUP3 PUSH2 0x2A95 JUMP JUMPDEST PUSH1 0x1 DUP2 ADD SWAP1 POP PUSH2 0x2AAE JUMP JUMPDEST POP POP JUMP JUMPDEST PUSH1 0x1F DUP3 GT ISZERO PUSH2 0x2B11 JUMPI PUSH2 0x2AE2 DUP2 PUSH2 0x29BB JUMP JUMPDEST PUSH2 0x2AEB DUP5 PUSH2 0x29D0 JUMP JUMPDEST DUP2 ADD PUSH1 0x20 DUP6 LT ISZERO PUSH2 0x2AFA JUMPI DUP2 SWAP1 POP JUMPDEST PUSH2 0x2B0E PUSH2 0x2B06 DUP6 PUSH2 0x29D0 JUMP JUMPDEST DUP4 ADD DUP3 PUSH2 0x2AAD JUMP JUMPDEST POP POP JUMPDEST POP POP POP JUMP JUMPDEST PUSH1 0x0 DUP3 DUP3 SHR SWAP1 POP SWAP3 SWAP2 POP POP JUMP JUMPDEST PUSH1 0x0 PUSH2 0x2B34 PUSH1 0x0 NOT DUP5 PUSH1 0x8 MUL PUSH2 0x2B16 JUMP JUMPDEST NOT DUP1 DUP4 AND SWAP2 POP POP SWAP3 SWAP2 POP POP JUMP JUMPDEST PUSH1 0x0 PUSH2 0x2B4D DUP4 DUP4 PUSH2 0x2B23 JUMP JUMPDEST SWAP2 POP DUP3 PUSH1 0x2 MUL DUP3 OR SWAP1 POP SWAP3 SWAP2 POP POP JUMP JUMPDEST PUSH2 0x2B66 DUP3 PUSH2 0x2221 JUMP JUMPDEST PUSH8 0xFFFFFFFFFFFFFFFF DUP2 GT ISZERO PUSH2 0x2B7F JUMPI PUSH2 0x2B7E PUSH2 0x1FEC JUMP JUMPDEST JUMPDEST PUSH2 0x2B89 DUP3 SLOAD PUSH2 0x298A JUMP JUMPDEST PUSH2 0x2B94 DUP3 DUP3 DUP6 PUSH2 0x2AD0 JUMP JUMPDEST PUSH1 0x0 PUSH1 0x20 SWAP1 POP PUSH1 0x1F DUP4 GT PUSH1 0x1 DUP2 EQ PUSH2 0x2BC7 JUMPI PUSH1 0x0 DUP5 ISZERO PUSH2 0x2BB5 JUMPI DUP3 DUP8 ADD MLOAD SWAP1 POP JUMPDEST PUSH2 0x2BBF DUP6 DUP3 PUSH2 0x2B41 JUMP JUMPDEST DUP7 SSTORE POP PUSH2 0x2C27 JUMP JUMPDEST PUSH1 0x1F NOT DUP5 AND PUSH2 0x2BD5 DUP7 PUSH2 0x29BB JUMP JUMPDEST PUSH1 0x0 JUMPDEST DUP3 DUP2 LT ISZERO PUSH2 0x2BFD JUMPI DUP5 DUP10 ADD MLOAD DUP3 SSTORE PUSH1 0x1 DUP3 ADD SWAP2 POP PUSH1 0x20 DUP6 ADD SWAP5 POP PUSH1 0x20 DUP2 ADD SWAP1 POP PUSH2 0x2BD8 JUMP JUMPDEST DUP7 DUP4 LT ISZERO PUSH2 0x2C1A JUMPI DUP5 DUP10 ADD MLOAD PUSH2 0x2C16 PUSH1 0x1F DUP10 AND DUP3 PUSH2 0x2B23 JUMP JUMPDEST DUP4 SSTORE POP JUMPDEST PUSH1 0x1 PUSH1 0x2 DUP9 MUL ADD DUP9 SSTORE POP POP POP JUMPDEST POP POP POP POP POP POP JUMP JUMPDEST PUSH1 0x0 PUSH1 0x40 DUP3 ADD SWAP1 POP PUSH2 0x2C44 PUSH1 0x0 DUP4 ADD DUP6 PUSH2 0x21B6 JUMP JUMPDEST DUP2 DUP2 SUB PUSH1 0x20 DUP4 ADD MSTORE PUSH2 0x2C56 DUP2 DUP5 PUSH2 0x2267 JUMP JUMPDEST SWAP1 POP SWAP4 SWAP3 POP POP POP JUMP JUMPDEST PUSH32 0x4F6E6C79206F70656E20676967732063616E2062652063616E63656C6C656400 PUSH1 0x0 DUP3 ADD MSTORE POP JUMP JUMPDEST PUSH1 0x0 PUSH2 0x2C95 PUSH1 0x1F DUP4 PUSH2 0x222C JUMP JUMPDEST SWAP2 POP PUSH2 0x2CA0 DUP3 PUSH2 0x2C5F JUMP JUMPDEST PUSH1 0x20 DUP3 ADD SWAP1 POP SWAP2 SWAP1 POP JUMP JUMPDEST PUSH1 0x0 PUSH1 0x20 DUP3 ADD SWAP1 POP DUP2 DUP2 SUB PUSH1 0x0 DUP4 ADD MSTORE PUSH2 0x2CC4 DUP2 PUSH2 0x2C88 JUMP JUMPDEST SWAP1 POP SWAP2 SWAP1 POP JUMP JUMPDEST PUSH32 0x4F6E6C7920706F737465722063616E2063616E63656C00000000000000000000 PUSH1 0x0 DUP3 ADD MSTORE POP JUMP JUMPDEST PUSH1 0x0 PUSH2 0x2D01 PUSH1 0x16 DUP4 PUSH2 0x222C JUMP JUMPDEST SWAP2 POP PUSH2 0x2D0C DUP3 PUSH2 0x2CCB JUMP JUMPDEST PUSH1 0x20 DUP3 ADD SWAP1 POP SWAP2 SWAP1 POP JUMP JUMPDEST PUSH1 0x0 PUSH1 0x20 DUP3 ADD SWAP1 POP DUP2 DUP2 SUB PUSH1 0x0 DUP4 ADD MSTORE PUSH2 0x2D30 DUP2 PUSH2 0x2CF4 JUMP JUMPDEST SWAP1 POP SWAP2 SWAP1 POP JUMP JUMPDEST PUSH1 0x0 PUSH1 0x40 DUP3 ADD SWAP1 POP PUSH2 0x2D4C PUSH1 0x0 DUP4 ADD DUP6 PUSH2 0x2212 JUMP JUMPDEST PUSH2 0x2D59 PUSH1 0x20 DUP4 ADD DUP5 PUSH2 0x21B6 JUMP JUMPDEST SWAP4 SWAP3 POP POP POP JUMP JUMPDEST PUSH32 0x526566756E64206661696C656400000000000000000000000000000000000000 PUSH1 0x0 DUP3 ADD MSTORE POP JUMP JUMPDEST PUSH1 0x0 PUSH2 0x2D96 PUSH1 0xD DUP4 PUSH2 0x222C JUMP JUMPDEST SWAP2 POP PUSH2 0x2DA1 DUP3 PUSH2 0x2D60 JUMP JUMPDEST PUSH1 0x20 DUP3 ADD SWAP1 POP SWAP2 SWAP1 POP JUMP JUMPDEST PUSH1 0x0 PUSH1 0x20 DUP3 ADD SWAP1 POP DUP2 DUP2 SUB PUSH1 0x0 DUP4 ADD MSTORE PUSH2 0x2DC5 DUP2 PUSH2 0x2D89 JUMP JUMPDEST SWAP1 POP SWAP2 SWAP1 POP JUMP JUMPDEST PUSH32 0x4F6E6C79206F70656E20676967732063616E2065787069726500000000000000 PUSH1 0x0 DUP3 ADD MSTORE POP JUMP JUMPDEST PUSH1 0x0 PUSH2 0x2E02 PUSH1 0x19 DUP4 PUSH2 0x222C JUMP JUMPDEST SWAP2 POP PUSH2 0x2E0D DUP3 PUSH2 0x2DCC JUMP JUMPDEST PUSH1 0x20 DUP3 ADD SWAP1 POP SWAP2 SWAP1 POP JUMP JUMPDEST PUSH1 0x0 PUSH1 0x20 DUP3 ADD SWAP1 POP DUP2 DUP2 SUB PUSH1 0x0 DUP4 ADD MSTORE PUSH2 0x2E31 DUP2 PUSH2 0x2DF5 JUMP JUMPDEST SWAP1 POP SWAP2 SWAP1 POP JUMP JUMPDEST PUSH32 0x446561646C696E65206E6F742072656163686564000000000000000000000000 PUSH1 0x0 DUP3 ADD MSTORE POP JUMP JUMPDEST PUSH1 0x0 PUSH2 0x2E6E PUSH1 0x14 DUP4 PUSH2 0x222C JUMP JUMPDEST SWAP2 POP PUSH2 0x2E79 DUP3 PUSH2 0x2E38 JUMP JUMPDEST PUSH1 0x20 DUP3 ADD SWAP1 POP SWAP2 SWAP1 POP JUMP JUMPDEST PUSH1 0x0 PUSH1 0x20 DUP3 ADD SWAP1 POP DUP2 DUP2 SUB PUSH1 0x0 DUP4 ADD MSTORE PUSH2 0x2E9D DUP2 PUSH2 0x2E61 JUMP JUMPDEST SWAP1 POP SWAP2 SWAP1 POP JUMP JUMPDEST PUSH32 0x476967206E6F74206F70656E0000000000000000000000000000000000000000 PUSH1 0x0 DUP3 ADD MSTORE POP JUMP JUMPDEST PUSH1 0x0 PUSH2 0x2EDA PUSH1 0xC DUP4 PUSH2 0x222C JUMP JUMPDEST SWAP2 POP PUSH2 0x2EE5 DUP3 PUSH2 0x2EA4 JUMP JUMPDEST PUSH1 0x20 DUP3 ADD SWAP1 POP SWAP2 SWAP1 POP JUMP JUMPDEST PUSH1 0x0 PUSH1 0x20 DUP3 ADD SWAP1 POP DUP2 DUP2 SUB PUSH1 0x0 DUP4 ADD MSTORE PUSH2 0x2F09 DUP2 PUSH2 0x2ECD JUMP JUMPDEST SWAP1 POP SWAP2 SWAP1 POP JUMP JUMPDEST PUSH32 0x43616E6E6F7420616363657074206F776E206769670000000000000000000000 PUSH1 0x0 DUP3 ADD MSTORE POP JUMP JUMPDEST PUSH1 0x0 PUSH2 0x2F46 PUSH1 0x15 DUP4 PUSH2 0x222C JUMP JUMPDEST SWAP2 POP PUSH2 0x2F51 DUP3 PUSH2 0x2F10 JUMP JUMPDEST PUSH1 0x20 DUP3 ADD SWAP1 POP SWAP2 SWAP1 POP JUMP JUMPDEST PUSH1 0x0 PUSH1 0x20 DUP3 ADD SWAP1 POP DUP2 DUP2 SUB PUSH1 0x0 DUP4 ADD MSTORE PUSH2 0x2F75 DUP2 PUSH2 0x2F39 JUMP JUMPDEST SWAP1 POP SWAP2 SWAP1 POP JUMP JUMPDEST PUSH32 0x5769746864726177616C206661696C6564000000000000000000000000000000 PUSH1 0x0 DUP3 ADD MSTORE POP JUMP JUMPDEST PUSH1 0x0 PUSH2 0x2FB2 PUSH1 0x11 DUP4 PUSH2 0x222C JUMP JUMPDEST SWAP2 POP PUSH2 0x2FBD DUP3 PUSH2 0x2F7C JUMP JUMPDEST PUSH1 0x20 DUP3 ADD SWAP1 POP SWAP2 SWAP1 POP JUMP JUMPDEST PUSH1 0x0 PUSH1 0x20 DUP3 ADD SWAP1 POP DUP2 DUP2 SUB PUSH1 0x0 DUP4 ADD MSTORE PUSH2 0x2FE1 DUP2 PUSH2 0x2FA5 JUMP JUMPDEST SWAP1 POP SWAP2 SWAP1 POP JUMP JUMPDEST PUSH32 0x476967206E6F7420646973707574656400000000000000000000000000000000 PUSH1 0x0 DUP3 ADD MSTORE POP JUMP JUMPDEST PUSH1 0x0 PUSH2 0x301E PUSH1 0x10 DUP4 PUSH2 0x222C JUMP JUMPDEST SWAP2 POP PUSH2 0x3029 DUP3 PUSH2 0x2FE8 JUMP JUMPDEST PUSH1 0x20 DUP3 ADD SWAP1 POP SWAP2 SWAP1 POP JUMP JUMPDEST PUSH1 0x0 PUSH1 0x20 DUP3 ADD SWAP1 POP DUP2 DUP2 SUB PUSH1 0x0 DUP4 ADD MSTORE PUSH2 0x304D DUP2 PUSH2 0x3011 JUMP JUMPDEST SWAP1 POP SWAP2 SWAP1 POP JUMP JUMPDEST PUSH32 0x496E76616C69642070657263656E746167650000000000000000000000000000 PUSH1 0x0 DUP3 ADD MSTORE POP JUMP JUMPDEST PUSH1 0x0 PUSH2 0x308A PUSH1 0x12 DUP4 PUSH2 0x222C JUMP JUMPDEST SWAP2 POP PUSH2 0x3095 DUP3 PUSH2 0x3054 JUMP JUMPDEST PUSH1 0x20 DUP3 ADD SWAP1 POP SWAP2 SWAP1 POP JUMP JUMPDEST PUSH1 0x0 PUSH1 0x20 DUP3 ADD SWAP1 POP DUP2 DUP2 SUB PUSH1 0x0 DUP4 ADD MSTORE PUSH2 0x30B9 DUP2 PUSH2 0x307D JUMP JUMPDEST SWAP1 POP SWAP2 SWAP1 POP JUMP JUMPDEST PUSH32 0x4E487B7100000000000000000000000000000000000000000000000000000000 PUSH1 0x0 MSTORE PUSH1 0x12 PUSH1 0x4 MSTORE PUSH1 0x24 PUSH1 0x0 REVERT JUMPDEST PUSH1 0x0 PUSH2 0x30FA DUP3 PUSH2 0x1F6E JUMP JUMPDEST SWAP2 POP PUSH2 0x3105 DUP4 PUSH2 0x1F6E JUMP JUMPDEST SWAP3 POP DUP3 PUSH2 0x3115 JUMPI PUSH2 0x3114 PUSH2 0x30C0 JUMP JUMPDEST JUMPDEST DUP3 DUP3 DIV SWAP1 POP SWAP3 SWAP2 POP POP JUMP JUMPDEST PUSH1 0x0 PUSH2 0x312B DUP3 PUSH2 0x1F6E JUMP JUMPDEST SWAP2 POP PUSH2 0x3136 DUP4 PUSH2 0x1F6E JUMP JUMPDEST SWAP3 POP DUP3 DUP3 SUB SWAP1 POP DUP2 DUP2 GT ISZERO PUSH2 0x314E JUMPI PUSH2 0x314D PUSH2 0x286E JUMP JUMPDEST JUMPDEST SWAP3 SWAP2 POP POP JUMP JUMPDEST PUSH32 0x506F7374657220726566756E64206661696C6564000000000000000000000000 PUSH1 0x0 DUP3 ADD MSTORE POP JUMP JUMPDEST PUSH1 0x0 PUSH2 0x318A PUSH1 0x14 DUP4 PUSH2 0x222C JUMP JUMPDEST SWAP2 POP PUSH2 0x3195 DUP3 PUSH2 0x3154 JUMP JUMPDEST PUSH1 0x20 DUP3 ADD SWAP1 POP SWAP2 SWAP1 POP JUMP JUMPDEST PUSH1 0x0 PUSH1 0x20 DUP3 ADD SWAP1 POP DUP2 DUP2 SUB PUSH1 0x0 DUP4 ADD MSTORE PUSH2 0x31B9 DUP2 PUSH2 0x317D JUMP JUMPDEST SWAP1 POP SWAP2 SWAP1 POP JUMP JUMPDEST PUSH32 0x576F726B6572207061796F7574206661696C6564000000000000000000000000 PUSH1 0x0 DUP3 ADD MSTORE POP JUMP JUMPDEST PUSH1 0x0 PUSH2 0x31F6 PUSH1 0x14 DUP4 PUSH2 0x222C JUMP JUMPDEST SWAP2 POP PUSH2 0x3201 DUP3 PUSH2 0x31C0 JUMP JUMPDEST PUSH1 0x20 DUP3 ADD SWAP1 POP SWAP2 SWAP1 POP JUMP JUMPDEST PUSH1 0x0 PUSH1 0x20 DUP3 ADD SWAP1 POP DUP2 DUP2 SUB PUSH1 0x0 DUP4 ADD MSTORE PUSH2 0x3225 DUP2 PUSH2 0x31E9 JUMP JUMPDEST SWAP1 POP SWAP2 SWAP1 POP JUMP JUMPDEST PUSH32 0x576F726B206E6F74207375626D69747465640000000000000000000000000000 PUSH1 0x0 DUP3 ADD MSTORE POP JUMP JUMPDEST PUSH1 0x0 PUSH2 0x3262 PUSH1 0x12 DUP4 PUSH2 0x222C JUMP JUMPDEST SWAP2 POP PUSH2 0x326D DUP3 PUSH2 0x322C JUMP JUMPDEST PUSH1 0x20 DUP3 ADD SWAP1 POP SWAP2 SWAP1 POP JUMP JUMPDEST PUSH1 0x0 PUSH1 0x20 DUP3 ADD SWAP1 POP DUP2 DUP2 SUB PUSH1 0x0 DUP4 ADD MSTORE PUSH2 0x3291 DUP2 PUSH2 0x3255 JUMP JUMPDEST SWAP1 POP SWAP2 SWAP1 POP JUMP JUMPDEST PUSH32 0x4F6E6C7920706F737465722063616E2072656C656173652066756E6473000000 PUSH1 0x0 DUP3 ADD MSTORE POP JUMP JUMPDEST PUSH1 0x0 PUSH2 0x32CE PUSH1 0x1D DUP4 PUSH2 0x222C JUMP JUMPDEST SWAP2 POP PUSH2 0x32D9 DUP3 PUSH2 0x3298 JUMP JUMPDEST PUSH1 0x20 DUP3 ADD SWAP1 POP SWAP2 SWAP1 POP JUMP JUMPDEST PUSH1 0x0 PUSH1 0x20 DUP3 ADD SWAP1 POP DUP2 DUP2 SUB PUSH1 0x0 DUP4 ADD MSTORE PUSH2 0x32FD DUP2 PUSH2 0x32C1 JUMP JUMPDEST SWAP1 POP SWAP2 SWAP1 POP JUMP JUMPDEST PUSH32 0x5061796F7574206661696C656400000000000000000000000000000000000000 PUSH1 0x0 DUP3 ADD MSTORE POP JUMP JUMPDEST PUSH1 0x0 PUSH2 0x333A PUSH1 0xD DUP4 PUSH2 0x222C JUMP JUMPDEST SWAP2 POP PUSH2 0x3345 DUP3 PUSH2 0x3304 JUMP JUMPDEST PUSH1 0x20 DUP3 ADD SWAP1 POP SWAP2 SWAP1 POP JUMP JUMPDEST PUSH1 0x0 PUSH1 0x20 DUP3 ADD SWAP1 POP DUP2 DUP2 SUB PUSH1 0x0 DUP4 ADD MSTORE PUSH2 0x3369 DUP2 PUSH2 0x332D JUMP JUMPDEST SWAP1 POP SWAP2 SWAP1 POP JUMP JUMPDEST PUSH32 0x476967206E6F7420696E2070726F677265737300000000000000000000000000 PUSH1 0x0 DUP3 ADD MSTORE POP JUMP JUMPDEST PUSH1 0x0 PUSH2 0x33A6 PUSH1 0x13 DUP4 PUSH2 0x222C JUMP JUMPDEST SWAP2 POP PUSH2 0x33B1 DUP3 PUSH2 0x3370 JUMP JUMPDEST PUSH1 0x20 DUP3 ADD SWAP1 POP SWAP2 SWAP1 POP JUMP JUMPDEST PUSH1 0x0 PUSH1 0x20 DUP3 ADD SWAP1 POP DUP2 DUP2 SUB PUSH1 0x0 DUP4 ADD MSTORE PUSH2 0x33D5 DUP2 PUSH2 0x3399 JUMP JUMPDEST SWAP1 POP SWAP2 SWAP1 POP JUMP JUMPDEST PUSH32 0x4F6E6C7920776F726B65722063616E207375626D697400000000000000000000 PUSH1 0x0 DUP3 ADD MSTORE POP JUMP JUMPDEST PUSH1 0x0 PUSH2 0x3412 PUSH1 0x16 DUP4 PUSH2 0x222C JUMP JUMPDEST SWAP2 POP PUSH2 0x341D DUP3 PUSH2 0x33DC JUMP JUMPDEST PUSH1 0x20 DUP3 ADD SWAP1 POP SWAP2 SWAP1 POP JUMP JUMPDEST PUSH1 0x0 PUSH1 0x20 DUP3 ADD SWAP1 POP DUP2 DUP2 SUB PUSH1 0x0 DUP4 ADD MSTORE PUSH2 0x3441 DUP2 PUSH2 0x3405 JUMP JUMPDEST SWAP1 POP SWAP2 SWAP1 POP JUMP JUMPDEST PUSH1 0x0 DUP3 SWAP1 POP SWAP3 SWAP2 POP POP JUMP JUMPDEST PUSH2 0x345D DUP4 DUP4 PUSH2 0x3448 JUMP JUMPDEST PUSH8 0xFFFFFFFFFFFFFFFF DUP2 GT ISZERO PUSH2 0x3476 JUMPI PUSH2 0x3475 PUSH2 0x1FEC JUMP JUMPDEST JUMPDEST PUSH2 0x3480 DUP3 SLOAD PUSH2 0x298A JUMP JUMPDEST PUSH2 0x348B DUP3 DUP3 DUP6 PUSH2 0x2AD0 JUMP JUMPDEST PUSH1 0x0 PUSH1 0x1F DUP4 GT PUSH1 0x1 DUP2 EQ PUSH2 0x34BA JUMPI PUSH1 0x0 DUP5 ISZERO PUSH2 0x34A8 JUMPI DUP3 DUP8 ADD CALLDATALOAD SWAP1 POP JUMPDEST PUSH2 0x34B2 DUP6 DUP3 PUSH2 0x2B41 JUMP JUMPDEST DUP7 SSTORE POP PUSH2 0x351A JUMP JUMPDEST PUSH1 0x1F NOT DUP5 AND PUSH2 0x34C8 DUP7 PUSH2 0x29BB JUMP JUMPDEST PUSH1 0x0 JUMPDEST DUP3 DUP2 LT ISZERO PUSH2 0x34F0 JUMPI DUP5 DUP10 ADD CALLDATALOAD DUP3 SSTORE PUSH1 0x1 DUP3 ADD SWAP2 POP PUSH1 0x20 DUP6 ADD SWAP5 POP PUSH1 0x20 DUP2 ADD SWAP1 POP PUSH2 0x34CB JUMP JUMPDEST DUP7 DUP4 LT ISZERO PUSH2 0x350D JUMPI DUP5 DUP10 ADD CALLDATALOAD PUSH2 0x3509 PUSH1 0x1F DUP10 AND DUP3 PUSH2 0x2B23 JUMP JUMPDEST DUP4 SSTORE POP JUMPDEST PUSH1 0x1 PUSH1 0x2 DUP9 MUL ADD DUP9 SSTORE POP POP POP JUMPDEST POP POP POP POP POP POP POP JUMP JUMPDEST PUSH1 0x0 PUSH2 0x352F DUP4 DUP6 PUSH2 0x222C JUMP JUMPDEST SWAP4 POP PUSH2 0x353C DUP4 DUP6 DUP5 PUSH2 0x2098 JUMP JUMPDEST PUSH2 0x3545 DUP4 PUSH2 0x1FDB JUMP JUMPDEST DUP5 ADD SWAP1 POP SWAP4 SWAP3 POP POP POP JUMP JUMPDEST PUSH1 0x0 PUSH1 0x20 DUP3 ADD SWAP1 POP DUP2 DUP2 SUB PUSH1 0x0 DUP4 ADD MSTORE PUSH2 0x356B DUP2 DUP5 DUP7 PUSH2 0x3523 JUMP JUMPDEST SWAP1 POP SWAP4 SWAP3 POP POP POP JUMP INVALID LOG2 PUSH5 0x6970667358 0x22 SLT KECCAK256 SWAP8 0xBC RETURN 0xE9 SWAP8 PUSH5 0x31AB6A463D GT REVERT 0x4A PUSH9 0x69B0F645BE3CDAAC3F 0xD1 0xB7 OR 0xE4 PUSH10 0xFA480C64736F6C634300 ADDMOD EQ STOP CALLER "},"methodIdentifiers":{"acceptGig(uint256)":"578114dc","cancelGig(uint256)":"4bca9a88","completeGig(uint256)":"d1846924","disputeGig(uint256)":"16c3db58","expireGig(uint256)":"537ac9f2","gigCount()":"3689e916","gigs(uint256)":"5e3fbdc8","owner()":"8da5cb5b","platformFeeBps()":"22dcd13e","postGig(string,string,uint256,uint256)":"1906077d","renounceOwnership()":"715018a6","resolveDispute(uint256,uint256)":"bdc84ac3","setPlatformFee(uint256)":"12e8e2c3","stablecoin()":"e9cbd822","submitWork(uint256,string)":"da8accf9","transferOwnership(address)":"f2fde38b","withdrawFees(uint256)":"5e318e07"}}}}}