{
  "_format": "hh-sol-artifact-1",
  "contractName": "MiniGigs",
  "sourceName": "contracts/MiniGigs.sol",
  "abi": [
    {
      "inputs": [
        {
          "internalType": "address",
          "name": "_stablecoin",
          "type": "address"
        }
      ],
      "stateMutability": "nonpayable",
      "type": "constructor"
    },
    {
      "inputs": [
        {
          "internalType": "address",
          "name": "owner",
          "type": "address"
        }
      ],
      "name": "OwnableInvalidOwner",
      "type": "error"
    },
    {
      "inputs": [
        {
          "internalType": "address",
          "name": "account",
          "type": "address"
        }
      ],
      "name": "OwnableUnauthorizedAccount",
      "type": "error"
    },
    {
      "inputs": [],
      "name": "ReentrancyGuardReentrantCall",
      "type": "error"
    },
    {
      "anonymous": false,
      "inputs": [
        {
          "indexed": true,
          "internalType": "uint256",
          "name": "id",
          "type": "uint256"
        },
        {
          "indexed": true,
          "internalType": "address",
          "name": "worker",
          "type": "address"
        }
      ],
      "name": "GigAccepted",
      "type": "event"
    },
    {
      "anonymous": false,
      "inputs": [
        {
          "indexed": true,
          "internalType": "uint256",
          "name": "id",
          "type": "uint256"
        }
      ],
      "name": "GigCancelled",
      "type": "event"
    },
    {
      "anonymous": false,
      "inputs": [
        {
          "indexed": true,
          "internalType": "uint256",
          "name": "id",
          "type": "uint256"
        },
        {
          "indexed": true,
          "internalType": "address",
          "name": "worker",
          "type": "address"
        },
        {
          "indexed": false,
          "internalType": "uint256",
          "name": "payout",
          "type": "uint256"
        }
      ],
      "name": "GigCompleted",
      "type": "event"
    },
    {
      "anonymous": false,
      "inputs": [
        {
          "indexed": true,
          "internalType": "uint256",
          "name": "id",
          "type": "uint256"
        }
      ],
      "name": "GigDisputed",
      "type": "event"
    },
    {
      "anonymous": false,
      "inputs": [
        {
          "indexed": true,
          "internalType": "uint256",
          "name": "id",
          "type": "uint256"
        },
        {
          "indexed": true,
          "internalType": "address",
          "name": "poster",
          "type": "address"
        },
        {
          "indexed": false,
          "internalType": "uint256",
          "name": "bounty",
          "type": "uint256"
        },
        {
          "indexed": false,
          "internalType": "string",
          "name": "title",
          "type": "string"
        }
      ],
      "name": "GigPosted",
      "type": "event"
    },
    {
      "anonymous": false,
      "inputs": [
        {
          "indexed": true,
          "internalType": "uint256",
          "name": "id",
          "type": "uint256"
        },
        {
          "indexed": false,
          "internalType": "string",
          "name": "deliverables",
          "type": "string"
        }
      ],
      "name": "GigSubmitted",
      "type": "event"
    },
    {
      "anonymous": false,
      "inputs": [
        {
          "indexed": true,
          "internalType": "address",
          "name": "previousOwner",
          "type": "address"
        },
        {
          "indexed": true,
          "internalType": "address",
          "name": "newOwner",
          "type": "address"
        }
      ],
      "name": "OwnershipTransferred",
      "type": "event"
    },
    {
      "inputs": [
        {
          "internalType": "uint256",
          "name": "_id",
          "type": "uint256"
        }
      ],
      "name": "acceptGig",
      "outputs": [],
      "stateMutability": "nonpayable",
      "type": "function"
    },
    {
      "inputs": [
        {
          "internalType": "uint256",
          "name": "_id",
          "type": "uint256"
        }
      ],
      "name": "cancelGig",
      "outputs": [],
      "stateMutability": "nonpayable",
      "type": "function"
    },
    {
      "inputs": [
        {
          "internalType": "uint256",
          "name": "_id",
          "type": "uint256"
        }
      ],
      "name": "completeGig",
      "outputs": [],
      "stateMutability": "nonpayable",
      "type": "function"
    },
    {
      "inputs": [],
      "name": "gigCount",
      "outputs": [
        {
          "internalType": "uint256",
          "name": "",
          "type": "uint256"
        }
      ],
      "stateMutability": "view",
      "type": "function"
    },
    {
      "inputs": [
        {
          "internalType": "uint256",
          "name": "",
          "type": "uint256"
        }
      ],
      "name": "gigs",
      "outputs": [
        {
          "internalType": "uint256",
          "name": "id",
          "type": "uint256"
        },
        {
          "internalType": "address",
          "name": "poster",
          "type": "address"
        },
        {
          "internalType": "address",
          "name": "worker",
          "type": "address"
        },
        {
          "internalType": "uint256",
          "name": "bounty",
          "type": "uint256"
        },
        {
          "internalType": "string",
          "name": "title",
          "type": "string"
        },
        {
          "internalType": "string",
          "name": "description",
          "type": "string"
        },
        {
          "internalType": "enum MiniGigs.GigStatus",
          "name": "status",
          "type": "uint8"
        },
        {
          "internalType": "string",
          "name": "deliverables",
          "type": "string"
        },
        {
          "internalType": "uint256",
          "name": "createdAt",
          "type": "uint256"
        },
        {
          "internalType": "uint256",
          "name": "deadline",
          "type": "uint256"
        }
      ],
      "stateMutability": "view",
      "type": "function"
    },
    {
      "inputs": [],
      "name": "owner",
      "outputs": [
        {
          "internalType": "address",
          "name": "",
          "type": "address"
        }
      ],
      "stateMutability": "view",
      "type": "function"
    },
    {
      "inputs": [],
      "name": "platformFeeBps",
      "outputs": [
        {
          "internalType": "uint256",
          "name": "",
          "type": "uint256"
        }
      ],
      "stateMutability": "view",
      "type": "function"
    },
    {
      "inputs": [
        {
          "internalType": "string",
          "name": "_title",
          "type": "string"
        },
        {
          "internalType": "string",
          "name": "_description",
          "type": "string"
        },
        {
          "internalType": "uint256",
          "name": "_bounty",
          "type": "uint256"
        },
        {
          "internalType": "uint256",
          "name": "_durationDays",
          "type": "uint256"
        }
      ],
      "name": "postGig",
      "outputs": [],
      "stateMutability": "nonpayable",
      "type": "function"
    },
    {
      "inputs": [],
      "name": "renounceOwnership",
      "outputs": [],
      "stateMutability": "nonpayable",
      "type": "function"
    },
    {
      "inputs": [
        {
          "internalType": "uint256",
          "name": "_bps",
          "type": "uint256"
        }
      ],
      "name": "setPlatformFee",
      "outputs": [],
      "stateMutability": "nonpayable",
      "type": "function"
    },
    {
      "inputs": [],
      "name": "stablecoin",
      "outputs": [
        {
          "internalType": "contract IERC20",
          "name": "",
          "type": "address"
        }
      ],
      "stateMutability": "view",
      "type": "function"
    },
    {
      "inputs": [
        {
          "internalType": "uint256",
          "name": "_id",
          "type": "uint256"
        },
        {
          "internalType": "string",
          "name": "_deliverables",
          "type": "string"
        }
      ],
      "name": "submitWork",
      "outputs": [],
      "stateMutability": "nonpayable",
      "type": "function"
    },
    {
      "inputs": [
        {
          "internalType": "address",
          "name": "newOwner",
          "type": "address"
        }
      ],
      "name": "transferOwnership",
      "outputs": [],
      "stateMutability": "nonpayable",
      "type": "function"
    },
    {
      "inputs": [
        {
          "internalType": "uint256",
          "name": "_amount",
          "type": "uint256"
        }
      ],
      "name": "withdrawFees",
      "outputs": [],
      "stateMutability": "nonpayable",
      "type": "function"
    }
  ],
  "bytecode": "0x608060405260c86004553480156200001657600080fd5b5060405162002b7238038062002b7283398181016040528101906200003c919062000298565b33600073ffffffffffffffffffffffffffffffffffffffff168173ffffffffffffffffffffffffffffffffffffffff1603620000b25760006040517f1e4fbdf7000000000000000000000000000000000000000000000000000000008152600401620000a99190620002db565b60405180910390fd5b620000c3816200013560201b60201c565b506001620000e6620000da620001f960201b60201c565b6200022460201b60201c565b6000018190555080600160006101000a81548173ffffffffffffffffffffffffffffffffffffffff021916908373ffffffffffffffffffffffffffffffffffffffff16021790555050620002f8565b60008060009054906101000a900473ffffffffffffffffffffffffffffffffffffffff169050816000806101000a81548173ffffffffffffffffffffffffffffffffffffffff021916908373ffffffffffffffffffffffffffffffffffffffff1602179055508173ffffffffffffffffffffffffffffffffffffffff168173ffffffffffffffffffffffffffffffffffffffff167f8be0079c531659141344cd1fd0a4f28419497f9722a3daafe3b4186f6b6457e060405160405180910390a35050565b60007f9b779b17422d0df92223018b32b4d1fa46e071723d6817e2486d003becc55f0060001b905090565b6000819050919050565b600080fd5b600073ffffffffffffffffffffffffffffffffffffffff82169050919050565b6000620002608262000233565b9050919050565b620002728162000253565b81146200027e57600080fd5b50565b600081519050620002928162000267565b92915050565b600060208284031215620002b157620002b06200022e565b5b6000620002c18482850162000281565b91505092915050565b620002d58162000253565b82525050565b6000602082019050620002f26000830184620002ca565b92915050565b61286a80620003086000396000f3fe608060405234801561001057600080fd5b50600436106100ea5760003560e01c80635e3fbdc81161008c578063d184692411610066578063d184692414610218578063da8accf914610234578063e9cbd82214610250578063f2fde38b1461026e576100ea565b80635e3fbdc8146101b7578063715018a6146101f05780638da5cb5b146101fa576100ea565b80633689e916116100c85780633689e916146101455780634bca9a8814610163578063578114dc1461017f5780635e318e071461019b576100ea565b806312e8e2c3146100ef5780631906077d1461010b57806322dcd13e14610127575b600080fd5b61010960048036038101906101049190611604565b61028a565b005b61012560048036038101906101209190611777565b6102e1565b005b61012f610678565b60405161013c9190611825565b60405180910390f35b61014d61067e565b60405161015a9190611825565b60405180910390f35b61017d60048036038101906101789190611604565b610684565b005b61019960048036038101906101949190611604565b6108f6565b005b6101b560048036038101906101b09190611604565b610acf565b005b6101d160048036038101906101cc9190611604565b610bc0565b6040516101e79a99989796959493929190611977565b60405180910390f35b6101f8610df9565b005b610202610e0d565b60405161020f9190611a28565b60405180910390f35b610232600480360381019061022d9190611604565b610e36565b005b61024e60048036038101906102499190611aa3565b611147565b005b6102586112e9565b6040516102659190611b62565b60405180910390f35b61028860048036038101906102839190611ba9565b61130f565b005b610292611395565b6103e88111156102d7576040517f08c379a00000000000000000000000000000000000000000000000000000000081526004016102ce90611c22565b60405180910390fd5b8060048190555050565b6102e961141c565b6000821161032c576040517f08c379a000000000000000000000000000000000000000000000000000000000815260040161032390611c8e565b60405180910390fd5b600160009054906101000a900473ffffffffffffffffffffffffffffffffffffffff1673ffffffffffffffffffffffffffffffffffffffff166323b872dd3330856040518463ffffffff1660e01b815260040161038b93929190611cae565b6020604051808303816000875af11580156103aa573d6000803e3d6000fd5b505050506040513d601f19601f820116820180604052508101906103ce9190611d1d565b61040d576040517f08c379a000000000000000000000000000000000000000000000000000000000815260040161040490611d96565b60405180910390fd5b6002600081548092919061042090611de5565b919050555060405180610140016040528060025481526020013373ffffffffffffffffffffffffffffffffffffffff168152602001600073ffffffffffffffffffffffffffffffffffffffff1681526020018381526020018581526020018481526020016000600581111561049857610497611900565b5b815260200160405180602001604052806000815250815260200142815260200162015180836104c79190611e2d565b426104d29190611e6f565b8152506003600060025481526020019081526020016000206000820151816000015560208201518160010160006101000a81548173ffffffffffffffffffffffffffffffffffffffff021916908373ffffffffffffffffffffffffffffffffffffffff16021790555060408201518160020160006101000a81548173ffffffffffffffffffffffffffffffffffffffff021916908373ffffffffffffffffffffffffffffffffffffffff1602179055506060820151816003015560808201518160040190816105a191906120a5565b5060a08201518160050190816105b791906120a5565b5060c08201518160060160006101000a81548160ff021916908360058111156105e3576105e2611900565b5b021790555060e08201518160070190816105fd91906120a5565b50610100820151816008015561012082015181600901559050503373ffffffffffffffffffffffffffffffffffffffff166002547fd331dcf16ef7b1384947638c2e2b40bbde08aac9316b0ff35a593a3312fd73f78487604051610662929190612177565b60405180910390a361067261143f565b50505050565b60045481565b60025481565b61068c61141c565b6000600360008381526020019081526020016000209050600060058111156106b7576106b6611900565b5b8160060160009054906101000a900460ff1660058111156106db576106da611900565b5b1461071b576040517f08c379a0000000000000000000000000000000000000000000000000000000008152600401610712906121f3565b60405180910390fd5b3373ffffffffffffffffffffffffffffffffffffffff168160010160009054906101000a900473ffffffffffffffffffffffffffffffffffffffff1673ffffffffffffffffffffffffffffffffffffffff16146107ad576040517f08c379a00000000000000000000000000000000000000000000000000000000081526004016107a49061225f565b60405180910390fd5b60058160060160006101000a81548160ff021916908360058111156107d5576107d4611900565b5b0217905550600160009054906101000a900473ffffffffffffffffffffffffffffffffffffffff1673ffffffffffffffffffffffffffffffffffffffff1663a9059cbb3383600301546040518363ffffffff1660e01b815260040161083b92919061227f565b6020604051808303816000875af115801561085a573d6000803e3d6000fd5b505050506040513d601f19601f8201168201806040525081019061087e9190611d1d565b6108bd576040517f08c379a00000000000000000000000000000000000000000000000000000000081526004016108b4906122f4565b60405180910390fd5b817fed32a7868dd1701d125217f8867209cbb1c23f3cd6d044309a73d56b6c64702460405160405180910390a2506108f361143f565b50565b60006003600083815260200190815260200160002090506000600581111561092157610920611900565b5b8160060160009054906101000a900460ff16600581111561094557610944611900565b5b14610985576040517f08c379a000000000000000000000000000000000000000000000000000000000815260040161097c90612360565b60405180910390fd5b3373ffffffffffffffffffffffffffffffffffffffff168160010160009054906101000a900473ffffffffffffffffffffffffffffffffffffffff1673ffffffffffffffffffffffffffffffffffffffff1603610a17576040517f08c379a0000000000000000000000000000000000000000000000000000000008152600401610a0e906123cc565b60405180910390fd5b338160020160006101000a81548173ffffffffffffffffffffffffffffffffffffffff021916908373ffffffffffffffffffffffffffffffffffffffff16021790555060018160060160006101000a81548160ff02191690836005811115610a8257610a81611900565b5b02179055503373ffffffffffffffffffffffffffffffffffffffff16827f09b76c4f0db4065083154bf90f0cf7494e5ff4cf89ec212fbabac151b7e7476f60405160405180910390a35050565b610ad7611395565b600160009054906101000a900473ffffffffffffffffffffffffffffffffffffffff1673ffffffffffffffffffffffffffffffffffffffff1663a9059cbb610b1d610e0d565b836040518363ffffffff1660e01b8152600401610b3b92919061227f565b6020604051808303816000875af1158015610b5a573d6000803e3d6000fd5b505050506040513d601f19601f82011682018060405250810190610b7e9190611d1d565b610bbd576040517f08c379a0000000000000000000000000000000000000000000000000000000008152600401610bb490612438565b60405180910390fd5b50565b60036020528060005260406000206000915090508060000154908060010160009054906101000a900473ffffffffffffffffffffffffffffffffffffffff16908060020160009054906101000a900473ffffffffffffffffffffffffffffffffffffffff1690806003015490806004018054610c3b90611ed2565b80601f0160208091040260200160405190810160405280929190818152602001828054610c6790611ed2565b8015610cb45780601f10610c8957610100808354040283529160200191610cb4565b820191906000526020600020905b815481529060010190602001808311610c9757829003601f168201915b505050505090806005018054610cc990611ed2565b80601f0160208091040260200160405190810160405280929190818152602001828054610cf590611ed2565b8015610d425780601f10610d1757610100808354040283529160200191610d42565b820191906000526020600020905b815481529060010190602001808311610d2557829003601f168201915b5050505050908060060160009054906101000a900460ff1690806007018054610d6a90611ed2565b80601f0160208091040260200160405190810160405280929190818152602001828054610d9690611ed2565b8015610de35780601f10610db857610100808354040283529160200191610de3565b820191906000526020600020905b815481529060010190602001808311610dc657829003601f168201915b505050505090806008015490806009015490508a565b610e01611395565b610e0b600061145a565b565b60008060009054906101000a900473ffffffffffffffffffffffffffffffffffffffff16905090565b610e3e61141c565b600060036000838152602001908152602001600020905060026005811115610e6957610e68611900565b5b8160060160009054906101000a900460ff166005811115610e8d57610e8c611900565b5b14610ecd576040517f08c379a0000000000000000000000000000000000000000000000000000000008152600401610ec4906124a4565b60405180910390fd5b3373ffffffffffffffffffffffffffffffffffffffff168160010160009054906101000a900473ffffffffffffffffffffffffffffffffffffffff1673ffffffffffffffffffffffffffffffffffffffff1614610f5f576040517f08c379a0000000000000000000000000000000000000000000000000000000008152600401610f5690612510565b60405180910390fd5b60038160060160006101000a81548160ff02191690836005811115610f8757610f86611900565b5b021790555060006127106004548360030154610fa39190611e2d565b610fad919061255f565b90506000818360030154610fc19190612590565b9050600160009054906101000a900473ffffffffffffffffffffffffffffffffffffffff1673ffffffffffffffffffffffffffffffffffffffff1663a9059cbb8460020160009054906101000a900473ffffffffffffffffffffffffffffffffffffffff16836040518363ffffffff1660e01b815260040161104492919061227f565b6020604051808303816000875af1158015611063573d6000803e3d6000fd5b505050506040513d601f19601f820116820180604052508101906110879190611d1d565b6110c6576040517f08c379a00000000000000000000000000000000000000000000000000000000081526004016110bd90612610565b60405180910390fd5b8260020160009054906101000a900473ffffffffffffffffffffffffffffffffffffffff1673ffffffffffffffffffffffffffffffffffffffff16847fc18d04a87a0fc9c856e638f80f3f7ebf6fc4daed6b2f4330ef7cb7ab502e68a9836040516111319190611825565b60405180910390a350505061114461143f565b50565b60006003600085815260200190815260200160002090506001600581111561117257611171611900565b5b8160060160009054906101000a900460ff16600581111561119657611195611900565b5b146111d6576040517f08c379a00000000000000000000000000000000000000000000000000000000081526004016111cd9061267c565b60405180910390fd5b3373ffffffffffffffffffffffffffffffffffffffff168160020160009054906101000a900473ffffffffffffffffffffffffffffffffffffffff1673ffffffffffffffffffffffffffffffffffffffff1614611268576040517f08c379a000000000000000000000000000000000000000000000000000000000815260040161125f906126e8565b60405180910390fd5b828282600701918261127b929190612713565b5060028160060160006101000a81548160ff021916908360058111156112a4576112a3611900565b5b0217905550837ffab7721b3f6f67b6c539522ace860c6ad664a6c3248123d2c3c099d0cc40c0b384846040516112db929190612810565b60405180910390a250505050565b600160009054906101000a900473ffffffffffffffffffffffffffffffffffffffff1681565b611317611395565b600073ffffffffffffffffffffffffffffffffffffffff168173ffffffffffffffffffffffffffffffffffffffff16036113895760006040517f1e4fbdf70000000000000000000000000000000000000000000000000000000081526004016113809190611a28565b60405180910390fd5b6113928161145a565b50565b61139d61151e565b73ffffffffffffffffffffffffffffffffffffffff166113bb610e0d565b73ffffffffffffffffffffffffffffffffffffffff161461141a576113de61151e565b6040517f118cdaa70000000000000000000000000000000000000000000000000000000081526004016114119190611a28565b60405180910390fd5b565b611424611526565b6002611436611431611567565b611592565b60000181905550565b600161145161144c611567565b611592565b60000181905550565b60008060009054906101000a900473ffffffffffffffffffffffffffffffffffffffff169050816000806101000a81548173ffffffffffffffffffffffffffffffffffffffff021916908373ffffffffffffffffffffffffffffffffffffffff1602179055508173ffffffffffffffffffffffffffffffffffffffff168173ffffffffffffffffffffffffffffffffffffffff167f8be0079c531659141344cd1fd0a4f28419497f9722a3daafe3b4186f6b6457e060405160405180910390a35050565b600033905090565b61152e61159c565b15611565576040517f3ee5aeb500000000000000000000000000000000000000000000000000000000815260040160405180910390fd5b565b60007f9b779b17422d0df92223018b32b4d1fa46e071723d6817e2486d003becc55f0060001b905090565b6000819050919050565b600060026115b06115ab611567565b611592565b6000015414905090565b6000604051905090565b600080fd5b600080fd5b6000819050919050565b6115e1816115ce565b81146115ec57600080fd5b50565b6000813590506115fe816115d8565b92915050565b60006020828403121561161a576116196115c4565b5b6000611628848285016115ef565b91505092915050565b600080fd5b600080fd5b6000601f19601f8301169050919050565b7f4e487b7100000000000000000000000000000000000000000000000000000000600052604160045260246000fd5b6116848261163b565b810181811067ffffffffffffffff821117156116a3576116a261164c565b5b80604052505050565b60006116b66115ba565b90506116c2828261167b565b919050565b600067ffffffffffffffff8211156116e2576116e161164c565b5b6116eb8261163b565b9050602081019050919050565b82818337600083830152505050565b600061171a611715846116c7565b6116ac565b90508281526020810184848401111561173657611735611636565b5b6117418482856116f8565b509392505050565b600082601f83011261175e5761175d611631565b5b813561176e848260208601611707565b91505092915050565b60008060008060808587031215611791576117906115c4565b5b600085013567ffffffffffffffff8111156117af576117ae6115c9565b5b6117bb87828801611749565b945050602085013567ffffffffffffffff8111156117dc576117db6115c9565b5b6117e887828801611749565b93505060406117f9878288016115ef565b925050606061180a878288016115ef565b91505092959194509250565b61181f816115ce565b82525050565b600060208201905061183a6000830184611816565b92915050565b600073ffffffffffffffffffffffffffffffffffffffff82169050919050565b600061186b82611840565b9050919050565b61187b81611860565b82525050565b600081519050919050565b600082825260208201905092915050565b60005b838110156118bb5780820151818401526020810190506118a0565b60008484015250505050565b60006118d282611881565b6118dc818561188c565b93506118ec81856020860161189d565b6118f58161163b565b840191505092915050565b7f4e487b7100000000000000000000000000000000000000000000000000000000600052602160045260246000fd5b600681106119405761193f611900565b5b50565b60008190506119518261192f565b919050565b600061196182611943565b9050919050565b61197181611956565b82525050565b60006101408201905061198d600083018d611816565b61199a602083018c611872565b6119a7604083018b611872565b6119b4606083018a611816565b81810360808301526119c681896118c7565b905081810360a08301526119da81886118c7565b90506119e960c0830187611968565b81810360e08301526119fb81866118c7565b9050611a0b610100830185611816565b611a19610120830184611816565b9b9a5050505050505050505050565b6000602082019050611a3d6000830184611872565b92915050565b600080fd5b600080fd5b60008083601f840112611a6357611a62611631565b5b8235905067ffffffffffffffff811115611a8057611a7f611a43565b5b602083019150836001820283011115611a9c57611a9b611a48565b5b9250929050565b600080600060408486031215611abc57611abb6115c4565b5b6000611aca868287016115ef565b935050602084013567ffffffffffffffff811115611aeb57611aea6115c9565b5b611af786828701611a4d565b92509250509250925092565b6000819050919050565b6000611b28611b23611b1e84611840565b611b03565b611840565b9050919050565b6000611b3a82611b0d565b9050919050565b6000611b4c82611b2f565b9050919050565b611b5c81611b41565b82525050565b6000602082019050611b776000830184611b53565b92915050565b611b8681611860565b8114611b9157600080fd5b50565b600081359050611ba381611b7d565b92915050565b600060208284031215611bbf57611bbe6115c4565b5b6000611bcd84828501611b94565b91505092915050565b7f46656520746f6f20686967680000000000000000000000000000000000000000600082015250565b6000611c0c600c8361188c565b9150611c1782611bd6565b602082019050919050565b60006020820190508181036000830152611c3b81611bff565b9050919050565b7f426f756e7479206d757374206265203e20300000000000000000000000000000600082015250565b6000611c7860128361188c565b9150611c8382611c42565b602082019050919050565b60006020820190508181036000830152611ca781611c6b565b9050919050565b6000606082019050611cc36000830186611872565b611cd06020830185611872565b611cdd6040830184611816565b949350505050565b60008115159050919050565b611cfa81611ce5565b8114611d0557600080fd5b50565b600081519050611d1781611cf1565b92915050565b600060208284031215611d3357611d326115c4565b5b6000611d4184828501611d08565b91505092915050565b7f457363726f77206465706f736974206661696c65640000000000000000000000600082015250565b6000611d8060158361188c565b9150611d8b82611d4a565b602082019050919050565b60006020820190508181036000830152611daf81611d73565b9050919050565b7f4e487b7100000000000000000000000000000000000000000000000000000000600052601160045260246000fd5b6000611df0826115ce565b91507fffffffffffffffffffffffffffffffffffffffffffffffffffffffffffffffff8203611e2257611e21611db6565b5b600182019050919050565b6000611e38826115ce565b9150611e43836115ce565b9250828202611e51816115ce565b91508282048414831517611e6857611e67611db6565b5b5092915050565b6000611e7a826115ce565b9150611e85836115ce565b9250828201905080821115611e9d57611e9c611db6565b5b92915050565b7f4e487b7100000000000000000000000000000000000000000000000000000000600052602260045260246000fd5b60006002820490506001821680611eea57607f821691505b602082108103611efd57611efc611ea3565b5b50919050565b60008190508160005260206000209050919050565b60006020601f8301049050919050565b600082821b905092915050565b600060088302611f657fffffffffffffffffffffffffffffffffffffffffffffffffffffffffffffffff82611f28565b611f6f8683611f28565b95508019841693508086168417925050509392505050565b6000611fa2611f9d611f98846115ce565b611b03565b6115ce565b9050919050565b6000819050919050565b611fbc83611f87565b611fd0611fc882611fa9565b848454611f35565b825550505050565b600090565b611fe5611fd8565b611ff0818484611fb3565b505050565b5b8181101561201457612009600082611fdd565b600181019050611ff6565b5050565b601f8211156120595761202a81611f03565b61203384611f18565b81016020851015612042578190505b61205661204e85611f18565b830182611ff5565b50505b505050565b600082821c905092915050565b600061207c6000198460080261205e565b1980831691505092915050565b6000612095838361206b565b9150826002028217905092915050565b6120ae82611881565b67ffffffffffffffff8111156120c7576120c661164c565b5b6120d18254611ed2565b6120dc828285612018565b600060209050601f83116001811461210f57600084156120fd578287015190505b6121078582612089565b86555061216f565b601f19841661211d86611f03565b60005b8281101561214557848901518255600182019150602085019450602081019050612120565b86831015612162578489015161215e601f89168261206b565b8355505b6001600288020188555050505b505050505050565b600060408201905061218c6000830185611816565b818103602083015261219e81846118c7565b90509392505050565b7f4f6e6c79206f70656e20676967732063616e2062652063616e63656c6c656400600082015250565b60006121dd601f8361188c565b91506121e8826121a7565b602082019050919050565b6000602082019050818103600083015261220c816121d0565b9050919050565b7f4f6e6c7920706f737465722063616e2063616e63656c00000000000000000000600082015250565b600061224960168361188c565b915061225482612213565b602082019050919050565b600060208201905081810360008301526122788161223c565b9050919050565b60006040820190506122946000830185611872565b6122a16020830184611816565b9392505050565b7f526566756e64206661696c656400000000000000000000000000000000000000600082015250565b60006122de600d8361188c565b91506122e9826122a8565b602082019050919050565b6000602082019050818103600083015261230d816122d1565b9050919050565b7f476967206e6f74206f70656e0000000000000000000000000000000000000000600082015250565b600061234a600c8361188c565b915061235582612314565b602082019050919050565b600060208201905081810360008301526123798161233d565b9050919050565b7f43616e6e6f7420616363657074206f776e206769670000000000000000000000600082015250565b60006123b660158361188c565b91506123c182612380565b602082019050919050565b600060208201905081810360008301526123e5816123a9565b9050919050565b7f5769746864726177616c206661696c6564000000000000000000000000000000600082015250565b600061242260118361188c565b915061242d826123ec565b602082019050919050565b6000602082019050818103600083015261245181612415565b9050919050565b7f576f726b206e6f74207375626d69747465640000000000000000000000000000600082015250565b600061248e60128361188c565b915061249982612458565b602082019050919050565b600060208201905081810360008301526124bd81612481565b9050919050565b7f4f6e6c7920706f737465722063616e2072656c656173652066756e6473000000600082015250565b60006124fa601d8361188c565b9150612505826124c4565b602082019050919050565b60006020820190508181036000830152612529816124ed565b9050919050565b7f4e487b7100000000000000000000000000000000000000000000000000000000600052601260045260246000fd5b600061256a826115ce565b9150612575836115ce565b92508261258557612584612530565b5b828204905092915050565b600061259b826115ce565b91506125a6836115ce565b92508282039050818111156125be576125bd611db6565b5b92915050565b7f5061796f7574206661696c656400000000000000000000000000000000000000600082015250565b60006125fa600d8361188c565b9150612605826125c4565b602082019050919050565b60006020820190508181036000830152612629816125ed565b9050919050565b7f476967206e6f7420696e2070726f677265737300000000000000000000000000600082015250565b600061266660138361188c565b915061267182612630565b602082019050919050565b6000602082019050818103600083015261269581612659565b9050919050565b7f4f6e6c7920776f726b65722063616e207375626d697400000000000000000000600082015250565b60006126d260168361188c565b91506126dd8261269c565b602082019050919050565b60006020820190508181036000830152612701816126c5565b9050919050565b600082905092915050565b61271d8383612708565b67ffffffffffffffff8111156127365761273561164c565b5b6127408254611ed2565b61274b828285612018565b6000601f83116001811461277a5760008415612768578287013590505b6127728582612089565b8655506127da565b601f19841661278886611f03565b60005b828110156127b05784890135825560018201915060208501945060208101905061278b565b868310156127cd57848901356127c9601f89168261206b565b8355505b6001600288020188555050505b50505050505050565b60006127ef838561188c565b93506127fc8385846116f8565b6128058361163b565b840190509392505050565b6000602082019050818103600083015261282b8184866127e3565b9050939250505056fea2646970667358221220bfde02615061ea9dcfaf517c20caeb69571db38db8be8e0af6ca5efdae5a05ec64736f6c63430008140033",
  "linkReferences": {},
  "deployedLinkReferences": {}
}