{
  "_format": "hh-sol-artifact-1",
  "contractName": "MiniGigs",
  "sourceName": "contracts/MiniGigs.sol",
  "abi": [
    {
      "inputs": [
        {
          "internalType": "address",
          "name": "_stablecoin",
          "type": "address"
        }
      ],
      "stateMutability": "nonpayable",
      "type": "constructor"
    },
    {
      "inputs": [
        {
          "internalType": "address",
          "name": "owner",
          "type": "address"
        }
      ],
      "name": "OwnableInvalidOwner",
      "type": "error"
    },
    {
      "inputs": [
        {
          "internalType": "address",
          "name": "account",
          "type": "address"
        }
      ],
      "name": "OwnableUnauthorizedAccount",
      "type": "error"
    },
    {
      "inputs": [],
      "name": "ReentrancyGuardReentrantCall",
      "type": "error"
    },
    {
      "anonymous": false,
      "inputs": [
        {
          "indexed": true,
          "internalType": "uint256",
          "name": "id",
          "type": "uint256"
        },
        {
          "indexed": true,
          "internalType": "address",
          "name": "winner",
          "type": "address"
        },
        {
          "indexed": false,
          "internalType": "uint256",
          "name": "payout",
          "type": "uint256"
        }
      ],
      "name": "DisputeResolved",
      "type": "event"
    },
    {
      "anonymous": false,
      "inputs": [
        {
          "indexed": true,
          "internalType": "uint256",
          "name": "id",
          "type": "uint256"
        },
        {
          "indexed": true,
          "internalType": "address",
          "name": "worker",
          "type": "address"
        },
        {
          "indexed": true,
          "internalType": "address",
          "name": "poster",
          "type": "address"
        }
      ],
      "name": "GigAccepted",
      "type": "event"
    },
    {
      "anonymous": false,
      "inputs": [
        {
          "indexed": true,
          "internalType": "uint256",
          "name": "id",
          "type": "uint256"
        }
      ],
      "name": "GigCancelled",
      "type": "event"
    },
    {
      "anonymous": false,
      "inputs": [
        {
          "indexed": true,
          "internalType": "uint256",
          "name": "id",
          "type": "uint256"
        },
        {
          "indexed": true,
          "internalType": "address",
          "name": "worker",
          "type": "address"
        },
        {
          "indexed": true,
          "internalType": "address",
          "name": "poster",
          "type": "address"
        },
        {
          "indexed": false,
          "internalType": "uint256",
          "name": "payout",
          "type": "uint256"
        }
      ],
      "name": "GigCompleted",
      "type": "event"
    },
    {
      "anonymous": false,
      "inputs": [
        {
          "indexed": true,
          "internalType": "uint256",
          "name": "id",
          "type": "uint256"
        },
        {
          "indexed": true,
          "internalType": "address",
          "name": "disputer",
          "type": "address"
        }
      ],
      "name": "GigDisputed",
      "type": "event"
    },
    {
      "anonymous": false,
      "inputs": [
        {
          "indexed": true,
          "internalType": "uint256",
          "name": "id",
          "type": "uint256"
        }
      ],
      "name": "GigExpired",
      "type": "event"
    },
    {
      "anonymous": false,
      "inputs": [
        {
          "indexed": true,
          "internalType": "uint256",
          "name": "id",
          "type": "uint256"
        },
        {
          "indexed": true,
          "internalType": "address",
          "name": "poster",
          "type": "address"
        },
        {
          "indexed": false,
          "internalType": "uint256",
          "name": "bounty",
          "type": "uint256"
        },
        {
          "indexed": false,
          "internalType": "string",
          "name": "title",
          "type": "string"
        }
      ],
      "name": "GigPosted",
      "type": "event"
    },
    {
      "anonymous": false,
      "inputs": [
        {
          "indexed": true,
          "internalType": "uint256",
          "name": "id",
          "type": "uint256"
        },
        {
          "indexed": true,
          "internalType": "address",
          "name": "worker",
          "type": "address"
        },
        {
          "indexed": false,
          "internalType": "string",
          "name": "deliverables",
          "type": "string"
        }
      ],
      "name": "GigSubmitted",
      "type": "event"
    },
    {
      "anonymous": false,
      "inputs": [
        {
          "indexed": true,
          "internalType": "address",
          "name": "previousOwner",
          "type": "address"
        },
        {
          "indexed": true,
          "internalType": "address",
          "name": "newOwner",
          "type": "address"
        }
      ],
      "name": "OwnershipTransferred",
      "type": "event"
    },
    {
      "inputs": [
        {
          "internalType": "uint256",
          "name": "_id",
          "type": "uint256"
        }
      ],
      "name": "acceptGig",
      "outputs": [],
      "stateMutability": "nonpayable",
      "type": "function"
    },
    {
      "inputs": [
        {
          "internalType": "uint256[]",
          "name": "_ids",
          "type": "uint256[]"
        }
      ],
      "name": "batchCompleteGigs",
      "outputs": [],
      "stateMutability": "nonpayable",
      "type": "function"
    },
    {
      "inputs": [
        {
          "internalType": "uint256",
          "name": "_id",
          "type": "uint256"
        }
      ],
      "name": "cancelGig",
      "outputs": [],
      "stateMutability": "nonpayable",
      "type": "function"
    },
    {
      "inputs": [
        {
          "internalType": "uint256",
          "name": "_id",
          "type": "uint256"
        }
      ],
      "name": "completeGig",
      "outputs": [],
      "stateMutability": "nonpayable",
      "type": "function"
    },
    {
      "inputs": [
        {
          "internalType": "uint256",
          "name": "_id",
          "type": "uint256"
        }
      ],
      "name": "disputeGig",
      "outputs": [],
      "stateMutability": "nonpayable",
      "type": "function"
    },
    {
      "inputs": [
        {
          "internalType": "uint256",
          "name": "_id",
          "type": "uint256"
        }
      ],
      "name": "expireGig",
      "outputs": [],
      "stateMutability": "nonpayable",
      "type": "function"
    },
    {
      "inputs": [],
      "name": "gigCount",
      "outputs": [
        {
          "internalType": "uint256",
          "name": "",
          "type": "uint256"
        }
      ],
      "stateMutability": "view",
      "type": "function"
    },
    {
      "inputs": [
        {
          "internalType": "uint256",
          "name": "",
          "type": "uint256"
        }
      ],
      "name": "gigs",
      "outputs": [
        {
          "internalType": "uint256",
          "name": "id",
          "type": "uint256"
        },
        {
          "internalType": "address",
          "name": "poster",
          "type": "address"
        },
        {
          "internalType": "address",
          "name": "worker",
          "type": "address"
        },
        {
          "internalType": "uint256",
          "name": "bounty",
          "type": "uint256"
        },
        {
          "internalType": "string",
          "name": "title",
          "type": "string"
        },
        {
          "internalType": "string",
          "name": "description",
          "type": "string"
        },
        {
          "internalType": "enum MiniGigs.GigStatus",
          "name": "status",
          "type": "uint8"
        },
        {
          "internalType": "string",
          "name": "deliverables",
          "type": "string"
        },
        {
          "internalType": "uint256",
          "name": "createdAt",
          "type": "uint256"
        },
        {
          "internalType": "uint256",
          "name": "deadline",
          "type": "uint256"
        }
      ],
      "stateMutability": "view",
      "type": "function"
    },
    {
      "inputs": [],
      "name": "owner",
      "outputs": [
        {
          "internalType": "address",
          "name": "",
          "type": "address"
        }
      ],
      "stateMutability": "view",
      "type": "function"
    },
    {
      "inputs": [],
      "name": "platformFeeBps",
      "outputs": [
        {
          "internalType": "uint256",
          "name": "",
          "type": "uint256"
        }
      ],
      "stateMutability": "view",
      "type": "function"
    },
    {
      "inputs": [
        {
          "internalType": "string",
          "name": "_title",
          "type": "string"
        },
        {
          "internalType": "string",
          "name": "_description",
          "type": "string"
        },
        {
          "internalType": "uint256",
          "name": "_bounty",
          "type": "uint256"
        },
        {
          "internalType": "uint256",
          "name": "_durationDays",
          "type": "uint256"
        }
      ],
      "name": "postGig",
      "outputs": [],
      "stateMutability": "nonpayable",
      "type": "function"
    },
    {
      "inputs": [],
      "name": "renounceOwnership",
      "outputs": [],
      "stateMutability": "nonpayable",
      "type": "function"
    },
    {
      "inputs": [
        {
          "internalType": "uint256",
          "name": "_id",
          "type": "uint256"
        },
        {
          "internalType": "uint256",
          "name": "_payoutToPoster",
          "type": "uint256"
        }
      ],
      "name": "resolveDispute",
      "outputs": [],
      "stateMutability": "nonpayable",
      "type": "function"
    },
    {
      "inputs": [
        {
          "internalType": "uint256",
          "name": "_bps",
          "type": "uint256"
        }
      ],
      "name": "setPlatformFee",
      "outputs": [],
      "stateMutability": "nonpayable",
      "type": "function"
    },
    {
      "inputs": [],
      "name": "stablecoin",
      "outputs": [
        {
          "internalType": "contract IERC20",
          "name": "",
          "type": "address"
        }
      ],
      "stateMutability": "view",
      "type": "function"
    },
    {
      "inputs": [
        {
          "internalType": "uint256",
          "name": "_id",
          "type": "uint256"
        },
        {
          "internalType": "string",
          "name": "_deliverables",
          "type": "string"
        }
      ],
      "name": "submitWork",
      "outputs": [],
      "stateMutability": "nonpayable",
      "type": "function"
    },
    {
      "inputs": [
        {
          "internalType": "address",
          "name": "newOwner",
          "type": "address"
        }
      ],
      "name": "transferOwnership",
      "outputs": [],
      "stateMutability": "nonpayable",
      "type": "function"
    },
    {
      "inputs": [
        {
          "internalType": "uint256",
          "name": "_amount",
          "type": "uint256"
        }
      ],
      "name": "withdrawFees",
      "outputs": [],
      "stateMutability": "nonpayable",
      "type": "function"
    }
  ],
  "bytecode": "0x608060405260c86004553480156200001657600080fd5b5060405162003d1538038062003d1583398181016040528101906200003c919062000298565b33600073ffffffffffffffffffffffffffffffffffffffff168173ffffffffffffffffffffffffffffffffffffffff1603620000b25760006040517f1e4fbdf7000000000000000000000000000000000000000000000000000000008152600401620000a99190620002db565b60405180910390fd5b620000c3816200013560201b60201c565b506001620000e6620000da620001f960201b60201c565b6200022460201b60201c565b6000018190555080600160006101000a81548173ffffffffffffffffffffffffffffffffffffffff021916908373ffffffffffffffffffffffffffffffffffffffff16021790555050620002f8565b60008060009054906101000a900473ffffffffffffffffffffffffffffffffffffffff169050816000806101000a81548173ffffffffffffffffffffffffffffffffffffffff021916908373ffffffffffffffffffffffffffffffffffffffff1602179055508173ffffffffffffffffffffffffffffffffffffffff168173ffffffffffffffffffffffffffffffffffffffff167f8be0079c531659141344cd1fd0a4f28419497f9722a3daafe3b4186f6b6457e060405160405180910390a35050565b60007f9b779b17422d0df92223018b32b4d1fa46e071723d6817e2486d003becc55f0060001b905090565b6000819050919050565b600080fd5b600073ffffffffffffffffffffffffffffffffffffffff82169050919050565b6000620002608262000233565b9050919050565b620002728162000253565b81146200027e57600080fd5b50565b600081519050620002928162000267565b92915050565b600060208284031215620002b157620002b06200022e565b5b6000620002c18482850162000281565b91505092915050565b620002d58162000253565b82525050565b6000602082019050620002f26000830184620002ca565b92915050565b613a0d80620003086000396000f3fe608060405234801561001057600080fd5b50600436106101165760003560e01c80635e3fbdc8116100a2578063bdc84ac311610071578063bdc84ac314610298578063d1846924146102b4578063da8accf9146102d0578063e9cbd822146102ec578063f2fde38b1461030a57610116565b80635e3fbdc81461021b578063715018a6146102545780637ee86fb31461025e5780638da5cb5b1461027a57610116565b80633689e916116100e95780633689e9161461018d5780634bca9a88146101ab578063537ac9f2146101c7578063578114dc146101e35780635e318e07146101ff57610116565b806312e8e2c31461011b57806316c3db58146101375780631906077d1461015357806322dcd13e1461016f575b600080fd5b61013560048036038101906101309190612335565b610326565b005b610151600480360381019061014c9190612335565b61037d565b005b61016d600480360381019061016891906124a8565b6105ad565b005b610177610944565b6040516101849190612556565b60405180910390f35b61019561094a565b6040516101a29190612556565b60405180910390f35b6101c560048036038101906101c09190612335565b610950565b005b6101e160048036038101906101dc9190612335565b610bc2565b005b6101fd60048036038101906101f89190612335565b610e0c565b005b61021960048036038101906102149190612335565b611020565b005b61023560048036038101906102309190612335565b611111565b60405161024b9a999897969594939291906126a8565b60405180910390f35b61025c61134a565b005b610278600480360381019061027391906127b9565b61135e565b005b6102826116c8565b60405161028f9190612806565b60405180910390f35b6102b260048036038101906102ad9190612821565b6116f1565b005b6102ce60048036038101906102c99190612335565b611b39565b005b6102ea60048036038101906102e591906128b7565b611e61565b005b6102f461201a565b6040516103019190612976565b60405180910390f35b610324600480360381019061031f91906129bd565b612040565b005b61032e6120c6565b6103e8811115610373576040517f08c379a000000000000000000000000000000000000000000000000000000000815260040161036a90612a36565b60405180910390fd5b8060048190555050565b6000600360008381526020019081526020016000209050600260068111156103a8576103a7612631565b5b8160060160009054906101000a900460ff1660068111156103cc576103cb612631565b5b148061040d5750600160068111156103e7576103e6612631565b5b8160060160009054906101000a900460ff16600681111561040b5761040a612631565b5b145b61044c576040517f08c379a000000000000000000000000000000000000000000000000000000000815260040161044390612aa2565b60405180910390fd5b8060010160009054906101000a900473ffffffffffffffffffffffffffffffffffffffff1673ffffffffffffffffffffffffffffffffffffffff163373ffffffffffffffffffffffffffffffffffffffff1614806104f957508060020160009054906101000a900473ffffffffffffffffffffffffffffffffffffffff1673ffffffffffffffffffffffffffffffffffffffff163373ffffffffffffffffffffffffffffffffffffffff16145b610538576040517f08c379a000000000000000000000000000000000000000000000000000000000815260040161052f90612b0e565b60405180910390fd5b60048160060160006101000a81548160ff021916908360068111156105605761055f612631565b5b02179055503373ffffffffffffffffffffffffffffffffffffffff16827f4692503f78893dfefd71edda8ffb8c490c3a203607b5cbaa7e7585a5b3efe8d060405160405180910390a35050565b6105b561214d565b600082116105f8576040517f08c379a00000000000000000000000000000000000000000000000000000000081526004016105ef90612b7a565b60405180910390fd5b600160009054906101000a900473ffffffffffffffffffffffffffffffffffffffff1673ffffffffffffffffffffffffffffffffffffffff166323b872dd3330856040518463ffffffff1660e01b815260040161065793929190612b9a565b6020604051808303816000875af1158015610676573d6000803e3d6000fd5b505050506040513d601f19601f8201168201806040525081019061069a9190612c09565b6106d9576040517f08c379a00000000000000000000000000000000000000000000000000000000081526004016106d090612c82565b60405180910390fd5b600260008154809291906106ec90612cd1565b919050555060405180610140016040528060025481526020013373ffffffffffffffffffffffffffffffffffffffff168152602001600073ffffffffffffffffffffffffffffffffffffffff1681526020018381526020018581526020018481526020016000600681111561076457610763612631565b5b815260200160405180602001604052806000815250815260200142815260200162015180836107939190612d19565b4261079e9190612d5b565b8152506003600060025481526020019081526020016000206000820151816000015560208201518160010160006101000a81548173ffffffffffffffffffffffffffffffffffffffff021916908373ffffffffffffffffffffffffffffffffffffffff16021790555060408201518160020160006101000a81548173ffffffffffffffffffffffffffffffffffffffff021916908373ffffffffffffffffffffffffffffffffffffffff16021790555060608201518160030155608082015181600401908161086d9190612f91565b5060a08201518160050190816108839190612f91565b5060c08201518160060160006101000a81548160ff021916908360068111156108af576108ae612631565b5b021790555060e08201518160070190816108c99190612f91565b50610100820151816008015561012082015181600901559050503373ffffffffffffffffffffffffffffffffffffffff166002547fd331dcf16ef7b1384947638c2e2b40bbde08aac9316b0ff35a593a3312fd73f7848760405161092e929190613063565b60405180910390a361093e612170565b50505050565b60045481565b60025481565b61095861214d565b60006003600083815260200190815260200160002090506000600681111561098357610982612631565b5b8160060160009054906101000a900460ff1660068111156109a7576109a6612631565b5b146109e7576040517f08c379a00000000000000000000000000000000000000000000000000000000081526004016109de906130df565b60405180910390fd5b3373ffffffffffffffffffffffffffffffffffffffff168160010160009054906101000a900473ffffffffffffffffffffffffffffffffffffffff1673ffffffffffffffffffffffffffffffffffffffff1614610a79576040517f08c379a0000000000000000000000000000000000000000000000000000000008152600401610a709061314b565b60405180910390fd5b60058160060160006101000a81548160ff02191690836006811115610aa157610aa0612631565b5b0217905550600160009054906101000a900473ffffffffffffffffffffffffffffffffffffffff1673ffffffffffffffffffffffffffffffffffffffff1663a9059cbb3383600301546040518363ffffffff1660e01b8152600401610b0792919061316b565b6020604051808303816000875af1158015610b26573d6000803e3d6000fd5b505050506040513d601f19601f82011682018060405250810190610b4a9190612c09565b610b89576040517f08c379a0000000000000000000000000000000000000000000000000000000008152600401610b80906131e0565b60405180910390fd5b817fed32a7868dd1701d125217f8867209cbb1c23f3cd6d044309a73d56b6c64702460405160405180910390a250610bbf612170565b50565b610bca61214d565b600060036000838152602001908152602001600020905060006006811115610bf557610bf4612631565b5b8160060160009054906101000a900460ff166006811115610c1957610c18612631565b5b14610c59576040517f08c379a0000000000000000000000000000000000000000000000000000000008152600401610c509061324c565b60405180910390fd5b80600901544211610c9f576040517f08c379a0000000000000000000000000000000000000000000000000000000008152600401610c96906132b8565b60405180910390fd5b60068160060160006101000a81548160ff02191690836006811115610cc757610cc6612631565b5b0217905550600160009054906101000a900473ffffffffffffffffffffffffffffffffffffffff1673ffffffffffffffffffffffffffffffffffffffff1663a9059cbb8260010160009054906101000a900473ffffffffffffffffffffffffffffffffffffffff1683600301546040518363ffffffff1660e01b8152600401610d5192919061316b565b6020604051808303816000875af1158015610d70573d6000803e3d6000fd5b505050506040513d601f19601f82011682018060405250810190610d949190612c09565b610dd3576040517f08c379a0000000000000000000000000000000000000000000000000000000008152600401610dca906131e0565b60405180910390fd5b817f87a6816e66cd54634297f446a863e443a1b345c5f6320c892d4de4b7b07d14c460405160405180910390a250610e09612170565b50565b600060036000838152602001908152602001600020905060006006811115610e3757610e36612631565b5b8160060160009054906101000a900460ff166006811115610e5b57610e5a612631565b5b14610e9b576040517f08c379a0000000000000000000000000000000000000000000000000000000008152600401610e9290613324565b60405180910390fd5b3373ffffffffffffffffffffffffffffffffffffffff168160010160009054906101000a900473ffffffffffffffffffffffffffffffffffffffff1673ffffffffffffffffffffffffffffffffffffffff1603610f2d576040517f08c379a0000000000000000000000000000000000000000000000000000000008152600401610f2490613390565b60405180910390fd5b338160020160006101000a81548173ffffffffffffffffffffffffffffffffffffffff021916908373ffffffffffffffffffffffffffffffffffffffff16021790555060018160060160006101000a81548160ff02191690836006811115610f9857610f97612631565b5b02179055508060010160009054906101000a900473ffffffffffffffffffffffffffffffffffffffff1673ffffffffffffffffffffffffffffffffffffffff163373ffffffffffffffffffffffffffffffffffffffff16837fb6c0ff4d2b4c4a840af5f24120872e97f1c6a2f2293092ca7301d3e05df34fcc60405160405180910390a45050565b6110286120c6565b600160009054906101000a900473ffffffffffffffffffffffffffffffffffffffff1673ffffffffffffffffffffffffffffffffffffffff1663a9059cbb61106e6116c8565b836040518363ffffffff1660e01b815260040161108c92919061316b565b6020604051808303816000875af11580156110ab573d6000803e3d6000fd5b505050506040513d601f19601f820116820180604052508101906110cf9190612c09565b61110e576040517f08c379a0000000000000000000000000000000000000000000000000000000008152600401611105906133fc565b60405180910390fd5b50565b60036020528060005260406000206000915090508060000154908060010160009054906101000a900473ffffffffffffffffffffffffffffffffffffffff16908060020160009054906101000a900473ffffffffffffffffffffffffffffffffffffffff169080600301549080600401805461118c90612dbe565b80601f01602080910402602001604051908101604052809291908181526020018280546111b890612dbe565b80156112055780601f106111da57610100808354040283529160200191611205565b820191906000526020600020905b8154815290600101906020018083116111e857829003601f168201915b50505050509080600501805461121a90612dbe565b80601f016020809104026020016040519081016040528092919081815260200182805461124690612dbe565b80156112935780601f1061126857610100808354040283529160200191611293565b820191906000526020600020905b81548152906001019060200180831161127657829003601f168201915b5050505050908060060160009054906101000a900460ff16908060070180546112bb90612dbe565b80601f01602080910402602001604051908101604052809291908181526020018280546112e790612dbe565b80156113345780601f1061130957610100808354040283529160200191611334565b820191906000526020600020905b81548152906001019060200180831161131757829003601f168201915b505050505090806008015490806009015490508a565b6113526120c6565b61135c600061218b565b565b61136661214d565b60005b828290508110156116bb5760008383838181106113895761138861341c565b5b9050602002013590506000600360008381526020019081526020016000209050600260068111156113bd576113bc612631565b5b8160060160009054906101000a900460ff1660068111156113e1576113e0612631565b5b14611421576040517f08c379a000000000000000000000000000000000000000000000000000000000815260040161141890613497565b60405180910390fd5b3373ffffffffffffffffffffffffffffffffffffffff168160010160009054906101000a900473ffffffffffffffffffffffffffffffffffffffff1673ffffffffffffffffffffffffffffffffffffffff16146114b3576040517f08c379a00000000000000000000000000000000000000000000000000000000081526004016114aa90613503565b60405180910390fd5b60038160060160006101000a81548160ff021916908360068111156114db576114da612631565b5b0217905550600061271060045483600301546114f79190612d19565b6115019190613552565b905060008183600301546115159190613583565b9050600160009054906101000a900473ffffffffffffffffffffffffffffffffffffffff1673ffffffffffffffffffffffffffffffffffffffff1663a9059cbb8460020160009054906101000a900473ffffffffffffffffffffffffffffffffffffffff16836040518363ffffffff1660e01b815260040161159892919061316b565b6020604051808303816000875af11580156115b7573d6000803e3d6000fd5b505050506040513d601f19601f820116820180604052508101906115db9190612c09565b61161a576040517f08c379a000000000000000000000000000000000000000000000000000000000815260040161161190613603565b60405180910390fd5b3373ffffffffffffffffffffffffffffffffffffffff168360020160009054906101000a900473ffffffffffffffffffffffffffffffffffffffff1673ffffffffffffffffffffffffffffffffffffffff16857fd6aa43b3ef389699d8f67c5f1a0c7aed44dabfc43ff152ab342c962c8ce7de398460405161169c9190612556565b60405180910390a45050505080806116b390612cd1565b915050611369565b506116c4612170565b5050565b60008060009054906101000a900473ffffffffffffffffffffffffffffffffffffffff16905090565b6116f96120c6565b61170161214d565b60006003600084815260200190815260200160002090506004600681111561172c5761172b612631565b5b8160060160009054906101000a900460ff1660068111156117505761174f612631565b5b14611790576040517f08c379a00000000000000000000000000000000000000000000000000000000081526004016117879061366f565b60405180910390fd5b60648211156117d4576040517f08c379a00000000000000000000000000000000000000000000000000000000081526004016117cb906136db565b60405180910390fd5b600060648383600301546117e89190612d19565b6117f29190613552565b905060008183600301546118069190613583565b9050600082111561191557600160009054906101000a900473ffffffffffffffffffffffffffffffffffffffff1673ffffffffffffffffffffffffffffffffffffffff1663a9059cbb8460010160009054906101000a900473ffffffffffffffffffffffffffffffffffffffff16846040518363ffffffff1660e01b815260040161189292919061316b565b6020604051808303816000875af11580156118b1573d6000803e3d6000fd5b505050506040513d601f19601f820116820180604052508101906118d59190612c09565b611914576040517f08c379a000000000000000000000000000000000000000000000000000000000815260040161190b90613747565b60405180910390fd5b5b6000811115611a53576000612710600454836119319190612d19565b61193b9190613552565b90506000818361194b9190613583565b9050600160009054906101000a900473ffffffffffffffffffffffffffffffffffffffff1673ffffffffffffffffffffffffffffffffffffffff1663a9059cbb8660020160009054906101000a900473ffffffffffffffffffffffffffffffffffffffff16836040518363ffffffff1660e01b81526004016119ce92919061316b565b6020604051808303816000875af11580156119ed573d6000803e3d6000fd5b505050506040513d601f19601f82011682018060405250810190611a119190612c09565b611a50576040517f08c379a0000000000000000000000000000000000000000000000000000000008152600401611a47906137b3565b60405180910390fd5b50505b60038360060160006101000a81548160ff02191690836006811115611a7b57611a7a612631565b5b021790555060648414611ab2578260020160009054906101000a900473ffffffffffffffffffffffffffffffffffffffff16611ad8565b8260010160009054906101000a900473ffffffffffffffffffffffffffffffffffffffff165b73ffffffffffffffffffffffffffffffffffffffff16857fdf0baf5489595ea17a097d16827d60793e2f57f3b85a982e5d7e02838b841ee68560030154604051611b229190612556565b60405180910390a3505050611b35612170565b5050565b611b4161214d565b600060036000838152602001908152602001600020905060026006811115611b6c57611b6b612631565b5b8160060160009054906101000a900460ff166006811115611b9057611b8f612631565b5b14611bd0576040517f08c379a0000000000000000000000000000000000000000000000000000000008152600401611bc790613497565b60405180910390fd5b3373ffffffffffffffffffffffffffffffffffffffff168160010160009054906101000a900473ffffffffffffffffffffffffffffffffffffffff1673ffffffffffffffffffffffffffffffffffffffff1614611c62576040517f08c379a0000000000000000000000000000000000000000000000000000000008152600401611c5990613503565b60405180910390fd5b60038160060160006101000a81548160ff02191690836006811115611c8a57611c89612631565b5b021790555060006127106004548360030154611ca69190612d19565b611cb09190613552565b90506000818360030154611cc49190613583565b9050600160009054906101000a900473ffffffffffffffffffffffffffffffffffffffff1673ffffffffffffffffffffffffffffffffffffffff1663a9059cbb8460020160009054906101000a900473ffffffffffffffffffffffffffffffffffffffff16836040518363ffffffff1660e01b8152600401611d4792919061316b565b6020604051808303816000875af1158015611d66573d6000803e3d6000fd5b505050506040513d601f19601f82011682018060405250810190611d8a9190612c09565b611dc9576040517f08c379a0000000000000000000000000000000000000000000000000000000008152600401611dc090613603565b60405180910390fd5b3373ffffffffffffffffffffffffffffffffffffffff168360020160009054906101000a900473ffffffffffffffffffffffffffffffffffffffff1673ffffffffffffffffffffffffffffffffffffffff16857fd6aa43b3ef389699d8f67c5f1a0c7aed44dabfc43ff152ab342c962c8ce7de3984604051611e4b9190612556565b60405180910390a4505050611e5e612170565b50565b600060036000858152602001908152602001600020905060016006811115611e8c57611e8b612631565b5b8160060160009054906101000a900460ff166006811115611eb057611eaf612631565b5b14611ef0576040517f08c379a0000000000000000000000000000000000000000000000000000000008152600401611ee79061381f565b60405180910390fd5b3373ffffffffffffffffffffffffffffffffffffffff168160020160009054906101000a900473ffffffffffffffffffffffffffffffffffffffff1673ffffffffffffffffffffffffffffffffffffffff1614611f82576040517f08c379a0000000000000000000000000000000000000000000000000000000008152600401611f799061388b565b60405180910390fd5b8282826007019182611f959291906138b6565b5060028160060160006101000a81548160ff02191690836006811115611fbe57611fbd612631565b5b02179055503373ffffffffffffffffffffffffffffffffffffffff16847fee03d8ca892f60549b4585b91e57a806ee32043f2ee49d34d6c67f42889df0ff858560405161200c9291906139b3565b60405180910390a350505050565b600160009054906101000a900473ffffffffffffffffffffffffffffffffffffffff1681565b6120486120c6565b600073ffffffffffffffffffffffffffffffffffffffff168173ffffffffffffffffffffffffffffffffffffffff16036120ba5760006040517f1e4fbdf70000000000000000000000000000000000000000000000000000000081526004016120b19190612806565b60405180910390fd5b6120c38161218b565b50565b6120ce61224f565b73ffffffffffffffffffffffffffffffffffffffff166120ec6116c8565b73ffffffffffffffffffffffffffffffffffffffff161461214b5761210f61224f565b6040517f118cdaa70000000000000000000000000000000000000000000000000000000081526004016121429190612806565b60405180910390fd5b565b612155612257565b6002612167612162612298565b6122c3565b60000181905550565b600161218261217d612298565b6122c3565b60000181905550565b60008060009054906101000a900473ffffffffffffffffffffffffffffffffffffffff169050816000806101000a81548173ffffffffffffffffffffffffffffffffffffffff021916908373ffffffffffffffffffffffffffffffffffffffff1602179055508173ffffffffffffffffffffffffffffffffffffffff168173ffffffffffffffffffffffffffffffffffffffff167f8be0079c531659141344cd1fd0a4f28419497f9722a3daafe3b4186f6b6457e060405160405180910390a35050565b600033905090565b61225f6122cd565b15612296576040517f3ee5aeb500000000000000000000000000000000000000000000000000000000815260040160405180910390fd5b565b60007f9b779b17422d0df92223018b32b4d1fa46e071723d6817e2486d003becc55f0060001b905090565b6000819050919050565b600060026122e16122dc612298565b6122c3565b6000015414905090565b6000604051905090565b600080fd5b600080fd5b6000819050919050565b612312816122ff565b811461231d57600080fd5b50565b60008135905061232f81612309565b92915050565b60006020828403121561234b5761234a6122f5565b5b600061235984828501612320565b91505092915050565b600080fd5b600080fd5b6000601f19601f8301169050919050565b7f4e487b7100000000000000000000000000000000000000000000000000000000600052604160045260246000fd5b6123b58261236c565b810181811067ffffffffffffffff821117156123d4576123d361237d565b5b80604052505050565b60006123e76122eb565b90506123f382826123ac565b919050565b600067ffffffffffffffff8211156124135761241261237d565b5b61241c8261236c565b9050602081019050919050565b82818337600083830152505050565b600061244b612446846123f8565b6123dd565b90508281526020810184848401111561246757612466612367565b5b612472848285612429565b509392505050565b600082601f83011261248f5761248e612362565b5b813561249f848260208601612438565b91505092915050565b600080600080608085870312156124c2576124c16122f5565b5b600085013567ffffffffffffffff8111156124e0576124df6122fa565b5b6124ec8782880161247a565b945050602085013567ffffffffffffffff81111561250d5761250c6122fa565b5b6125198782880161247a565b935050604061252a87828801612320565b925050606061253b87828801612320565b91505092959194509250565b612550816122ff565b82525050565b600060208201905061256b6000830184612547565b92915050565b600073ffffffffffffffffffffffffffffffffffffffff82169050919050565b600061259c82612571565b9050919050565b6125ac81612591565b82525050565b600081519050919050565b600082825260208201905092915050565b60005b838110156125ec5780820151818401526020810190506125d1565b60008484015250505050565b6000612603826125b2565b61260d81856125bd565b935061261d8185602086016125ce565b6126268161236c565b840191505092915050565b7f4e487b7100000000000000000000000000000000000000000000000000000000600052602160045260246000fd5b6007811061267157612670612631565b5b50565b600081905061268282612660565b919050565b600061269282612674565b9050919050565b6126a281612687565b82525050565b6000610140820190506126be600083018d612547565b6126cb602083018c6125a3565b6126d8604083018b6125a3565b6126e5606083018a612547565b81810360808301526126f781896125f8565b905081810360a083015261270b81886125f8565b905061271a60c0830187612699565b81810360e083015261272c81866125f8565b905061273c610100830185612547565b61274a610120830184612547565b9b9a5050505050505050505050565b600080fd5b600080fd5b60008083601f84011261277957612778612362565b5b8235905067ffffffffffffffff81111561279657612795612759565b5b6020830191508360208202830111156127b2576127b161275e565b5b9250929050565b600080602083850312156127d0576127cf6122f5565b5b600083013567ffffffffffffffff8111156127ee576127ed6122fa565b5b6127fa85828601612763565b92509250509250929050565b600060208201905061281b60008301846125a3565b92915050565b60008060408385031215612838576128376122f5565b5b600061284685828601612320565b925050602061285785828601612320565b9150509250929050565b60008083601f84011261287757612876612362565b5b8235905067ffffffffffffffff81111561289457612893612759565b5b6020830191508360018202830111156128b0576128af61275e565b5b9250929050565b6000806000604084860312156128d0576128cf6122f5565b5b60006128de86828701612320565b935050602084013567ffffffffffffffff8111156128ff576128fe6122fa565b5b61290b86828701612861565b92509250509250925092565b6000819050919050565b600061293c61293761293284612571565b612917565b612571565b9050919050565b600061294e82612921565b9050919050565b600061296082612943565b9050919050565b61297081612955565b82525050565b600060208201905061298b6000830184612967565b92915050565b61299a81612591565b81146129a557600080fd5b50565b6000813590506129b781612991565b92915050565b6000602082840312156129d3576129d26122f5565b5b60006129e1848285016129a8565b91505092915050565b7f46656520746f6f20686967680000000000000000000000000000000000000000600082015250565b6000612a20600c836125bd565b9150612a2b826129ea565b602082019050919050565b60006020820190508181036000830152612a4f81612a13565b9050919050565b7f496e76616c69642073746174757320666f722064697370757465000000000000600082015250565b6000612a8c601a836125bd565b9150612a9782612a56565b602082019050919050565b60006020820190508181036000830152612abb81612a7f565b9050919050565b7f4e6f7420617574686f72697a656420746f206469737075746500000000000000600082015250565b6000612af86019836125bd565b9150612b0382612ac2565b602082019050919050565b60006020820190508181036000830152612b2781612aeb565b9050919050565b7f426f756e7479206d757374206265203e20300000000000000000000000000000600082015250565b6000612b646012836125bd565b9150612b6f82612b2e565b602082019050919050565b60006020820190508181036000830152612b9381612b57565b9050919050565b6000606082019050612baf60008301866125a3565b612bbc60208301856125a3565b612bc96040830184612547565b949350505050565b60008115159050919050565b612be681612bd1565b8114612bf157600080fd5b50565b600081519050612c0381612bdd565b92915050565b600060208284031215612c1f57612c1e6122f5565b5b6000612c2d84828501612bf4565b91505092915050565b7f457363726f77206465706f736974206661696c65640000000000000000000000600082015250565b6000612c6c6015836125bd565b9150612c7782612c36565b602082019050919050565b60006020820190508181036000830152612c9b81612c5f565b9050919050565b7f4e487b7100000000000000000000000000000000000000000000000000000000600052601160045260246000fd5b6000612cdc826122ff565b91507fffffffffffffffffffffffffffffffffffffffffffffffffffffffffffffffff8203612d0e57612d0d612ca2565b5b600182019050919050565b6000612d24826122ff565b9150612d2f836122ff565b9250828202612d3d816122ff565b91508282048414831517612d5457612d53612ca2565b5b5092915050565b6000612d66826122ff565b9150612d71836122ff565b9250828201905080821115612d8957612d88612ca2565b5b92915050565b7f4e487b7100000000000000000000000000000000000000000000000000000000600052602260045260246000fd5b60006002820490506001821680612dd657607f821691505b602082108103612de957612de8612d8f565b5b50919050565b60008190508160005260206000209050919050565b60006020601f8301049050919050565b600082821b905092915050565b600060088302612e517fffffffffffffffffffffffffffffffffffffffffffffffffffffffffffffffff82612e14565b612e5b8683612e14565b95508019841693508086168417925050509392505050565b6000612e8e612e89612e84846122ff565b612917565b6122ff565b9050919050565b6000819050919050565b612ea883612e73565b612ebc612eb482612e95565b848454612e21565b825550505050565b600090565b612ed1612ec4565b612edc818484612e9f565b505050565b5b81811015612f0057612ef5600082612ec9565b600181019050612ee2565b5050565b601f821115612f4557612f1681612def565b612f1f84612e04565b81016020851015612f2e578190505b612f42612f3a85612e04565b830182612ee1565b50505b505050565b600082821c905092915050565b6000612f6860001984600802612f4a565b1980831691505092915050565b6000612f818383612f57565b9150826002028217905092915050565b612f9a826125b2565b67ffffffffffffffff811115612fb357612fb261237d565b5b612fbd8254612dbe565b612fc8828285612f04565b600060209050601f831160018114612ffb5760008415612fe9578287015190505b612ff38582612f75565b86555061305b565b601f19841661300986612def565b60005b828110156130315784890151825560018201915060208501945060208101905061300c565b8683101561304e578489015161304a601f891682612f57565b8355505b6001600288020188555050505b505050505050565b60006040820190506130786000830185612547565b818103602083015261308a81846125f8565b90509392505050565b7f4f6e6c79206f70656e20676967732063616e2062652063616e63656c6c656400600082015250565b60006130c9601f836125bd565b91506130d482613093565b602082019050919050565b600060208201905081810360008301526130f8816130bc565b9050919050565b7f4f6e6c7920706f737465722063616e2063616e63656c00000000000000000000600082015250565b60006131356016836125bd565b9150613140826130ff565b602082019050919050565b6000602082019050818103600083015261316481613128565b9050919050565b600060408201905061318060008301856125a3565b61318d6020830184612547565b9392505050565b7f526566756e64206661696c656400000000000000000000000000000000000000600082015250565b60006131ca600d836125bd565b91506131d582613194565b602082019050919050565b600060208201905081810360008301526131f9816131bd565b9050919050565b7f4f6e6c79206f70656e20676967732063616e2065787069726500000000000000600082015250565b60006132366019836125bd565b915061324182613200565b602082019050919050565b6000602082019050818103600083015261326581613229565b9050919050565b7f446561646c696e65206e6f742072656163686564000000000000000000000000600082015250565b60006132a26014836125bd565b91506132ad8261326c565b602082019050919050565b600060208201905081810360008301526132d181613295565b9050919050565b7f476967206e6f74206f70656e0000000000000000000000000000000000000000600082015250565b600061330e600c836125bd565b9150613319826132d8565b602082019050919050565b6000602082019050818103600083015261333d81613301565b9050919050565b7f43616e6e6f7420616363657074206f776e206769670000000000000000000000600082015250565b600061337a6015836125bd565b915061338582613344565b602082019050919050565b600060208201905081810360008301526133a98161336d565b9050919050565b7f5769746864726177616c206661696c6564000000000000000000000000000000600082015250565b60006133e66011836125bd565b91506133f1826133b0565b602082019050919050565b60006020820190508181036000830152613415816133d9565b9050919050565b7f4e487b7100000000000000000000000000000000000000000000000000000000600052603260045260246000fd5b7f576f726b206e6f74207375626d69747465640000000000000000000000000000600082015250565b60006134816012836125bd565b915061348c8261344b565b602082019050919050565b600060208201905081810360008301526134b081613474565b9050919050565b7f4f6e6c7920706f737465722063616e2072656c656173652066756e6473000000600082015250565b60006134ed601d836125bd565b91506134f8826134b7565b602082019050919050565b6000602082019050818103600083015261351c816134e0565b9050919050565b7f4e487b7100000000000000000000000000000000000000000000000000000000600052601260045260246000fd5b600061355d826122ff565b9150613568836122ff565b92508261357857613577613523565b5b828204905092915050565b600061358e826122ff565b9150613599836122ff565b92508282039050818111156135b1576135b0612ca2565b5b92915050565b7f5061796f7574206661696c656400000000000000000000000000000000000000600082015250565b60006135ed600d836125bd565b91506135f8826135b7565b602082019050919050565b6000602082019050818103600083015261361c816135e0565b9050919050565b7f476967206e6f7420646973707574656400000000000000000000000000000000600082015250565b60006136596010836125bd565b915061366482613623565b602082019050919050565b600060208201905081810360008301526136888161364c565b9050919050565b7f496e76616c69642070657263656e746167650000000000000000000000000000600082015250565b60006136c56012836125bd565b91506136d08261368f565b602082019050919050565b600060208201905081810360008301526136f4816136b8565b9050919050565b7f506f7374657220726566756e64206661696c6564000000000000000000000000600082015250565b60006137316014836125bd565b915061373c826136fb565b602082019050919050565b6000602082019050818103600083015261376081613724565b9050919050565b7f576f726b6572207061796f7574206661696c6564000000000000000000000000600082015250565b600061379d6014836125bd565b91506137a882613767565b602082019050919050565b600060208201905081810360008301526137cc81613790565b9050919050565b7f476967206e6f7420696e2070726f677265737300000000000000000000000000600082015250565b60006138096013836125bd565b9150613814826137d3565b602082019050919050565b60006020820190508181036000830152613838816137fc565b9050919050565b7f4f6e6c7920776f726b65722063616e207375626d697400000000000000000000600082015250565b60006138756016836125bd565b91506138808261383f565b602082019050919050565b600060208201905081810360008301526138a481613868565b9050919050565b600082905092915050565b6138c083836138ab565b67ffffffffffffffff8111156138d9576138d861237d565b5b6138e38254612dbe565b6138ee828285612f04565b6000601f83116001811461391d576000841561390b578287013590505b6139158582612f75565b86555061397d565b601f19841661392b86612def565b60005b828110156139535784890135825560018201915060208501945060208101905061392e565b86831015613970578489013561396c601f891682612f57565b8355505b6001600288020188555050505b50505050505050565b600061399283856125bd565b935061399f838584612429565b6139a88361236c565b840190509392505050565b600060208201905081810360008301526139ce818486613986565b9050939250505056fea264697066735822122087dbd2e265f7664b970d5496ad51d1ce2c1791cfbc0087ee06c348697968b72c64736f6c63430008140033",
  "linkReferences": {},
  "deployedLinkReferences": {}
}